:100000000C94EF1D18951895189518951895189536
:100010000C945A01189518951895189518951895D7
:100020001895189518951895189518950C941D1DE8
:100030001895189518951895189518951895189558
:100040001895189518951895189518951895189548
:10005000189518951895189544656275672D4D6F1C
:100060006465206F6E200000003D0544054C05537B
:10007000055A05600566056C05720577057D0582E4
:100080000587058B059005940598059C05A005A49A
:1000900005A705AB05AE05B105B405B705B905BCA7
:1000A00005BF05C105C305C605C805CA05CC05CEF3
:1000B00005D005D205D405D505D705D905DA05DC67
:1000C00005DE05DF05E105E205E405E505E605E8F1
:1000D00005E905EB05EC05ED05EF05F005F105F388
:1000E00005F405F605F705F805FA05FB05FC05FE20
:1000F00005FF0501060206040605060706080609AF
:10010000060B060C060E060F06110613061406163D
:1001100006170619061A061C061E061F06210622C9
:100120000624062606270629062B062C062E062F51
:10013000063106330634063606370639063B063CDA
:10014000063E063F06410642064406450647064867
:10015000064A064B064D064E0650065106520654F8
:100160000655065606580659065A065B065D065E93
:10017000065F066006610662066406650666066737
:1001800006680669066A066B066C066D066E066FE3
:10019000067006710672067306750676067706788F
:1001A0000679067A067B067D067E067F0681068234
:1001B0000683068506870688068A068C068E0690C4
:1001C0000692069406960699069C069E06A106A42B
:1001D00006A706AB06AE06B206B606BA06BE06C34C
:1001E00006C806CD06D206D706DD06E306EA06F106
:1001F00006F806FF060707FF07FF10E019C020E01A
:10020000322F40815181440F551F4083518307FB9A
:100210001EF4208121602083000F332341F022E06F
:1002200030E1408151814227532740835183139508
:10023000183038F4E9E6F2E0218127FFE0CF21E031
:10024000DFCF08950FEFE9E6F2E000830183089520
:10025000002359F4F894EDE1F2E000EF022300836B
:1002600031832F70228323837894089500E002BDA8
:1002700002B5102F10FDFCCF0BE005BD02B5102F0D
:1002800011FDFCCF09EF03BD09B7006809BF09B72D
:100290000F7B09BF0895EADF00E009C0EDE1F2E05D
:1002A0000CE010E0008311830283038301E000234C
:1002B000A9F30895BA93AA938A93FA93EA933A9288
:1002C0002A921A920A927A936A935A934A933A9389
:1002D0002A931A930A938FB7ADE1B2E0FD0101852D
:1002E0000160018702850395028702850A3029F49F
:1002F00000E002870185026001870385039503877B
:100300000385043629F400E0038701850460018732
:100310000485039504870485083911F400E00487F7
:100320000285023048F410E0E00FF11F078100233E
:1003300019F007810A950783FD010485002311F553
:1003400024816D917C91119701E010E043814D5F14
:100350000E94161E06231723012B11F011E001C085
:1003600010E0022F0E94EE02FD01248507E0029FAB
:10037000E00DF11D03810A9503830381002311F42D
:10038000028103838FBF0991199129913991499174
:100390005991699179910990199029903990E99131
:1003A000F9918991A991B99118959A938A93C80165
:1003B00002C00E94531CE199FCCF9FBB8EBB01E0A1
:1003C0000CBB0DB38991999108958A93822FEDDF2B
:1003D000081719F40AC00E94531CE199FCCF8DBB89
:1003E000F89404E00CBBE19A789489910895EBE6C7
:1003F000F2E000E0048305830283038303E712E055
:100400000083118300E0068307830895AD01EBE6C6
:10041000F2E0268137812C3414E0310710F000E03F
:100420001DC0A081B18122813381A20FB31F0C9323
:10043000028113810F5F1F4F028313830281138197
:100440000C3424E0120718F000E0028303830681D5
:1004500017810F5F1F4F0683178301E0DA010895AC
:10046000AD01EBE6F2E006811781012B11F400E00B
:100470001CC0A081B18104811581A00FB11F0C9116
:10048000248135812F5F3F4F24833583248135813B
:100490002C3414E0310718F020E0248325832681D2
:1004A00037812150304026833783DA0108954A92FC
:1004B000BA93AA939A938A93B02F412EC901A42F7D
:1004C000EBE6F2E0268137810A2F10E0020F131FBE
:1004D0000D5F1F4F0D3424E0120710F4A7FB16F434
:1004E00000E010C00A2F0D5F91DF0B2F8FDF042D6E
:1004F0008DDF05C0FC010191CF0188DFAA95AA23F9
:10050000C9F701E089919991A991B991499008950C
:100510009A928A926A925A924A92BA93AA939A9318
:100520008A932801C901DA014B016984EBE6F2E004
:1005300006811781012B11F400E016C091DF0350F2
:10054000F40100838DDFF20100838ADFFC01008368
:10055000F401808104C084DF0D938A956A94882316
:1005600011F06620C1F701E089919991A991B991A3
:10057000499059906990899099902196089508958D
:100580000AB30F730ABB0BB3006C0BBBB89ABA98D3
:10059000C098C29A23EA3FE000E00E94CA0402E247
:1005A0000FBD09E10EBD0FEF17E017BD06BD00E05E
:1005B00009BD08BD8C9A15E00E94F30440E032E0CA
:1005C00020E010E000E00E94D60440E032E02FEF8F
:1005D00013E000E00E946504D2DF0895023071F458
:1005E000193C08F018ECE7E6F0E002E0109FE00D9F
:1005F000F11D0591149119BD08BD0895053029F428
:10060000112311F0C09A0895C0980895BA93AA933F
:10061000D90110E0FD011183002331F4CF9B02C00A
:1006200000E07AC008EC78C0013019F4CE99F8CF18
:10063000F9CF023009F071C002E00E945804202F67
:1006400006E010E0029F002D110DF801E15BFD4F67
:100650002181E7EEF6E007E3029FE00DF11D02A91C
:1006600013A924A935A9012B022B032B61F003A5A3
:10067000013021F411960C91006103C011960C9188
:1006800000620C93119701A9002391F1033081F1CD
:10069000023051F445855685678570894F3F1FEFBD
:1006A00051076107710721F5053051F4418D528DD5
:1006B000638D748D4F3F1FEF510761077107C1F4C0
:1006C000013051F445855685678570894F3F1FEF8E
:1006D00051076107710761F4043071F4018D128DC7
:1006E000238D348D0F3F4FEF14072407340721F07B
:1006F000FD0101810064018300E001C00395E7E68C
:10070000F0E012E0019FE00DF11D2591349148B514
:1007100059B52417350791F70C93A991B99108950C
:100720000895F8012081CF9B02C02E7F01C0216077
:1007300020832181CE9B02C02E7F01C021602183B6
:100740000281B29B02C00E7F01C001600283089546
:10075000089500E00BC0202F30E0F901E25DFD4F6D
:100760003083F901E25DFD4F33830395033098F345
:100770000895BA93AA938A93F8948091260200E090
:10078000009326027894082F057011F400E08CC0C5
:10079000AEE2B2E08D010E94910320E0FD010681EE
:1007A000002381F401E0068300E00AC0FD01E00FB0
:1007B000F21F108110FF03C01081106C108303958D
:1007C0000330A0F300E004C010811F7B1083039569
:1007D0000330A0F410E0FD01E00FF11F10811D7E39
:1007E000108310811174113411F0112309F4239531
:1007F000108110FFE9CF10811064E8CF201769F451
:10080000FD010781002319F007810A9507830781FD
:10081000002309F0BBCF00E008C00AE0FD01078318
:10082000B5CF10811F77108303950330E0F5002EBC
:100830001124AD01400D511DFA016381633030F484
:10084000108117FF03C0108111601083108110FF09
:1008500003C01081106202C010811F7D10831081BF
:100860001178113019F41081106104C01038D9F3D7
:1008700010811F7E1083108115FF0FC0108114FF9F
:1008800002C0138207C082FB46F46F3F31F0138130
:1008900013951383108112601083108115FFC1CF4F
:1008A00010811068C0CF01E08991A991B991089594
:1008B00010E001C011E0112331F410915102101722
:1008C000C9F700E008950FEF08956A925A924A928C
:1008D000BA93AA939A938A93512E422E932F842FE0
:1008E000F894002389F4ABE3B2E06624092FE0DF3B
:1008F000202F06E0029FFD01E00DF11D618EFD013C
:10090000528E438E948F858F789489919991A99175
:10091000B9914990599069900895E0E0F0ECF12385
:10092000E03020ECF20729F40FEF1FEF2FEF3FEF3D
:1009300008954FEF5FE3402351238A0120E030E028
:10094000E050F04891F0E050F04C19F54AE050E0EA
:1009500060E070E0419F500D611D409F402D510DA2
:10096000621F721F8A019B01089548E552E060E012
:1009700070E0519F600D509F502D610D419F500DB3
:10098000611D721F409F402D510D621F721F8A0111
:100990009B010895402F04E110E0049F002D110DEC
:1009A000F801E55CFD4F228333830895602F012F0A
:1009B000122FEBE3F2E0262E66E0629DE00DF11DC2
:1009C000058B368B20E0278B148B408F24E130E0A1
:1009D000219F202D310DF901E55CFD4F22813381EE
:1009E000F9010995089527E030E0209F202D310D71
:1009F000F901E35EFD4F148308959A938A9358DFBB
:100A00000F3F09F1802F90E026E030E0209F202D5D
:100A1000310DF901E55CFD4F448924E130E0249F6C
:100A2000202D310DF901E55CFD4F22893389F90153
:100A30000995002341F001E010E00E94D501FC017E
:100A4000E55CFD4F02A38991999108959A928A924B
:100A50006A925A924A92BA93AA939A938A93D80125
:100A6000622E532E8CE693E044241CC0839404E051
:100A7000801678F4082D10E0080F191F0F5F1F4F24
:100A80000E94D5019924FD01E80DF91D108101177F
:100A900069F304E0801621F42FEF8C010E94E50138
:100AA0000696439408E1401670F48C010E94D5012B
:100AB0000615B1F78C010B5F1F4F0E94D50105157C
:100AC00079F78824D4CF89919991A991B9914990C6
:100AD000599069908990999008956A925A924A9291
:100AE000BA93AA939A938A932801822F932FACE604
:100AF000B3E0ACDF662402C01696639408E160168A
:100B0000F8F48D010E94D5010F3FB1F7282F8D0118
:100B10000E94E501119680E00BC0082F10E0F20161
:100B2000E00FF11F20818D010E94E5011196839550
:100B3000843098F3292F8D010E94E50100E001C067
:100B400001E089919991A991B99149905990699041
:100B500008955A924A92BA93AA939A938A93D80183
:100B6000C901442E042D4A94002369F08D010E948E
:100B7000D501502E11968C010E94D5010196501678
:100B800089F300E001C001E089919991A991B9919F
:100B9000499059900895CA92BA92AA929A928A92CA
:100BA0007A926A925A924A92BA93AA939A938A93A1
:100BB000702EC12E5901542E66248CE693E0450117
:100BC00044241FC0A395A615D0F444E0B0E0FD0175
:100BD000E154F94F608126E030E0269F202D310D51
:100BE00023593C4F8C010F5F1F4FB3DF002351F798
:100BF000062D10E0F801E154F94F40826394069607
:100C0000439408E1401668F48C010E94D5010C154C
:100C1000B1F7662021F44092BF066624EFCFA0E032
:100C2000D2CFAAEDB7E00BE4701601F5CC9200E04C
:100C3000FD01018302E0402E20E00BC0F50131915F
:100C40005F01042D10E0FD01E00FF11F308343949C
:100C50002395251598F3FD01028102600283452D3D
:100C60004E5F9D011BE40FEF0E9457020BE47016CC
:100C700029F4F40100810370013091F144240CC087
:100C8000452D9401172D642D70E0FB01E154F94FBF
:100C900000810E9457024394461490F30BE47016AF
:100CA000F9F404E1FD01018300E0028303E0038322
:100CB000048344240CC0042D10E0E2EFFFE7E00FB2
:100CC000F11F2491FD01E00FF11F258343940AE0F9
:100CD000401688F34FE09D0111E40FEF0E94570288
:100CE00089919991A991B991499059906990799078
:100CF00089909990A990B990C99008955A924A9272
:100D0000BA93AA939A938A93D901412E542ECB0178
:100D10000B3481F400E0002309F043C0FC01328170
:100D2000252D8D01EBE3F2E040815181FA01099517
:100D300001E0F1CF0337A9F5FC010081043088F50B
:100D4000042DB6DD0F3F69F1ABE3B2E0202F30E0B8
:100D500006E0029FA00DB11D40E020E0FC011081E3
:100D6000042DFD01248864E170E0629D602D710D09
:100D7000FB01E55CFD4F66857785FB01099531E058
:100D800020E010E0042DFD01648944E150E0469F1D
:100D9000402D510DFA01E55CFD4F42855385FA0166
:100DA000099589919991A991B9914990599008957E
:100DB0007A926A925A924A92BA93AA939A938A938F
:100DC000279700917707002309F0B1C102E30A9346
:100DD000BE016F5F7F4F4AED57E09E012E5F3F4F90
:100DE0008E010D5F1F4F0E948802002309F49FC1EE
:100DF00080E00DC0082F10E0ECEFFFE7E00FF11FDF
:100E00002491FE013396E00FF11F208383958430F7
:100E100088F32A8103E9402E07E0502E4981009192
:100E2000770710E0F201E00FF11F4083E7E7F7E0FA
:100E3000008103950083ABE3B2E00A810F3F09F024
:100E4000D6C02091DA0700917707F201E00FF11F79
:100E5000208381E0E7E7F7E00081039500830881C4
:100E60000330A8F011C090E0FC01E652F84F208159
:100E700000917707F201E00FF11F2083E7E7F7E029
:100E800000810395008383950881801760F306E352
:100E900012E00E94EF1B00E05BC006E010E00E9441
:100EA000D50100FBD6F1FD01348DF20121818E01C7
:100EB0000D5F1F4F12DE002381F504E1089FCD0175
:100EC000800D911DFC014085518500E040305007A8
:100ED00021F1FD01348DF201218105E617E0FA01CF
:100EE00009950023D1F4FC016681778100E0603030
:100EF000700799F0F301018D02950F7014E0019FC6
:100F0000FD01E00DF11D438DFD01348DF2012181C4
:100F10008E010D5F1F4FFB010995F301018D0295B5
:100F20000F7014E0019FFD01E00DF11D458D07E0FC
:100F300010E0049F002D110DF801E35EFD4F2581A7
:100F40003681042F0E94280100E0F301018F01E0A7
:100F50000023B1F5FD01048DABDC202F06E0029FDC
:100F60003D01600C711CF3018489018D0F7002300A
:100F700009F493CF013059F706E010E00E94D50143
:100F800000FB5EF2FD01348DF20121818E010D5FC7
:100F90001F4F5CDD04E1089FCD01800D911DFC0118
:100FA0004481558100E04030500709F4B6CFFD017F
:100FB000348DF20121818E010D5F1F4FFA01ACCFFC
:100FC00009810B3409F0B3C0EAEDF7E0028101FFBB
:100FD000AEC001E0FD0103A36AED77E0E3E9F7E0CD
:100FE000418110E09E012D5F3F4F0BE49FC00A81BD
:100FF0000E3F69F580E011C090E0FC01E652F84F29
:10100000208100917707F201E00FF11F2083E7E7CD
:10101000F7E000810395008383950881801760F3D2
:1010200080E00DC0A82FB0E08D010E5F1F4F0E9421
:10103000D501FE013396EA0FFB1F008383958430B0
:1010400088F38E010D5F1F4F0E94EF1B70C006E0FA
:10105000029F002D110D38010CE6600E03E0701E9A
:1010600080917707082F03950093770783010E94EB
:10107000D50111E0610E10E0711EF201E80FF11FC1
:10108000008391E080E016C00E94D50111E0610E5E
:1010900010E0711E282FFE013396E20FF11F00832E
:1010A0000081ECEFFFE7E20FF11F1491011709F047
:1010B00090E083958430830138F30E94D50120911C
:1010C000770730E0F201E20FF31F0083E7E7F7E074
:1010D0001081139510839923D9F48E010D5F1F4F52
:1010E0000E94EF1B80E00881801708F590E0FC016A
:1010F000E652F84F208100917707F201E00FF91FC7
:101100002083E7E7F7E00081039500838395EBCF29
:10111000FD0133A3309377076AED77E0E3E9F7E069
:101120004181102F9E012D5F3F4F0981E7DD2796FA
:1011300089919991A991B991499059906990799023
:1011400008952197188341E09E01102F0BE423DDC1
:1011500021960895AA928A927A926A925A924A9213
:10116000BA93AA939A938A93AA24AA94882413C020
:101170002F70213079F4F801EF5CFD4F00810333CB
:1011800048F02FEF3FEFFD01058D0E94280103E09D
:10119000F301018F839404E0801608F021C1482CEC
:1011A0005524F201E65DFD4F0081002309F068C07F
:1011B000A82CD201AA0FBB1F8D01095F1F4F0E94EF
:1011C000D501902F91FB36F718968D010E94D5011D
:1011D000802F833010F483E007C08F3F11F48AE042
:1011E00003C0833308F082E3EEE2F2E0E40DF51D84
:1011F00020812073ACE0B8E0A40DB51D203359F474
:1012000090FB46F21C91110F110F082D9ADF0C91E3
:1012100003950C93BFCF01E312E0040D151D2801C7
:10122000203159F490FB76F7F2010081081750F352
:101230001C91110F110F1360E8CF008101FFAACF9D
:1012400090FB0EF0A7CFF2010081081731F41C913A
:10125000110F110F1160082D74DFF201008110E0F1
:10126000E82FF0E033960E171F0709F093CF1C917B
:10127000110F110F1160082D64DFF20180838ACFF6
:101280000F3F09F087CFA39444244A9400E001C0A3
:1012900001E08BE392E0002329F4FC01028D0815A4
:1012A000B9F7442404E0409EDC01A00DB11DFD010E
:1012B000048DFEDA402F0A2D10E0EEE2F2E0EA0D96
:1012C000F51D20812073203109F06DC026E0249F98
:1012D0003C01600C711CF301218DF801EF5CFD4FA6
:1012E00000810E31F0F52223F30181F0518EFD01D2
:1012F000058D27E030E0209F202D310DF901E35EC0
:10130000FD4F258136810E94280144CF078900FDC9
:1013100041CFFD01048DCCDA202F30E006E0029FA2
:10132000FC01E00DF11D248904E1029F2C01400C19
:10133000511C40E020E0FD01138D048DF201648515
:101340007585FB01099500E0FC0103A331E020E075
:1013500010E0FD01048DF20142855385FA010995E3
:1013600019CF233089F4A0E0B0E005C02FEF8D0144
:101370000E94E5011196A03004E0B007B8F3FC012B
:1013800000A111A1F801EBCF0F3108F403CF429473
:1013900010EF4122142D0C3320F41260F301118F51
:1013A000F9CE1160FBCF208121FFF4CE26E0249FEF
:1013B0003C01600C711CF301218D222309F0D8CE71
:1013C000F801EF5CFD4F00810C3329F422E230E09C
:1013D000FD01058D98CF0E3109F0DCCE24ECF7CF5E
:1013E00089919991A991B991499059906990799071
:1013F0008990A99008954A92BA93AA939A938A934E
:10140000D801C9010A01372F3C7F70FB11E020E0B1
:1014100036F101C02395243070F4622F70E0AC01E6
:10142000460F571F0E942419F001E60FF71F408155
:10143000041781F310E0112379F044240C91031771
:1014400011F002E0402E3C930596AC010E94241955
:101450002FDA202F023028F100E031C0239524300C
:1014600070F4622F70E0AC01460F571F0E942419E0
:10147000F001E60FF71F4081041781F310E01123FC
:1014800059F34424FD010081031711F002E0402EBE
:101490003C930596AC010E9424190ADA202F0230F1
:1014A000D8F606E010E0029F002D110DF801E55C72
:1014B000FD4F078900FDD0CF01E0402A042D89911E
:1014C0009991A991B99149900895BA93AA939A9341
:1014D0008A93AFE1B7E0FD019181092FE9D90F3F70
:1014E00011F400E039C0202F06E010E0029F002D2B
:1014F000110DF801E55CFD4F8489FD011281009119
:101500007107063038F04091710743509D012D5FFF
:101510003F4F03C040E020E030E0092F64E170E07D
:10152000689F602D710DFB01E55CFD4F6685778539
:10153000FB01099531E020E010E0FD01018144E16B
:1015400050E0489F402D510DFA01E55CFD4F42856A
:101550005385FA01099501E089919991A991B99171
:10156000089502E010E00E94D5010F3F41F503E02D
:1015700010E00E94D5010F3F11F504E010E00E9439
:10158000D5010F3FE1F405E010E00E94D5010F3FC7
:10159000B1F401E010E00E94D5010F3F29F424E1ED
:1015A00001E010E00E94E50106E010E00E94D50194
:1015B0000F3F29F42EEF06E010E00E94E5010895A8
:1015C000DA92CA92BA92AA929A928A927A926A927B
:1015D0005A924A92BA93AA939A938A93A497CC2444
:1015E000DD2413E003E00E946B1D0CEF1FE70E9457
:1015F000D91D0E94A81D0E94C002B3DF0E94A9034A
:101600000E944B010E9449190E94F7010FEF11EE51
:1016100024E0015010402040E1F700C000008BE3BF
:1016200092E001E0FC0104A378941CC0A62DB0E078
:101630008D010E5F1F4F0E94D501FE01EA0FFB1FB7
:101640000083639404E0601688F38E010E94EF1B10
:101650000E94A803C3940C2D4AE00E94081EC42EC9
:101660000E949D180E94B903002339F073DD05C064
:10167000DD24789400E000937107AFE1B7E0DD204E
:1016800039F10E94531C009171070023B1F30C91B2
:101690000A5571F30B5119F00550B1F0EBCF00E092
:1016A00000937107789405E00093240202C00E9421
:1016B000531C009124020023D1F7F894FC01068DFD
:1016C000178DF8010995D6CFDD24D394F894D2CFA5
:1016D0006FDB0E94531C03E9402E07E0502E00915F
:1016E0007107002309F4D5C2FD0111810281202F69
:1016F000312F61804C914B5C09F491C2465509F43D
:1017000044C0405209F4F6C1425009F457C0425057
:1017100009F4A1C0465009F4C2C1465009F45FC1A2
:101720004A9509F44EC04A9509F4A5C2445009F4FB
:1017300062C0435041F1495009F4A5C1455009F434
:1017400073C0445009F410C1425009F472C04350B0
:1017500009F41FC1425009F478C2425049F04A9539
:1017600009F45CC0425009F4EBC0425041F08CC215
:10177000F894FC01068D178DF801099587C2DD24C8
:10178000D394F89483C2789481C200917107023097
:1017900008F47CC20C91101709F078C2789405E027
:1017A0000093240202C00E94531C009124020023D3
:1017B000D1F7F894FC0100A111A1DECF0E94BF0275
:1017C00065C2590166240CC085010E94D50111E053
:1017D000A10E10E0B11EF201E60DF11F008363942B
:1017E000FD010381601680F3009377070BE817E093
:1017F0000E94EF1B4BC259016624FD010381601654
:1018000008F044C27724E60DF71D248185010E946B
:10181000E50101E0A00EB71C6394EFCF03E0F201F5
:101820000083018302E0E0CF04E1F201008300E0E5
:10183000F8CF66240CC0062D10E0E2EFFFE7E00FC2
:10184000F11F2491F201E00FF11F208363940AE05D
:10185000601688F3C9CF0481002309F417C28824D5
:10186000992409C0FE013496E80DF91D008301E0BA
:10187000800E00E0901E00E2801600E0900690F3DB
:10188000882499245901772428C085010E94D50114
:10189000102F01E0A00E00E0B01E1F3FA1F001E0FC
:1018A000482D47700E94031E202FFE0134968401AC
:1018B000169507951695079516950795E00FF11F54
:1018C0000081022B00836394FD0103816016E8F21E
:1018D00001E0800E00E0901E7394FD0104817016FB
:1018E00010F46624F1CF05E6F2010083FD010181C9
:1018F000F2010183FD010281F2010283FD010381F6
:10190000F201038366240BC0062DFE013496E00F1E
:10191000F71D2081F201E00FF71D248363948401F9
:101920000150104016950795169507951695079541
:101930007724F80131966E167F0630F30B5F54CF93
:1019400000917607002309F0A1C1BFDD09E6F2018D
:101950000083FD010181F201018392012E5F3F4F5F
:101960000E94060304E040CF0E9458040F3F09F490
:101970008DC126E0209F8C01000D111DFD012381EA
:101980002223F801078919F00160078B7FC10E7FC0
:10199000FCCF00917607002309F078C106E010E043
:1019A0000E94D50100FB0EF471C1FD01328121813D
:1019B00005E617E092D8002309F068C101E5F201BD
:1019C0000083FD010181F2010183FD010281F20129
:1019D000028303E00093770705E617E009CF66244A
:1019E000662009F053C1FC01048D0E945804202F89
:1019F00006E0029F3C01600C711CF3018488018D9C
:101A00000F700230E9F506E010E00E94D50100FBFE
:101A1000EEF004E1089DFC01E00DF11D6681778187
:101A200000E06030700791F0F301018D02950F70B6
:101A300014E0019FFC01E00DF11D438DFC01348D8C
:101A4000FD01218105E617E0FB010995F301018DF8
:101A500002950F7014E0019FFC01E00DF11D458D12
:101A600007E010E0049F002D110DF801E35EFD4F2B
:101A700025813681042F0E94280100E0F301018FA7
:101A800066246394ADCF20917607222309F0FEC02F
:101A9000302F212F05E617E00E942605F7C00091A0
:101AA0007607002319F0038101FD05C00091760738
:101AB000002309F0EBC000917607FC0103A3662424
:101AC0000CC0FD013381218105E617E0FC01408156
:101AD0005181FA01099566246394662091F300917F
:101AE0007607002309F0D2C009E6F2010083FD0168
:101AF000028131CF00917607002309F490C000E005
:101B000049C0013009F045C006E010E00E94D5014F
:101B100000FB2EF103E6F2010083FD010181F201D9
:101B20000183FC01048DF201028303E00093770737
:101B300005E617E00E94EF1B04E10A9DFC01E00DA1
:101B4000F11D4481558100E04030500741F0FC0117
:101B5000348DFD01218105E617E0FA010995F301B5
:101B6000018D02950F7014E0019FFC01E00DF11D45
:101B7000458D07E010E0049F002D110DF801E35E94
:101B8000FD4F25813681042F0E94280100E0F301DA
:101B9000018F01E0002309F042C0FC01048D0E9486
:101BA0005804202F06E0029F3C01600C711CF301D9
:101BB000A48888248394018D0F70023009F0A1CF8E
:101BC00006E010E00E94D50100FB1EF304E10A9D2F
:101BD000FC01E00DF11D4085518500E040305007CB
:101BE00049F0FC01348DFD01218105E617E0FA0181
:101BF0000995802E882069F601E7F2010083FD0136
:101C00000181F2010183FC01048DF201028303E0F2
:101C10000093770705E617E00E94EF1BBACF00910B
:101C20007607002399F56624662009F058CFFD0158
:101C3000338121818D010C5F1F4FFC014081518157
:101C4000FA01099566246394EFCF0091760700238B
:101C5000E9F4062D0E9458040F3FC1F0062D0E94A2
:101C60005804202F06E0029FFC01E00DF11D0789BA
:101C700000FD0CC06ACE09E6F20100836182920188
:101C80002E5F3F4F062D6CCE0E94900300E0009324
:101C90007107DD2009F0E6CC00912402002309F051
:101CA000E1CCF89401E0009324027894CC2009F070
:101CB000CFCCFC010589448924E1249FE00DF11D6E
:101CC00020893189F9010995FC0102A1002309F459
:101CD000BFCC02A10A9502A302A1002309F0B8CC4F
:101CE00009E6F2010083FC010689F201018312E09A
:101CF000410E10E0511E92010E94060304E0009381
:101D0000770766249FCCBA92AA929A928A927A9284
:101D10006A924A92BA93AA939A938A935801922EFE
:101D2000732E882407C001E0FD0106AB00E000939C
:101D30005E02839400E1801608F0F9C0282D30E09F
:101D40008CE090E006E3029F800D911DAC014C5F9A
:101D50005F4F0E942419091561F7AC010E942419F4
:101D6000F5011081011729F7EEE0F8E0E20FF31F0B
:101D7000172D1C7F70FABEF0AC014A5F5F4F0E94C6
:101D80002419202F2F70A9F22081211711F400713E
:101D9000C9F400810117B1F40596AC010E94241921
:101DA0000E94FD04C6CF76F4AC01425E5F4F0E94F4
:101DB0002419202F2F7009F4BCCF2081211749F757
:101DC000007139F3772D692DA5019C018F010E94C7
:101DD000FB09602E002309F4ACCF472C40FA4424C1
:101DE00040F808E1049D9C01200D311D245F3F4F08
:101DF000A9010E942719012B99F59C01200D311D85
:101E0000225F3F4FA9010E942719012B49F59C0130
:101E1000200D311D205F3F4FA9010E942719012B82
:101E2000F9F49C01200D311D2E5E3F4FA9010E9447
:101E30002719012BA9F49C01200D311D2C5E3F4F69
:101E4000A9010E942719012B59F49C01200D311D75
:101E50002A5E3F4FA9010E942719012B09F469CF7F
:101E6000AC014B5F5F4F0E9424190E9458040F3F42
:101E700009F45FCF202FA7EEB6E007E3029FA00D85
:101E8000B11DFD0101A900FF02C060EF01C06FE0BC
:101E900001A900FF03C004E0202E01C0222408E1B4
:101EA000049DAC01400D511D01A9069510E0400FA5
:101EB000511F455E5F4F0E9424190623422D0E9448
:101EC0001C1E063008F035CF06E010E0029F002D02
:101ED000110DF801E15BFD4F05810F7009F029CF6D
:101EE000FD0106A9002339F000915E02002319F4D8
:101EF000062D0E7F69F0172D082D24D26694362DFD
:101F0000272D10E00596AC010E942419FFD406C0CD
:101F10000596AC010E9424190E94FD0400915E0206
:101F2000002309F000CF00E0FD0106AB02CF89914C
:101F30009991A991B99149906990799089909990D6
:101F4000A990B9900895202FEBE3F2E004E1019FFE
:101F5000E00DF11D09EE1FE00483158306E810E192
:101F6000068317830FE310E10087118706E814E169
:101F70000287138707EA13E10487158700E314E15A
:101F80000687178706E618E1008B118B03E81EE031
:101F9000008311830AEE18E1028B138B40E005C029
:101FA00000E0E40FF01F00834395E7EEF6E007E35F
:101FB000029FE00DF11D473398F30FEF07A300A731
:101FC00001A702A7018F028F038F048F05E001ABE9
:101FD00008954A92AA939A938A93B801222E332E97
:101FE0004424A0E00BC030E0AC01420F531F0E941C
:101FF000351923952430B8F34394A395A031A8F55F
:102000008CE090E006E30A9F800D911DAC014C5FCF
:102010005F4F0E942419021581F7AC014B5F5F4F9F
:102020000E942419031549F720E001C023952430AC
:1020300068F4022E1124AC01400D511D0E94241998
:10204000FB01E00DF11D1081011781F32430A9F689
:102050000FEFAC014C5F5F4F0E943519AC014B5F35
:102060005F4F0E94351920E0C5CF442011F000E0F9
:1020700001C001E089919991A99149900895AA938D
:102080009A93382EB801222EA0E013C02395243055
:1020900068F4022E1124AC01400D511D0E94241938
:1020A000FB01E00DF11D1081011781F32430B9F01F
:1020B000A395A03130F58CE090E006E30A9F800DF7
:1020C000911DAC014C5F5F4F0E9424190F3F39F006
:1020D000AC014B5F5F4F0E9424190F3F11F400E0E9
:1020E00011C0AC014C5F5F4F0E942419021501F72B
:1020F000AC014B5F5F4F0E9424190317C9F620E023
:10210000C6CF01E0832D9991A9910895BA93AA931E
:102110009A938A93C801A22FB32F5BDF20E001C0FE
:102120002395203108F008C16CE070E006E3029FBF
:10213000600D711DAB014C5F5F4F0E9424190F3F72
:1021400039F0AB014B5F5F4F0E9424190F3F41F7FD
:1021500020E00CC0022E1124FC01E00DF11D0081D5
:10216000AB01400D511D0E9435192395243090F389
:10217000AB014C5F5F4F0A2F0E943519AB014B5FDB
:102180005F4F0B2F0E94351901E0AB014A5F5F4F93
:102190000E94351906E1AB01425E5F4F0E9435197E
:1021A00000E0AB01415E5F4F0E943519AB01495F12
:1021B0005F4F0E94351904E1AB01405E5F4F0E9402
:1021C0003519AB01485F5F4F0E94351908ECAB0130
:1021D0004F5D5F4F0E943519AB01475F5F4F0E9413
:1021E00035190AE0AB014E5D5F4F0E943519AB0116
:1021F000465F5F4F0E943519AB014D5D5F4F0E94F6
:102200003519AB01455F5F4F0E94351900E010E0C2
:102210009B012C5D3F4FA9010E9439199B01245F4E
:102220003F4FA9010E94391905E09B012A5D3F4FEC
:10223000A9010E9439199B01225F3F4FA9010E9409
:1022400039190FEF1FEF9B01285D3F4FA9010E9435
:1022500039199B01205F3F4FA9010E94391900E005
:1022600010E09B01265D3F4FA9010E9439199B0197
:102270002E5E3F4FA9010E94391905E09B01245DA4
:102280003F4FA9010E9439199B012C5E3F4FA901C4
:102290000E9439190FEF1FEF9B01225D3F4FA901EB
:1022A0000E9439199B012A5E3F4FA9010E943919EA
:1022B00000E0AB01405D5F4F0E943519AB01485E05
:1022C0005F4F0E94351908ECAB014F5C5F4F0E94D5
:1022D0003519AB01475E5F4F0E9435190AE0AB012B
:1022E0004E5C5F4F0E943519AB01465E5F4F0E9406
:1022F000351901E2AB014D5C5F4F0E943519AB010E
:10230000455E5F4F0E94351903E4AB014C5C5F4FA3
:102310000E943519AB01445E5F4F0E94351905E0FC
:10232000AB014B5C5F4F0E943519635E7F4FAB0181
:102330000E94351900E001C001E089919991A991AD
:10234000B99108957A926A925A924A92BA93AA934C
:102350009A938A93512E452C40FA442440F88CE0FD
:1023600090E0202F06E3029F800D911DAC014B5F92
:102370005F4F0E9424190E945804602F623008F0B9
:10238000DDC106E010E0069F002D110DF801E15BB4
:10239000FD4F61814420AC0111F0425E01C04A5FF3
:1023A0005F4F0E94241927E330E0269F202D310D36
:1023B000F901E951F94F06A3A7EEB6E010E0002DB0
:1023C000110DA00FB11FFD0106A10F7028E1249D82
:1023D000800D911D043031F0053021F0073011F0EF
:1023E000083061F4442406E0401608F059C000E0CB
:1023F000FD01E40DF01F00A34394F5CF023011F46A
:1024000052FA26F0033071F452FA66F0442406E0E2
:10241000401608F045C000E0FD01E40DF01F00A3E8
:102420004394F5CF023011F452FA26F4033071F4DC
:1024300052FA66F4442406E0401690F503E0552471
:10244000FD01E40DF51D00A34394F5CFAC01455EFD
:102450005F4F0E942419102F177010A30077059565
:1024600005950595059501A3AC01445E5F4F0E945B
:102470002419102F177012A300770595059505955F
:10248000059503A3AC01435E5F4F0E942419102FF2
:10249000177014A30077059505950595059505A377
:1024A0009C01245F3F4FA9010E9427190F3F2FEF86
:1024B000120739F400E0FD010583068307830087D6
:1024C00007C00E948D04FD01058316832783308792
:1024D0009C012E5E3F4FA9010E9427190F3F2FEF4D
:1024E000120731F400E0018B028B038B048B07C0D1
:1024F0000E948D04FD01018B128B238B348B9C0178
:10250000225F3F4FA9010E9427190F3F2FEF1207AB
:1025100039F405E010E0018712871387148707C09C
:102520000E948D04FD0101871287238734879C0157
:102530002C5E3F4FA9010E9427190F3F2FEF120772
:1025400039F405E010E0058B168B178B108F07C050
:102550000E948D04FD01058B168B278B308F9C010B
:10256000205F3F4FA9010E9427190E948D04FD01A1
:1025700046A147FF18C045855685678570890417B1
:1025800015072607370778F441A94230B1F452A164
:10259000533098F447A150A561A572A54017510783
:1025A0006207730728F4058716872787308B18C0C2
:1025B000458756876787708B13C0442319F450A151
:1025C000533028F0413079F741A1433060F7458519
:1025D000568567857089401751076207730718F39E
:1025E0009C012A5E3F4FA9010E9427190E948D0479
:1025F000FD0146A146FF1AC0418D528D638D748D39
:10260000041715072607370788F441A94530C1F498
:1026100055A15330A8F0563098F447A150A561A5B4
:1026200072A5401751076207730728F4018F128FB4
:10263000238F348F1CC0418F528F638F748F17C0CC
:10264000433029F453A1533010F0563038F0443061
:1026500069F744A1433050F3463040F7418D528D25
:10266000638D748D4017510762077307F8F2442495
:1026700012C0042D10E03D01600E711EF30120A177
:10268000273040F00F5F1F4F46E050E00E943A1E97
:10269000F30140A3439406E0401658F3AC01475FB2
:1026A0005F4F0E942419FD010283093C10F008ECE1
:1026B0000283AC01495F5F4F0E9424190C93093CCF
:1026C00010F000E00C93AC01485F5F4F0E942419AA
:1026D0000183093C10F004E10183AC01465E5F4FC9
:1026E0000E942419078F093C10F00AE0078FAC0103
:1026F000485E5F4F0E942419058F093C10F000E0EE
:10270000058FAC01475E5F4F0E942419068F093C7C
:1027100010F008EC068FAC01455F5F4F0E94241952
:102720000483093C10F00AE004830A96AC010E947D
:1027300024190383093C10F00AE0038389919991DD
:10274000A991B991499059906990799008957A9298
:102750006A925A924A92AA938A93812F0E945804AD
:10276000A02FA23008F075C006E010E00A9F002DEF
:10277000110DF801E15BFD4FA1818F3F07EE16E0DF
:1027800027E3D1F02A9F2801400C511CF2018283DB
:102790000281093C10F008EC028301E010E001879F
:1027A00012871387148780E0863040F5F201E80F26
:1027B000F11F00A38395F8CF2A9F2801400C511CDC
:1027C00008ECF201028300E0008380E00EC0682E76
:1027D000772483010F5F1F4F46E050E00E943A1EAE
:1027E000F201E60DF71D40A38395863080F305E0E6
:1027F00010E0F201018712871387148707EE16E0B5
:102800002A9F2801400C511C01E0F20106A30AE0B6
:102810000383048300E005830683078300870FEFAB
:10282000058706870787008B00E010E0018B028B8D
:10283000038B048B05E0058B168B178B108F0FEF26
:10284000018F028F038F048F158F08EC068F04E130
:1028500001838991A991499059906990799008953F
:10286000BA93AA938A93812F0E945804023008F0E9
:1028700049C0202F30E006E010E0029F002D110D2E
:10288000F801E15BFD4F0181E7EEF6E0202F07E361
:10289000029FE00DF11D82830281093C10F008ECDB
:1028A000028300E004C015E090961C930395063067
:1028B00040F4DF01A00FB31F12811123A1F312E036
:1028C000F3CF01E006A33383348335833683378324
:1028D000308731873287338734870FEF0587068744
:1028E0000787008B318B328B338B348B358B368B58
:1028F000378B308F018F028F038F048F358F08EC59
:10290000068F31838991A991B9910895FA92EA923B
:10291000DA92CA92BA92AA929A928A927A926A9217
:102920005A924A92BA93AA939A938A93502EE12E7E
:10293000422EF32EDD240E945804C02E02E0C01661
:1029400008F0B3C3EFE4F2E006E00C9DE00DF11DEA
:102950000281043008F0A9C3C180A7EEB6E007E306
:102960000C9DA00DB11DFD0127A530A9022F132F2D
:10297000C80190E03C0110E092AB93AB94AB95ABF7
:1029800001E0E01641F401A9039546E00E94081E0B
:10299000FD0101AA08C0F0FA36F401A9E00FF91F01
:1029A00000A1FD0101AB01E0E01649F006A10F70A6
:1029B000013029F0023019F0033009F012C2EE2084
:1029C000A9F406A10F70023051F442FA16F491AB4B
:1029D0000DC029F442FA1EF003E001AB07C003303A
:1029E00029F442FACEF311F442FA8EF701A900500D
:1029F00079F00A95D1F00A9509F402C10A9509F413
:102A000009C10A9509F475C10A9509F4E1C15AC2D0
:102A1000058116812781308507A310A721A732A73A
:102A200006A105FD4FC26C904DC20185128523851C
:102A3000348507A310A721A732A701851285238516
:102A40003485012B022B032B09F43CC2018110E0D9
:102A5000081711070CF44FC0228130E0621671068E
:102A60001CF42619304004C08301021B1040980159
:102A7000038110E0021713071CF082813C0190C013
:102A8000228130E0621671061CF42619304004C021
:102A90008301021B10409801038110E00217130705
:102AA0000CF07EC0218130E0621671061CF42619FC
:102AB000304004C08301021B10409801038110E0E4
:102AC0000217130724F00381600E791E68C021816C
:102AD00030E0621671061CF42619304004C08301F0
:102AE000021B10409801038110E0021713070CF03D
:102AF00057C0618054C002810817110744F1018159
:102B00000817110724F5228130E0621671061CF4C3
:102B10002619304004C08301021B10409801038134
:102B200010E0021713070CF0A8CF228130E06216E4
:102B300071061CF42619304004C08301021B1040AA
:102B40009801038110E00217130754F5BCCF2281CE
:102B500030E02817310724F5621671061CF4261997
:102B6000304004C08301021B10409801038110E033
:102B7000021713070CF081CF228130E06216710634
:102B80001CF42619304004C08301021B1040980138
:102B9000038110E0021713071CF4601A710A828186
:102BA0006816790614F401E001C000E003A7861559
:102BB000970524F49301281B304003C08619970918
:102BC0009C0100E087A090A4A1A4B2A445E050E03D
:102BD00060E070E04B9D700D4A9D600D711D499D38
:102BE000500D611D701F489D402D510D601F701FBD
:102BF0000E94561EFD0102AB13AB24AB35AB62C184
:102C0000058516852785308907A310A721A732A738
:102C1000628058C1018912892389348907A310A7CA
:102C200021A732A70189128923893489012B022B1C
:102C3000032B09F447C10C91601679063CF52C91E1
:102C400030E0621679061CF42619304004C0830176
:102C5000021B10409801048110E0021713070CF0CA
:102C6000E2CE2C9130E0621679061CF42619304031
:102C700004C08301021B10409801048110E0021778
:102C800013070CF01FC1600E791E1CC1218130E0BA
:102C90006016790624F0281739070CF013C128179D
:102CA00039070CF00FC1621679061CF42619304062
:102CB00004C08301021B10409801048110E0021738
:102CC000130714F06180FEC0218130E0621679069E
:102CD0001CF42619304004C08301021B10409801E7
:102CE000048110E0021713070CF0ECC0601A790A97
:102CF000E9C0058916892789308D07A310A721A768
:102D000032A7058916892789308D012B022B032BC9
:102D100009F4D8C00C9110E06016710644F52C91AE
:102D200030E0621671061CF42619304004C083019D
:102D3000021B10409801038110E00217130714F0E2
:102D40008C919CCE2C9130E0621671061CF42619F1
:102D5000304004C08301021B10409801038110E041
:102D600002171307A4F5600E711E8C9119CF2181F3
:102D700030E0601671061CF02817310744F528175B
:102D800031072CF5621671061CF42619304004C078
:102D90008301021B10409801038110E00217130702
:102DA00014F081816BCE218130E0621671061CF433
:102DB0002619304004C08301021B10409801038192
:102DC00010E0021713071CF4601A710A8181E8CE23
:102DD000018D128D238D348D07A310A721A732A753
:102DE00022CE043041F0073011F442FA26F00830C8
:102DF00069F442FA5EF0078D600E791E068D0615A5
:102E000017050CF4380101E003A741C0053041F07B
:102E1000073011F442FA26F4083091F442FA86F4AD
:102E2000078D0217190724F4078D601A790A01C06B
:102E3000658C058D601679060CF4380193A727C0C0
:102E4000063029F5042D0E7F14A5011741F013A5B6
:102E5000112311F093A702C011E013A704A703A543
:102E60000023078D10E031F0600E791E068D0615E7
:102E700017050BC00217190724F4078D601A790A89
:102E800001C0658C058D601679060CF438010C9133
:102E9000061517056CF0018D128D238D348D07A357
:102EA00010A721A732A705E001AB662477240AC04A
:102EB000058516852785308907A310A721A732A786
:102EC00002E001AB07A110A521A532A5402F412B9F
:102ED000422B432B11F4EE24E394012B022B032B02
:102EE00029F4D39406E0D01608F437CD052D0E94BE
:102EF0005804802FFD0101A9005081F00A9509F4C2
:102F000046C00A9509F469C00A9509F486C00A9575
:102F100009F486C00A9509F486C0B5C00CEE19E024
:102F200026E030E0289F202D310DF901E15BFD4FB7
:102F3000448127E030E0249F202D310DF901E35E2C
:102F4000FD4F05831683052D0E945804202F06E0AF
:102F500010E0029F002D110DF801E15BFD4F05818E
:102F6000002309F090C0EFE4F2E006E0089FE00DD6
:102F7000F11D048127E030E0209F202D310DF90163
:102F8000E35EFD4F258136810E9428017CC00CE85C
:102F900013E926E030E0289F202D310DF901E15B97
:102FA000FD4F448127E030E0249F202D310DF901B1
:102FB000E35EFD4F05831683052D0E945804202FE4
:102FC00006E010E0029F002D110DF801E15BFD4FBE
:102FD0000581002309F057C0C6CFEFE4F2E006E018
:102FE000089FE00DF11D0DE112E0448127E0249FD0
:102FF000000D111DFD0147A150A561A572A54F3F10
:103000002FEF52076207720731F428EF3FEFF80104
:1030100025833683D1CF2CEEF9CF0CE21FE0B9CF58
:103020000CE814EEB6CFEFE4F2E006E0089FE00D06
:10303000F11D0DE112E0448127E0249F000D111DD8
:10304000FD0147A150A561A572A54F3F2FEF520783
:103050006207720719F428E030E0D9CF28E130E0A8
:10306000F80125833683052D0E945804202F06E0A1
:1030700010E0029F002D110DF801E15BFD4F05816D
:10308000002309F470CF930100E0FD0105A706A716
:1030900027A730AB162D052D0E94EE0200915E028F
:1030A000002319F4052D0E94FD0489919991A9919D
:1030B000B991499059906990799089909990A99087
:1030C000B990C990D990E990F9900895602FE7EEF2
:1030D000F6E007E3069FE00DF11D07A110A521A56D
:1030E00032A50F3F4FEF14072407340729F1012BB6
:1030F000022B032B09F107A110A521A532A5015030
:1031000010402040304007A310A721A732A707A1F5
:1031100010A521A532A5012B022B032B69F431E068
:1031200020E011E046E050E0469F402D510DFA01AD
:10313000E15BFD4F0281EADB089500911E07002349
:10314000F9F5E7EEF6E002A913A924A935A9402F65
:10315000412B422B432BA1F143A5413045A556A558
:1031600067A570A979F4400F511F621F731F45A70F
:1031700056A767A770AB27A5022F102F193CE0F0C8
:1031800018EC1AC0041715072607370768F445A579
:1031900056A567A570A9401B510B620B730B45A781
:1031A00056A767A770AB05C000E005A706A707A74D
:1031B00000AB27A5022F102F009151020E94EE02B2
:1031C00000911E07002311F000E001C001E0009310
:1031D0001E0708954BE050E0202F06E010E0029F0C
:1031E000002D110DF801E15BFD4F0181400F551FCE
:1031F0000E942419017008950F921F922F923F92FE
:103200000F931F932F933F934F935F936F937F93EE
:10321000EF93FF930E94511CFF91EF917F916F916B
:103220005F914F913F912F911F910F913F902F9060
:103230001F900F90E199E0CF08954F5F5F4FFADF45
:103240004EBB5FBBE09A0895FADF0DB30895F7DF38
:103250000DB3F3DF1DB308954F5F5F4F4EBB5FBBF0
:10326000F894E29AE19A0FBE08950FB6E3DF0DBB22
:10327000F5CF0FB6DFDF0DBBF1DFDCDF1DBBECCF21
:1032800000E000BD09E109B900E10AB906EA00BDA4
:103290000895F6DFE5E6F7E000E0058F028B04878E
:1032A000048B0FEF068B058B07830683058304834E
:1032B000899A8B9A939801E0028F02E003BF09B7C5
:1032C000016009BF0895BA93AA939A938A93A5E6D9
:1032D000B7E000E0FD0104875F9906C000E0899136
:1032E0009991A991B99108951BB10CB11471B1F7DD
:1032F00012A10C3F29F4112319F401E002A3EECF2F
:1033000024A1239524A30D3F99F400E004A3068F84
:10331000078F03E000A301E003A300E0038302831F
:1033200001830C930E9422010DEF0E94FD00D6CF75
:103330000E3F19F400E003A3D1CF112319F0006868
:1033400010E012A313A1112349F2278D50E024307D
:10335000C8F40F3F19F010A11D7F10A3ECEFFFE799
:10336000E20FF51F1491011721F0FD0110A11E7F3E
:1033700010A3FD01E20FF51F0587FD01178D1395C1
:10338000178FD3CFA9F410A111FF03C011E0118B47
:1033900001C0518B038B10A1112331F413891770D5
:1033A000133011F053A302C011E013A315E0E8CFCE
:1033B000138913FF0BC013891770133039F02930AC
:1033C00028F4E20FF51F35970083D7CF2F3F21F068
:1033D0001FEF178F01A3A9CF268D30E0F901E15E21
:1033E000F84F00830E94FD00FD01068D10E081A1D1
:1033F00090E0019708171907B1F400E000A30E94BC
:10340000FD0000E00E94FD00E9E6F2E0008111818C
:10341000012B21F000E0FD01048761CFFD0101A136
:10342000048701E05CCF0634A9F3068D0395068F6F
:1034300055CF08E00AB9939A5E9A08EF0CB95E9BE3
:10344000FECF00E10AB99398089504C00F5F1F4FA3
:103450002F5F3F4F542F4A95552379F0F801508143
:10346000F9016081561710F40FEF08955081F801AB
:103470006081561758F701E0089500E0089506C0EE
:10348000F90151919F01F80151938F01542F4A95F1
:103490005523B1F70895BA93AA938A93A5E6B7E0A6
:1034A000FD010485002311F000E084C00CDF00233F
:1034B000D9F3FD012389022F0770033031F500E0B5
:1034C00010E01487269526952695239504C0361777
:1034D00059F7285003952223B1F0402FFD01E40F46
:1034E000F11F6585ECEFFFE7E40FF11F3491283001
:1034F00070F70FEF48E0421B0E94161E102F132397
:103500000623101789F603E055C0022F01711189B7
:10351000112329F0003141F200E00487C5CF0031CA
:10352000E1F526952370822F038907FF02C00FEF74
:10353000058B0589021741F544E09D012A5D3F4F47
:103540008D0183DF002301F500E0FD010487FD010B
:10355000058D063059F544E09D018D01065D1F4F34
:1035600074DF0023E9F4FD010389102F12951F7009
:1035700016951370218D26952370121789F40779FB
:10358000013191F402E016C0FD01858B44E09D01FC
:103590008D010A5D1F4F73DFDACF27792131A1F248
:1035A00000E0FD01048706C001E004C0138911702A
:1035B00001E001278991A991B99108955D9902C00F
:1035C00000E008950CB901E008958A93802F8D3FA3
:1035D00021F08E3F11F08C3F71F40091D907002348
:1035E00049F40CEFEBDF002311F400E00DC001E023
:1035F0000093D9078F77082FE1DF0023B1F35E9A9C
:1036000000E00093D90701E089910895BA93AA9345
:103610009A938A93A5E6B7E0FD01008D0023B1F4EB
:1036200008E00AB9939A0E942201FD01008D0395DA
:10363000008F00E005A3018D077901318D0111F4A0
:103640000A5D01C0065D1F4F02871387008D0130A0
:1036500061F40DEFB3DF002311F400E0BBC002E022
:10366000FD01008F0DEF0E94FD00FD01008D023075
:10367000C9F412C08285938510E0800F911FFC0170
:103680000081A3DF002349F3FC0100810E94FD00BB
:10369000FD0105A1039505A305A1043058F3008D94
:1036A0000395008F008D033059F4818D082F8DDF35
:1036B000002399F204E0FD01008F082F0E94FD0015
:1036C000FD01008D0430E9F4018D03FD14C005E017
:1036D00017C0E8EFFFE710E0E00FF11F8491082F1B
:1036E00074DF002309F4B9CF082F0E94FD00FD010B
:1036F00005A1039505A305A1083058F3008D039596
:10370000008F008D053091F48289018D01710131A6
:1037100009F480E08E5F082F58DF002309F49DCF65
:1037200006E0FD01008F082F0E94FD00FD01008DC5
:10373000063029F58289018D0171013199F480E00B
:1037400011C010E0F801ED56F84F9081092F3DDFD0
:10375000002309F482CF092F0E94FD00FD01078993
:103760000395078B0789081760F300E00E94FD00AE
:1037700000E00E94FD00FD01008D0395008F008D8B
:10378000073081F4E9E6F2E01181012F1EDF00230A
:1037900011F001E001C000E0002309F45ECF08E071
:1037A000FD01008F008D083051F4E9E6F2E0008160
:1037B0000CDF002309F451CF09E0FD01008F008DDB
:1037C000093039F45E9B49CF00E10AB993980AE0C9
:1037D000008F01E089919991A991B991089544E0F0
:1037E00098010FE817E04BDE0895E5E6F7E000E00A
:1037F000078B008F05890295007F000F0961018FFB
:103800000895BA93AA938A9380E0A5E6B7E0FD01F4
:10381000878B808F44E09D012C5F3F4F8D01065DBB
:103820001F4F13DE002309F080E844E024E632E075
:103830008D01065D1F4F09DE002391F044E09D01DC
:10384000265D3F4F8D010C5F1F4F19DEFD0104897E
:103850001689101719F403950370048B0489068BDD
:10386000FD01038D033091F4048925892295207F81
:10387000220F102F110F122B182B1861118F0330EC
:1038800010F000E002C004890395048B8991A9918E
:10389000B991089502B710E00F70000F08531F4F41
:1038A000089501D00895BA93AA9300915F0200236E
:1038B00011F40FEFBFC0EFDD033011F4BADDF9CF23
:1038C000A5E6B7E052961C9152975D962C915D97B4
:1038D000205091F02A9519F12A9509F44FC02A95A4
:1038E00009F467C02A9509F473C02A9509F442C007
:1038F0002A9509F478C09CC0013029F401E05D9656
:103900000C935D9795C0112309F492C002E05D9677
:103910000C935D9703E05B960C935B9789C05A9676
:103920000C915A97002309F083C01123C1F044E0A1
:103930009D012A5D3F4F8D01065D1F4F86DD0023EF
:1039400071F403E05B960C935B975BDFF894A2DF66
:1039500018960D931C931997789403E002C045DFE5
:1039600005E05D960C935D9751DE002309F460C07D
:1039700000E0C5CF4BDE0023D9F75AC0013009F46F
:10398000BDCF5A960C915A97002309F051C039DFE8
:1039900044E024E632E08D01065D1F4F56DD002332
:1039A00011F404E001C003E05D960C935D972EDEF8
:1039B0003FC02CDE0023E1F106E05D960C935D979D
:1039C000F89468DF18960D931C931997789430C07B
:1039D0001DDE002369F100E05D960C935D97529621
:1039E0000C93529725C0F894023029F400E05296C7
:1039F0000C93529719C0013031F400E052960C93A9
:103A0000529701E011C018960D911C911997012B46
:103A100071F45B960C910A950C935B975B960C91F5
:103A20005B97002319F302E05D960C935D97789401
:103A30005D960C91A991B9910895FA93EA932A930E
:103A40001A930A932FB7E5E6F7E080990BC001E0DF
:103A5000028F02B70F700C5E048F00E002BF08B740
:103A6000016008BF048D0A95048F11F400E0028FF5
:103A700000851185012B31F0008511850150104022
:103A8000008711872FBF099119912991E991F99127
:103A90001895C79808EC00000A95E9F7C79A0FE84F
:103AA00011E001501040E9F700C000000895C798E8
:103AB00008EC00000A95E9F7C79A08EC00000A959F
:103AC000E9F70895C7980FE811E001501040E9F7B1
:103AD00000C0000008959A938A93902F812FBF9A77
:103AE000D8DF01C0E4DF092F9A950023D9F7D1DF91
:103AF00001C0DDDF082F8A950023D9F7CADFE2DF96
:103B000007B3007807BB899199910895C69808EC8E
:103B100000000A95E9F7C69A0FE811E0015010403D
:103B2000E9F700C000000895C69808EC00000A9567
:103B3000E9F7C69A08EC00000A95E9F70895C698D7
:103B40000FE811E001501040E9F700C000000895AF
:103B50009A938A93289780E00FC0A801642F6F7012
:103B6000FE01482F50E041955040E40FF51F678358
:103B700044E00E944E1E8395883078F3BE9AC6DFDB
:103B800080E007C0D1DF092F9A950023D9F7BEDF67
:103B90008395883030F4FE0190E0E80FF91F9081A2
:103BA000F2CFCDDF07B3007407BB289689919991B6
:103BB0000895F80100E010E020E030E040E006C0A9
:103BC000322F212F102F00E031964395443020F4FE
:103BD000049000294330A1F708950C94A31E0CE132
:103BE0000DBF02E00EBFC5EAD1E00E94791E00239E
:103BF00011F00E94891E0E94E00A0E94011E0C948E
:103C0000ED1D0C94ED1D4A9512F0000FE1F708959B
:103C10000024E8E0EA9532F0001F001C0416D0F3FF
:103C2000041AF8CF001F402D009508954A951AF008
:103C3000000F111FFBCF08954A951AF015950795AF
:103C4000FBCF089500241124EFE0001F111F001C7A
:103C5000111C0416150610F0041A150AEA95AAF7A5
:103C6000001F111FA00100951095089551954195D1
:103C700050400895FF27552312F4F160F7DF112318
:103C800012F4F09507D00E94221EF0FD03D0F1FD42
:103C9000EDCF089511950195104008954A952AF0A9
:103CA0003695279517950795F9CF08950024112487
:103CB0001001E0E2EA9592F0001F111F221F331F4E
:103CC000001C111C221C331C041615062606370680
:103CD00088F3041A150A260A370AECCF001F111FB1
:103CE000221F331FA001B10100951095209530953A
:103CF000089501E0089520E006D0E9F708952591A0
:103D000002D0E9F708952D9301501040202F212B68
:103D1000089588E49DE3FC0105911491FC0132961D
:103D2000A591B491FC01349625913491422F432BF7
:103D300019F0F901E4DF01C0DEDF06961DE38435EA
:103D4000910748F30895FFCF7105690200004C0008
:103D50001D02543D000000000000000000000001B2
:103D600001000001FF000000000000000AFFFFFF4B
:103D7000FF00000000000000000000000000000044
:103D80000000000000000000000000000000000033
:103D9000003C000000000000100800FFFFFFFF00D3
:103DA000FFFFFFFFFFFFFFFFFFFFFFFFFFFFFFFF23
:103DB000FFFFFFFFFFFFFFFFFFFFFFFFFFFFFFFF13
:103DC000FFFFFFFFFFFFFFFFFFFFFFFFFFFFFFFF03
:103DD000FFFFFFFFFFFFFFFFFFFFFFFFFFFFFFFFF3
:1077F0000303FFFFFFFFFFFFFFFFFFFFFFFFFFFF91
:00000001FF
