:100000000C945B0EFFFFFFFFFFFFFFFFFFFFFFFFF3
:100010000C945D00FFFFFFFFFFFFFFFF0C948507BF
:10002000FFFFFFFFFFFFFFFFFFFFFFFF0C94990D96
:1000300044656275672D4D6F6465206F6E2000FF0B
:1000400018E0E6E8F1E0218127FF02C021E001C0CD
:1000500020E0322F40815181440F551F408351834E
:1000600007FB1EF4242F21602083000F332339F077
:1000700022E030E1408142275327408351831A9583
:1000800001F708950FEF009386010093870108950B
:10009000089500E002BD02B500FDFDCF0DE005BDF5
:1000A00002B501FDFDCF0CE703BD09B7006809BF2C
:1000B00009B70F7B09BF0895ECCFFA93EA932A930F
:1000C0001A930A932FB7E8E8F1E0028101600283F6
:1000D0000381039503830A3029F400E0038302813E
:1000E00002600283048103950483043629F400E04E
:1000F0000483028104600283058103950583083926
:1001000011F400E005830381023048F410E0E00FB1
:10011000F11F0081002319F000810A9500832FBF91
:10012000099119912991E991F99118959A938A93D6
:10013000C80102C00E94CF0CE199FCCF9FBB8EBBCF
:1001400001E00CBB0DB38991999108958A93822F98
:10015000EDDF081719F40AC00E94CF0CE199FCCF1B
:100160008DBBF89404E00CBBE19A789489910895D2
:10017000EEE8F1E000E0048305830283038306E9EF
:1001800011E00083118300E0068307830895AD0129
:10019000EEE8F1E0268137812C34344010F000E0A5
:1001A0001AC0A081B18122813381A20FB31F0C93A9
:1001B000028113810F5F1F4F028313830C3414409D
:1001C00018F000E002830383068117810F5F1F4F41
:1001D0000683178301E0DA010895AD01EEE8F1E04E
:1001E00006811781012B11F400E019C0A081B181B3
:1001F00004811581A00FB11F0C912481312F2F5F35
:100200003F4F248335832C34344018F020E024837E
:100210002583268137812150304026833783DA01B8
:1002200008954A92BA93AA939A938A93402EB12F33
:10023000C901A42F009194011091950130E0040FA1
:10024000131F0D5F1F4F0D34144010F4A7FB16F45D
:1002500000E010C0042F0D5F9ADF042D98DF0B2FF4
:1002600096DFAA2331F0FC010191CF0190DFAA951E
:10027000D1F701E089919991A991B9914990089597
:100280009A928A926A925A924A92BA93AA939A93AB
:100290008A932801C901DA014B0169840091940114
:1002A00010919501012B11F400E016C096DF035068
:1002B000F401008392DFF20100838FDFFC010083F1
:1002C000F401808104C089DF0D938A956A948823A4
:1002D00011F06620C1F701E089919991A991B99136
:1002E00049905990699089909990219608959A9291
:1002F0008A927A926A925A924A92BA93AA939A935B
:100300008A9307E010E00E949600602FA2E3B1E01C
:1003100008E611E086E096E028E060FB66F431E054
:100320003C93F89440E0F80140834183FC01408312
:100330004183789402C033E03C93669502960E5F49
:100340001F4F11962A9549F708E010E00E94960089
:10035000602F00E4202E01E0302EACE4B1E002E595
:1003600011E02EEE35E04AEF042E45E0142E46E073
:1003700060FB76F450E0F10150838FEFF801808349
:100380008183F90180838183F0015083518305C00B
:1003900052E0F10150835FEF5C93669552E0050EE9
:1003A00050E0151E2E5F3F4F0E5F1F4F119651E01C
:1003B000250E50E0351E4A95D9F609E010E00E945E
:1003C0009600602F0AE3002E01E0102E86E491E0F3
:1003D00049E656E0A1E8B6E076E060FB7EF400E096
:1003E000F00100830FEFFA0100830183028303838E
:1003F0000D930D930D930C93139706C004E0F00139
:1004000000830FEFFC010083669514964C5F5F4FED
:10041000019601E0000E00E0101E7A95F1F680E0F2
:10042000A0E6B1E00EEE402E05E0502E082F10E0C1
:10043000065F1F4F0E9496000F3F09F40FE71C91C3
:10044000101729F00C930FEFF201008301838395BD
:1004500002E0400E00E0501E1196863038F380E135
:1004600090E0A6E1B6E006E2602E06E0702E08E01D
:10047000402E8C010E949600902E8C010F5F1F4F22
:100480000E949600802E0FEF8016900611F48824AB
:1004900099240D911C9111970815190569F08D92F9
:1004A0009C921197F894F3010081118180169106B6
:1004B00010F480829182789402E0600E00E0701E59
:1004C000129602964A94A9F689919991A991B991A7
:1004D000499059906990799089909990089500E099
:1004E0000BBB00EC0ABB00E007BB0FEF08BB00E052
:1004F00005BB0FEF04BB0EEF01BB00E002BB0FE139
:1005000007B907E806B9369A00E00FBD09E00EBD4D
:1005100000E21EE41BBD0ABD09B7006109BFE7DEAA
:10052000929808958A93E8EFF6E000810355B9F0B8
:100530000052E1F4328123818181F0E0E82FE45D13
:10054000FE4F0081013041F4232B11F011E001C076
:1005500010E0082F0DD00AC0082F5ED007C081819F
:10056000082FA7D0A801B901082F50D1899108956B
:100570008A93802F212F0A3108F04CC0602FE02F82
:10058000F0E0E45DFE4F0081013009F043C08830A7
:1005900078F4482F01E010E00E94740E222321F02D
:1005A00015B3102B15BB2BC0009515B31023FACF34
:1005B00031F4112311F0939A22C0939820C08C300B
:1005C000482F78F4445001E010E00E94740E22237A
:1005D00021F012B3102B12BB12C0009512B31023DE
:1005E000FACF465001E010E00E94740E222319F069
:1005F0001BB3102B03C000951BB310231BBBE62FAE
:10060000F0E0EA5CF94F24A3082F53D0A801B90108
:10061000082FFCD089910895AA939A938A93A02FCA
:100620008901AA3108F041C08A2F90E0EA2FF0E05A
:10063000E45DFE4F20812330C1F5880F991FFC0136
:10064000E45DFE4F00AB31AB0035134C18F00FEFFB
:100650001FEF19C0402F532F60E070E00FEF1FEF26
:10066000159F9001149F102D210D361F059F100D11
:10067000211D361F049F002D110D261F361F40E53A
:1006800053EC0E948E0EF894FC01E650FA4F008362
:1006900011837894012B19F40A2F0650F5D10A2FF3
:1006A00008D0A801B9010A2FB1D089919991A991D7
:1006B00008959A938A93402F0A3128F000E010E0C1
:1006C00020E030E072C0602F70E0E02FF0E0E45DE9
:1006D000FE4F5081552361F05A9509F44AC05A954E
:1006E00089F05A9509F44EC05A9509F453C05DC07B
:1006F000E02FF0E0E45DFE4F04850023F9F20FEFF8
:1007000013E0DECF660F771FFB01E65DFE4F008131
:100710001181C801445150E0FA01E45DFE4F44A943
:1007200060E070E04D565040604070402224169FBB
:10073000302D079F300D159F202D310D069F200D68
:10074000311D149F102D210D321D059F100D211DEF
:10075000321D049F002D110D221D321D46ED53E068
:1007600060E070E00E94B10E98018C01020F131F2F
:10077000A7CFE02FF0E0EA5CF94F04A1002309F0D5
:10078000BECF9CCF660F771FFB01E45DFE4F00A933
:1007900011A996CF660F771F660F771FFB01E250F6
:1007A000FA4F0081118122813381899199910895B5
:1007B000BA93AA932497202F088301E01124E22FF3
:1007C000F0E0E45DFE4F1081143011F4698302E023
:1007D000FE01E00FF11D50830395FE01E00FF11DB6
:1007E0004083ABECB6E0A20FB11D0395402F9E01F4
:1007F00019E60EEF0E941101002311F000E001C084
:1008000001E00C932496A991B9910895BA93AA9303
:10081000202FECE6F7E009E60083218302E0B0E058
:10082000A22FA45DBE4F1C91143011F4628303E02B
:1008300010E0DF01A00FB11F5C930395E00FF11FE3
:10084000408303950093500704E617E00E94800C54
:10085000A991B99108953DD02091660170E0E22FF1
:10086000F0E0E45DFE4F0685002341F52630A8F454
:1008700036B3422F01E010E00E94740E3023B1F035
:1008800001E0ECE2F1E0E20FF71F128D1017B1F07A
:10089000028F002369F053E00DC039B3422F465058
:1008A00001E010E00E94740E302351F700E0E9CF20
:1008B00040E050E060E0225F022F7ADF00916601A5
:1008C000039500936601063018F000E0009366017E
:1008D00008955A924A92BA93AA938A933699A4C0D9
:1008E000ACE2B1E004B115B1FD0122A933A9200F9A
:1008F000311F22AB33AB03AD039503AF003408F4D3
:1009000092C0890146E00E947A0E280102AB13AB27
:1009100087B18F7150E0E80FF51F0489023009F0AC
:1009200055C0082E000CFD01E00DF51F46A217A3CF
:100930002EEE35E0200D351FF901608171816F3F8A
:10094000740719F46FEF7FE702C06419710B048418
:100950001584600D711D648775871AF47195619512
:100960007040683C70400CF450C040821183548742
:100970005587FD01E80FF51F44A960E070E04D5672
:10098000504060407040042D2224169F302D079F58
:10099000300D159F202D310D069F200D311D149F08
:1009A000102D210D321D059F100D211D321D049F9C
:1009B000002D110D221D321D46ED53E060E070E068
:1009C0000E94B10EA201400F511F1AC00FEF24B1B7
:1009D00035B12935324010F001E006C024B135B1FF
:1009E000243F314008F400E0FD01E80FF51F10A19D
:1009F000011759F000A3002311F053E001C040E0BB
:100A000060E070E0082F0C5ED3DE00E00093670129
:100A10008395FD0102AB03AB863008F080E007B19F
:100A2000007E082B07B9369A8991A991B99149900E
:100A300059900895002379F00A9579F00A9591F07C
:100A40000A9591F00A95A9F00A95A9F00A95A9F0DE
:100A50000A95A9F0089500E401C000E815B3102735
:100A600015BB089508E001C000E212B3102712BBC5
:100A7000089500E4FACF00E8F8CF00E401C000E8F0
:100A80001BB310271BBB0895002379F00A9579F05A
:100A90000A9579F00A9579F00A9579F00A9579F036
:100AA0000A9579F00A9579F00895AE980895AF986F
:100AB000089593980895959808959698089597980D
:100AC0000895DE980895DF980895002379F00A9537
:100AD00079F00A9579F00A9579F00A9579F00A95F6
:100AE00079F00A9579F00A9579F00895AE9A08950B
:100AF000AF9A0895939A0895959A0895969A0895AD
:100B0000979A0895DE9A0895DF9A08958A927A92C4
:100B10006A925A924A92BA93AA939A938A93E091CC
:100B2000680610E0F0E0E45DFE4F0685043009F051
:100B3000B0C0F894009168069801220F331F220F6D
:100B4000331FF901E759F94F408151816281738167
:100B5000000F111FF801E759F94F00A911A9789466
:100B6000202F212B29F480E090E0A0E0B0E01CC011
:100B7000C80100E015E32CE0299F302D289F202D8F
:100B8000310D199F200D311D189F102D210D301F83
:100B90000E948E0EC801D901013307E5900705E0D8
:100BA000A00700E0B007F8F680906806482C5524AE
:100BB000082D10E0000F111F000F111FF801EA5C53
:100BC000F94F80839183A283B38329E6622E26E0C6
:100BD000722E600E711EF301008D118D228D338DEA
:100BE0000F3F4FEF14072407340729F40FEF1FEFCF
:100BF0002FEF3FE71CC0081719072A073B0729F406
:100C000000E010E020E030E012C0322F212F102F42
:100C100000E0110F221F331F110F221F331FAC01E1
:100C2000BD010E948E0E0050144020403040440C04
:100C3000551CE6E3F6E0E40DF51D408D518D652F62
:100C4000660F660B040F151F261F361F008F118FAE
:100C50003AF410952095309501951F4F2F4F3F4F37
:100C6000083C104020403040A4F0F301808F918F69
:100C7000A28FB38FAC01BD010EE0080D99DD00E03D
:100C80002091680632E0239FF001EA5CF94F008F63
:100C9000018F00916806039500936806063018F0EE
:100CA00000E00093680689919991A991B9914990C2
:100CB00059906990799089900895BA93AA938A93EC
:100CC0008091F50602E0809FA6E0B6E0A00DB11D80
:100CD000FD0140895189F001EA5FF94F208131819E
:100CE000042F052BF1F42F3F0FEF300719F4082FD5
:100CF000A1DE4AC0022F032B09F446C005EE16E020
:100D0000000D111DF801408151812F5F3F4FBA0145
:100D1000620F731F60837183008140175707A0F132
:100D2000E6CF2F3F0FEF300719F4082FCEDE2CC08F
:100D3000022F032B49F1E5EEF6E0018900FF16C012
:100D40008F01000D111DF801608171812F5F3F4FF0
:100D50000B01020E131E00821182008160177105C3
:100D600028F0FD0140A351A3082FAFDEFD0100A133
:100D700011A1012B39F000A111A10150104000A3D5
:100D800011A302C0082F80DE0091F50603950093A1
:100D9000F506083040F000E00093F5060091F606F5
:100DA00003950093F6068991A991B99108959A92B5
:100DB0008A927A926A925A924A92BA93AA939A9390
:100DC0008A9366B20FE3602209E6402E06E0502EB9
:100DD0005091A5065625062D00955023772469E9E4
:100DE00076E08FEB96E0D201DE9642010D911D91E7
:100DF0002D913C910F5F1F4F2F4F3F4F3C932E93F0
:100E00001E930E93FB0100811181012B51F10D9175
:100E10001D912D913C911397013045E314074CE04F
:100E2000240740E0340770F4F40100801180228030
:100E300033803695279517950795001611062206DB
:100E4000330678F4472D01E010E00E94740E102F55
:100E50001095F20105AD012305AF00E0FB01008311
:100E6000018350FB0EF040C00091A60610E0472D14
:100E70000E94800E017031F1FC01008111810F5F31
:100E80001F4F008311830D911D912D913C9113975C
:100E9000083C40E014072407340730F1F4010083D4
:100EA000118322833383FC0100811181FB010083C4
:100EB00011834D934D934D934C931397FC014083B5
:100EC000418312C010E01D931D931D931C93139733
:100ED000FC0110831183472D01E00E94740E102F36
:100EE000F20105AD012B05AF5695739404E0800E19
:100EF00000E0901E149602966E5F7F4F06E070161B
:100F000008F474CF6092A506DFCA8A93FA93EA9335
:100F10003A922A921A920A927A936A935A934A932D
:100F20003A932A931A930A938FB7C7DE40DF8FBF95
:100F30000991199129913991499159916991799121
:100F40000990199029903990E991F9918991189512
:100F5000BA93AA938A93279700915007002309F028
:100F60004BC002E30A93BE016F5F7F4F43EB57E034
:100F70009E012E5F3F4F8E010D5F1F4F0E9440016B
:100F80000023D1F1DE011396ECEFFFE704E01591A9
:100F90001D930A95E1F72981E0915007F0E0E459AB
:100FA000F84F208300915007039500935007088164
:100FB000002381F0A3EBB7E01D91E0915007F0E032
:100FC000E459F84F10831091500713951093500770
:100FD0000A9591F780E0DE011396082F10E00E5F6E
:100FE0001F4F0E9496000D9383958430B0F38E01BD
:100FF0000D5F1F4F0E94800C27968991A991B9918E
:10100000089502E010E00E9496000F3F41F503E0D2
:1010100010E00E9496000F3F11F504E010E00E94DE
:1010200096000F3FE1F405E010E00E9496000F3FAC
:10103000B1F401E010E00E9496000F3F29F424E192
:1010400001E010E00E94A60006E010E00E94960079
:101050000F3F29F42EEF06E010E00E94A60008954D
:10106000FA92EA92DA92CA92BA92AA929A928A92E0
:101070005A924A92BA93AA939A938A93A097FF247A
:1010800010E001E00E94E20D0CEF1FE70E94480E05
:101090000E941A0E0E946F02B4DF0E945C000E9440
:1010A000CF090E94B8000FEF13EC29E00150104067
:1010B0002040E1F700C00000A8E7B1E001E00093A4
:1010C0007C01789408EFC02E06E0D02E5BC00E9411
:1010D000CF0C009188010023D1F7F894ED91FC9199
:1010E0001197099506C0FF24F394F89402C0FF24D9
:1010F000789400E000934A0720E030E000E00E948E
:101100004800FF2009F043C023DF0E94CF0C00916C
:101110004A07002351F10091F806015209F45CC01E
:10112000025209F475C0025009F4CAC00D5009F406
:1011300072C0055009F48FC0035009F44BC00E5023
:1011400009F4ADC0065009F4ACC0075031F00A955F
:1011500009F49DC00450D1F11FC1F894ED91FC91A8
:101160001197099500E000934A07FF2059F4009178
:101170008801002339F4F89401E000938801789401
:101180000E9486050E942B04FF2009F4BDCF2FEF9B
:101190003FEF00E00E9448000E94CF0C00914A07F8
:1011A000002309F4A9CF0091F8060A5509F49FCF4E
:1011B0000B5121F0055009F496CF9BCF00E000932E
:1011C0004A07789405E00093880183CFFF24F394C5
:1011D000F894C8CF7894C6CF00914A07023010F235
:1011E0000091F9061091F806011709F0BBCF789429
:1011F00005E00093880102C00E94CF0C0091880195
:101200000023D1F7F894FD010281F381E02FA9CFEB
:101210000E947701A7CF9091F9068091FA064424A5
:101220000091FB06002371F08C010E94960001964C
:10123000FF27E42DE459F84F008343940091FB0607
:10124000401690F30091FB060093500704E617E068
:101250000E94800C87CF9091F9068091FA06442471
:10126000460104E0800E941C0091FB06002309F463
:1012700079CFF40121914F018C010E94A6000196C3
:1012800043940091FB06401608F06CCFF2CF01E0CA
:1012900000936C0700E000936D0702E0D5CF0CE1EE
:1012A000F7CF2CE637E002EF1FE74AE0F80155914F
:1012B0008F01F90151939F014A95C1F70AE0C4CF0C
:1012C0000091FC06002309F44DCFFE0100E210E07E
:1012D00011930A95E1F7442455249091F9068091E1
:1012E000FA06EE24BB24442D477001E00E946F0EE5
:1012F000A02E4E0182011695079516950795169515
:101300000795800E911E0091FB06002379F08C0159
:101310000E94960001960F3F21F0F40100810A29F6
:101320000083B3940091FB06B01688F301E0400EF1
:1013300000E0501EE3940091FC06E01698F205E6EA
:1013400000936C070091F90600936D070091FA066F
:1013500000936E070091FB0600936F070FEF400E9E
:10136000501E569447945694479456944794A2011D
:101370004F5F5F4F042F052B61F020E737E08E01B0
:10138000CA01F80141918F01F90141939F01019731
:10139000C1F7042D0B5F58CF0E949202E3CE00E00C
:1013A00000BD03E309B900E10AB906EA00BDEEE3B6
:1013B000F7E000E0058F028B0487048B0FEF068BAC
:1013C000058B0783068305830483899A8C9A9498F6
:1013D00001E0028F02E003BF09B7016009BF089571
:1013E000BA93AA939A938A93AEE3B7E000E000938E
:1013F0004A075F9902C000E07EC21BB10CB11471B4
:10140000D1F70C3F41F410916007112321F401E062
:1014100000936007F0CFFD0114A1139514A30D3FB5
:1014200099F400E004A3068F078F03E000A301E016
:1014300003A300E003830283018300830E94420030
:101440000DEF0E942000D7CF0E3F19F400E003A358
:10145000D2CF12A1112319F0006810E012A313A13A
:10146000112349F2278D2430C8F40F3F19F010A141
:101470001D7F10A330E0F901E450F04814910117EA
:1014800021F0FD0110A11E7F10A3FD01E20FF31F4B
:101490000587FD01178D1395178FD3CFA9F410A1E0
:1014A00011FF02C011E001C010E0118B038B10A1ED
:1014B000112331F413891770133011F010E001C0BB
:1014C00011E013A315E0E8CF138913FF0BC01770C9
:1014D000133041F0293030F430E0E20FF31F35973C
:1014E0000083D7CF2F3F21F01FEF178F01A3A9CF84
:1014F000E0915C07F0E0E850F94F00830E94200083
:1015000000915C0710E080915F0790E00197081759
:101510001907C1F400E000935E070E94200000E07C
:101520000E9420000091860110918701012B21F07B
:1015300000E000934A0760CF00915F0700934A07DD
:1015400001E05ACF0634A1F3FD010395068F53CF76
:1015500008E00AB9949A5E9A08EF0CB95E9BFECF38
:1015600000E10AB994980895442391F04A95F8014E
:101570005081F9016081561710F40FEF08955191D1
:101580009F01F80161918F01561770F701E00895EE
:1015900000E00895442341F04A95F90151919F01DB
:1015A000F80151938F01C1F70895BA93AA938A93D2
:1015B000AEE3B7E000914A07002311F000E08CC0D1
:1015C0000FDF0023D9F380915107082F07700330F4
:1015D00059F520E020934A07869586958695839550
:1015E000ECEFFFE71D9606C005911D91011731F73D
:1015F000885023958823B1F08830B0F748E0481B25
:101600000FEF10E00E94740E30E0F901E450F04852
:1016100014911023EEE3F7E0E20FF31F258520235A
:10162000121761F603E058C0082F017110914F079F
:10163000112331F0003111F200E000934A07BECFD0
:101640000031E1F586958370FD01038907FF02C033
:101650000FEF058B00915307081741F544E024E68E
:1016600037E08D0181DF002309F500E000934A0790
:1016700000915B07063059F58091510782958F7074
:101680008695837044E09D019A968D016DDF00235D
:10169000C1F40091570706950370801791F40091EB
:1016A00051070779013189F402E016C0809353078E
:1016B00044E09D0104E617E06DDFDACF87798131E0
:1016C000A1F200E000934A0707C001E005C0FD0158
:1016D0000389017011E001278991A991B9910895B9
:1016E0000D3F21F00E3F11F00C3F61F41091B20755
:1016F000112339F45D9B08C01CEF1CB911E0109355
:10170000B2070F775D9902C000E008950CB95E9AA8
:1017100000E00093B20701E00895BA93AA939A9368
:101720008A93AEE3B7E0009156070023B1F408E0D6
:101730000AB9949A0E944200FD01008D0395008F22
:1017400000E005A3018D0779013119F404E617E0E3
:1017500002C008E617E002871387009156070130A0
:1017600051F45D9B0DC00DEF0CB902E000935607DC
:101770000DEF0E942000009156070230E9F414C0DA
:1017800000E0B9C08285938510E0800F911FFC01B5
:101790000081A6DF0023A1F3FC0100810E9420004C
:1017A000FD0105A1039505A3009163070430FD0128
:1017B00048F3008D0395008F00915607033061F4C4
:1017C00080915707082F8CDF0023D1F204E00093AB
:1017D0005607082F0E942000009156070430E9F4B4
:1017E000FD01018D03FD13C005E0008F1AC0F0E07C
:1017F000E02FE850F0488491082F72DF002301F2B7
:10180000082F0E942000FD0105A1039505A305A155
:10181000083068F3008D0395008F0091560705305E
:10182000A1F480915007009157070171013109F42B
:1018300080E08E5F082F54DF002309F4A1CF06E07B
:1018400000935607082F0E9420000091560706308B
:1018500041F580915007009157070171013199F4CA
:1018600080E011C0F0E0E02FE459F84F9081092F9B
:1018700037DF002309F484CF092F0E942000FD01E7
:1018800007890395078B00915507081758F300E067
:101890000E94200000E00E942000FD01008D0395C1
:1018A000008F00915607073079F40091870118DF07
:1018B000002311F001E001C000E0002309F460CF33
:1018C00008E00093560702C0083051F400918601E9
:1018D00007DF002309F454CF09E00093560702C044
:1018E000093041F45E9B4CCF00E10AB994980AE0BC
:1018F0000093560701E089919991A991B9910895B2
:1019000044E0980108E617E045CEAA93A0E0A09332
:101910005507A093560744E022E437E008E617E0B5
:1019200023DE002309F0A0E844E021E831E008E6E6
:1019300017E01ADE0023A1F044E028E637E002E4D5
:1019400017E028DE0091520710915407101721F478
:1019500003950370009352070091520700935407B8
:10196000009159070330C9F42091520700915307A1
:101970000295007F000F122F110F012B0A2B086117
:1019800000935707233020F000E00093520705C072
:10199000EEE3F7E0022F0395048BA9910895BA9323
:1019A000AA9300917C01002311F40FEFBFC0FDDD6D
:1019B000033011F4CDDDF9CFAEE3B7E010915B0752
:1019C000112391F01A9511F11A9509F45CC01A953A
:1019D00009F471C01A9509F481C01A9509F44FC031
:1019E0001A9509F484C0A0C0013021F401E00093ED
:1019F0005B079AC000915007002309F495C002E0EC
:101A000000935B0703E0009359078EC000915807CD
:101A1000002309F089C0009150070023D1F044E071
:101A200024E637E008E617E09FDD002391F403E0A9
:101A3000009359076ADFF89402B710E00F70000FA7
:101A4000000F00571E4F18960D931C93789403E0D7
:101A50000EC000E00093550700935607009153070E
:101A60000295007F000F09610093570705E000937E
:101A70005B0753DE002309F457C000E0B8CF4DDE0A
:101A80000023D9F751C0013009F4B0CF00915807B5
:101A9000002309F049C039DF44E021E831E09A969B
:101AA0008D0162DD002311F404E001C003E0009326
:101AB0005B0733DE39C031DE0023B1F106E000936D
:101AC0005B07F89402B710E00F70000F000F00578B
:101AD0001E4F18960D931C93789426C01EDE00238B
:101AE00019F100E000935B07009350071DC0F894C4
:101AF000023021F400E00093500713C0013029F4B4
:101B000000E00093500701E00CC018960D911C9165
:101B10001997012B41F45B960C910A950C9351F3A4
:101B200002E000935B07789400915B07A991B9915B
:101B30000895FA93EA932A931A930A932FB7EEE340
:101B4000F7E080990BC001E0028F02B70F71085DCA
:101B5000048F00E002BF08B7016008BF048D0A953A
:101B6000048F11F400E0028F00851185012B31F004
:101B70000085118501501040008711872FBF099102
:101B800019912991E991F9911895C7980FE811E0F9
:101B900001501040E9F700C00000C79A37C0C7984D
:101BA0000FE811E001501040E9F700C00000C79AAB
:101BB0000FE811E001501040E9F700C0000008955F
:101BC000C79824C09A938A93902F812FBF9ADDDF04
:101BD000992321F09A95E3DF9923E1F7D6DF882353
:101BE00021F08A95DCDF8823E1F7CFDFE9DF07B357
:101BF000007807BB899199910895C6980FE811E084
:101C000001501040E9F700C00000C69A0FE113E050
:101C100001501040E9F700C000000895C6980FE891
:101C200011E001501040E9F700C00000C69AC0CF93
:101C3000C698ECCFBA93AA939A938A93289760E0B8
:101C4000702F7F70FE01462F50E041955040E40F09
:101C5000F51F778344E00E94860E6395683080F319
:101C6000BE9ACBDFDE0188E09D91992321F09A9501
:101C7000D5DF9923E1F7C1DF8A95B1F7D9DF07B343
:101C8000007407BB289689919991A991B9910895FB
:101C9000F80110E020E030E040E00590002D4330F6
:101CA00039F0322F212F102D00E043954430A8F356
:101CB00008950C94FD0E0BE20DBF01E00EBFC0EFC6
:101CC000D0E00E94D30E002311F00E94E30E0E9488
:101CD00030080E946D0E0C94590E0C94590E4A95C2
:101CE00012F0000FE1F708954A951AF0000F111F46
:101CF000FBCF08954A951AF016950795FBCF0895E6
:101D00004A951AF015950795FBCF08954A952AF044
:101D10003695279517950795F9CF08950024112436
:101D20001001E0E2EA9592F0001F111F221F331FFD
:101D3000001C111C221C331C04161506260637062F
:101D400088F3041A150A260A370AECCF001F111F60
:101D5000221F331FA001B1010095109520953095E9
:101D60000895FF27772312F4F16015D0332312F47E
:101D7000F09509D00E948E0EF69508F404D0F695E1
:101D800008F409C0089530952095109501951F4FCE
:101D90002F4F3F4F089570956095509541955F4F37
:101DA0006F4F7F4F089501E0089520E006D0E9F7D6
:101DB0000895259102D0E9F708952D930150104020
:101DC000202F212B08958CEF9DE1FC0105911491AA
:101DD000FC013296A591B491FC0134962591349181
:101DE000422F432B19F0F901E4DF01C0DEDF069634
:101DF0001EE18830910748F30895FFCF2D06860134
:101E000000005A002C01081E01010101010101011D
:101E100001010101010100000000000002020202B4
:101E20000202FFFFFFFFFFFF0000000000000000B4
:101E300000000000000000000000000000000000A2
:101E40000000000000000000000000000000000092
:101E500000000000003C00000000100800FFFFFF31
:101E6000FF00FFFFFFFFFFFFFFFFFFFFFFFFFFFF81
:101E7000FFFFFFFFFFFFFFFFFFFFFFFFFFFFFFFF72
:101E8000FFFFFFFFFFFFFFFFFFFFFFFFFFFFFFFF62
:101E9000FFFFFFFFFFFFFFFFFFFFFFFFFFFFFFFF52
:101EA000FFFFFFFFFFFFFFFFFFFFFFFFFFFFFFFF42
:1077F0000001FFFFFFFFFFFFFFFFFFFFFFFFFFFF96
:00000001FF
