:100000000C94490A189518951895189518951895EF
:100010000C947C00189518951895189518951895B6
:100020001895189518951895189518950C94860993
:100030001895189518951895189518951895189558
:100040001895189518951895189518951895189548
:10005000189518951895189544656275672D4D6F1C
:100060006465206F6E200006050403020100030290
:10007000010007060504030201000302010007FF57
:1000800018E0ECE3F2E0218127FF02C021E001C08B
:1000900020E0322F40815181440F551F408351830E
:1000A00007FB1EF4242F21602083000F332339F037
:1000B00022E030E1408142275327408351831A9543
:1000C00001F708950FEFECE3F2E000830183089558
:1000D00000E002BD02B500FDFDCF0DE005BD02B59B
:1000E00001FDFDCF0CE703BD09B7006809BF09B7E3
:1000F0000F7B09BF0895ECCFFA93EA932A931A93E2
:100100000A932FB7EEE3F2E00281016002830381DC
:10011000039503830A3029F400E00383028102601F
:100120000283048103950483043629F400E00483E8
:10013000028104600283058103950583083911F467
:1001400000E005830381023048F410E0E00FF11F66
:100150000081002319F000810A9500832FBF0991C7
:1001600019912991E991F99118959A938A93C80167
:1001700002C00E94AE08E199FCCF9FBB8EBB01E09C
:100180000CBB0DB38991999108958A93822FEDDF6D
:10019000081719F40AC00E94AE08E199FCCF8DBB84
:1001A000F89404E00CBBE19A789489910895E4E412
:1001B000F2E000E004830583028303830CE412E091
:1001C0000083118300E0068307830895AD01E4E412
:1001D000F2E0268137812C34344010F000E01AC060
:1001E000A081B18122813381A20FB31F0C930281C0
:1001F00013810F5F1F4F028313830C34144018F0D8
:1002000000E002830383068117810F5F1F4F06837F
:10021000178301E0DA010895AD01E4E4F2E006811C
:100220001781012B11F400E019C0A081B181048174
:100230001581A00FB11F0C912481312F2F5F3F4FEB
:10024000248335832C34344018F020E02483258324
:10025000268137812150304026833783DA01089583
:100260004A92BA93AA939A938A93B02F412EC901C6
:10027000A42FE4E4F2E026813781042F10E0020F7E
:10028000131F0D5F1F4F0D34144010F4A7FB16F41D
:1002900000E010C0042F0D5F99DF0B2F97DF042DB6
:1002A00095DFAA2331F0FC010191CF018FDFAA95E0
:1002B000D1F701E089919991A991B9914990089557
:1002C0009A928A926A925A924A92BA93AA939A936B
:1002D0008A932801C901DA014B016984E4E4F2E060
:1002E00006811781012B11F400E017C095DF035040
:1002F000F401008391DFF20100838EDFFC010083B3
:10030000F4018081882341F0662031F085DF0D9370
:100310008A956A948823C1F701E089919991A991FE
:10032000B991499059906990899099902196089532
:1003300008950AB300E00ABB0FEF0BBB07B3007FC1
:1003400007BB08B30F6008BB01B3046801BB9298F8
:1003500021E006E010E00C94C5002C97602F00E02F
:10036000F9010183E1EFFFE70491095119F00A95C2
:10037000F1F03CC0663028F459B301E010E0462F9C
:100380002CC001E010E0462F44500E94620A683001
:1003900018F416B3102324C06A3028F456B301E0D1
:1003A00010E06850ECCF6C3008F519B3F3CFE3E7F9
:1003B000F0E08E014CE050E00E94700A673030F0AF
:1003C0006B3010F456B303C06C3080F459B301E0C5
:1003D00010E0FE01E60FF11F40810E94620A052332
:1003E00011F008EC01C000E0F90100832C9608959B
:1003F0000895BA933A2E192E282E2C9720E06DE1FD
:1004000072E0DE01C801FB0100810230B1F4E1EFCE
:10041000FFE70491095119F00A95D1F10EC0263079
:10042000C8F439B301E010E0422F0E94620A0323AE
:10043000E1F4FC010081016000832395019611968F
:100440006F5F7F4F2C30F8F22C96822D912DA32DCB
:10045000B991089501E010E0422F44500E94620AD1
:10046000283038F416B3102321F3FC0100810E7FED
:10047000E3CF2A3050F436B301E010E0422F485069
:100480000E94620A032389F7D4CF19B31023FBCF4C
:10049000E7E6F0E08E014CE050E00E94700A273061
:1004A00028F439B301E010E04C91EACF01E010E00C
:1004B0004C910E94620A2B3040F716B3E7CFBA93F3
:1004C000AA939A938A9300919806102F13951093EC
:1004D00098060B3018F1A1EBB6E0E9E9F6E00CE084
:1004E00011911D930A95E1F709E916E082DFE1EB2E
:1004F000F6E089E996E005EA16E02CE03191DC01AE
:100500004C91341719F031E0D8013C930F5F1F4F25
:1005100001962A9599F700E00093980689919991A0
:10052000A991B99108957A926A924A92BA93AA933C
:100530009A938A932F974424A5EAB6E089E996E036
:1005400007E0602E77240C91002309F442C0830158
:100550000E94B50001FBEEF5488200E00A83FC0131
:10056000008100FF0DC000E0098343E09E0119E611
:100570000EEF0E943001002369F000E00C930AC0E6
:1005800008EC098343E09E0119E60EEF0E9430015A
:10059000002399F74882E1EFFFE70491098300E027
:1005A0000A8303E00B8301E00C839E012B5F3F4F26
:1005B00002EF1FE74AE0F80155918F01F9015193CD
:1005C0009F014A95C1F74FE09E0111E40FEF0E9491
:1005D0003001439402E0600E00E0701E0196119617
:1005E0000CE0401608F4AFCF2F9689919991A9910C
:1005F000B99149906990799008957A926A925A9245
:100600004A92BA93AA939A938A93279700911707CD
:10061000002309F0E5C002E30A93BE016F5F7F4F3C
:100620004AE757E09E012D5F3F4F8E010E5F1F4F3F
:100630000E946001002309F4D3C0DE011396ECEFA1
:10064000FFE704E015911D930A95E1F7298130E059
:100650004A810091170710E0F801ED5CF84F4083E4
:10066000E7E1F7E000810395008309810F3FA9F5D9
:1006700020917A0700911707F801ED5CF84F20836D
:1006800081E0E7E1F7E00081039500830881033012
:10069000A0F090E0FC01E658F84F20810091170788
:1006A000F801ED5CF84F2083E7E1F7E00081039566
:1006B000008383950881801760F309E212E00E94AD
:1006C00061080A810B3409F08BC000917C0701FF9F
:1006D00087C001E00093BD0683C00E3F31F508815D
:1006E000002381F0EAE7F7E0119120911707D90183
:1006F000AD5CB84F1C93A7E1B7E01C9113951C9318
:100700000A9591F780E0DE011396082F10E00E5F46
:100710001F4F0E94B5000D9383958430B0F38E0176
:100720000D5F1F4F0E9461085BC086E0829FC00181
:100730000796A0810A2F039500838C010E94B500C3
:100740000196B0E0FD01ED5CF84F00835524539411
:100750003E0103E0600E7B1EACEFBFE704E0402EDD
:100760008C010E94B5000196F3010083FD011491F4
:10077000011709F05524119601E0600E00E0701E8B
:100780004A9471F78C010E94B5002091170730E060
:10079000F901ED5CF84F0083E7E1F7E00081039594
:1007A00000835520D1F48E010D5F1F4F0E94610818
:1007B00008810023A9F0EAE7F7E0119120911707DB
:1007C00030E0D901AD5CB84F1C93A7E1B7E01C91B4
:1007D00013951C930A9521F0F0CF3093BD0630831A
:1007E000279689919991A991B991499059906990C9
:1007F0007990089502E010E00E94B5000F3F41F5A6
:1008000003E010E00E94B5000F3F11F504E010E096
:100810000E94B5000F3FE1F405E010E00E94B50032
:100820000F3FB1F401E010E00E94B5000F3F29F442
:1008300024E101E010E00E94C50006E010E00E9403
:10084000B5000F3F29F42EEF06E010E00E94C5002E
:100850000895CA92BA92AA929A928A927A926A92C7
:100860005A924A92BA93AA939A938A93A097CC24C5
:1008700011E003E00E94CF090CEF1FE70E94360A47
:100880000E94070A0E949901B5DF0E947B000E9426
:10089000CC050E94D7000FEF13EC29E00150104067
:1008A0002040E1F700C000000EE2802E02E0902E12
:1008B00001E0F4010483789412C00E94F80100E082
:1008C00000931107CC2059F400913E02002339F423
:1008D000F89401E000933E0278940E945F020E9427
:1008E0009302AFEBB6E0CC2071F10E94AE0800910C
:1008F0001107002331F10C910A55F1F00B5119F059
:100900000550B1F01BC000E000931107789405E09A
:1009100000933E0202C00E94AE0800913E020023F6
:10092000D1F7F894F40100811181F801099506C00E
:10093000CC24C394F89402C0CC24789400E00093B3
:100940001107CC2091F659DE0E94AE0800911107E4
:10095000002309F4B7CFFD0101812281302F83E309
:1009600097E01C91115291F1125209F448C01250B3
:1009700009F491C01D5009F445C01A9509F402C14B
:10098000145009F459C01350F9F0195009F497CFD5
:10099000155009F46BC0165009F46FC0135009F4D8
:1009A000E7C0145031F01A9509F459C0145041F0C1
:1009B00084CFF894F40100811181F80109957FCF6B
:1009C000CC24C394F8947BCF789479CF10911107FD
:1009D000123008F474CF1C91011709F070CF78948D
:1009E00005E000933E0202C00E94AE0800913E0264
:1009F0000023D1F7F894F40102811381DECF0E9425
:100A000098015DCF590166240CC085010E94B50094
:100A100011E0A10E10E0B11EFC01E60DF11F0083F4
:100A20006394FD010381601680F3009317070BE2C6
:100A300017E00E94610843CF59016624FD0103813C
:100A4000601608F03CCF7724E60DF71D2481850160
:100A50000E94C50001E0A00EB71C6394EFCF03E035
:100A6000FC01008301E0018302E0DFCFE1EFFFE75B
:100A70000491FC01008300E0F6CF9C0102EF1FE728
:100A80004AE0F80155918F01F90151939F014A9570
:100A9000C1F70AE0CACF0481002309F410CFFE0198
:100AA00000E210E011930A95E1F74424552459011E
:100AB000772427C085010E94B500102F01E0A00E09
:100AC00000E0B01E1F3F99F001E0442D47700E94E6
:100AD0005D0A202FFE018201169507951695079550
:100AE00016950795E00FF11F0081022B0083639498
:100AF000FD0103816016F0F201E0400E00E0501E9F
:100B00007394FD010481701610F46624F1CF05E69C
:100B1000FC010083FD010181FC010183FD010281D3
:100B2000FC010283FD010381FC01038366240FEFB6
:100B3000400E501E569447945694479456944794AA
:100B400082010F5F1F4F202F212B79F030E0FE0133
:100B5000E60DF31F4081FC013496E60DF31F408340
:100B6000639477246016710688F3042D0B5F5DCFC4
:100B700000911607002309F0A2CE06E010E00E94C3
:100B8000B5009DCE19E6FC011083018302969C01FD
:100B90000E94AD0104E049CF00E000BD03E309B9C4
:100BA00000E10AB906EA00BDE5E0F7E000E0058FE4
:100BB000028B0487048B0FEF068B058B078306835C
:100BC00005830483899A8C9A949801E0028F02E04D
:100BD00003BF09B7016009BF0895BA93AA939A9316
:100BE0008A93A5E0B7E000E0FD0104875F9902C0A9
:100BF00000E062C21BB10CB11471D1F712A10C3F1D
:100C000029F4112319F401E002A3F2CF24A12395C2
:100C100024A30D3F99F400E004A3068F078F03E09F
:100C200000A301E003A300E00383028301830C938C
:100C30000E9462000DEF0E944000DACF0E3F19F4CF
:100C400000E003A3D5CF112319F0006810E012A330
:100C500013A1112369F2278D50E02430C8F40F3F0F
:100C600019F010A11D7F10A3ECEFFFE7E20FF51FB5
:100C70001491011721F0FD0110A11E7F10A3FD01A9
:100C8000E20FF51F0587FD01178D1395178FD3CF41
:100C9000A9F410A111FF03C011E0118B01C0518B09
:100CA000038B10A1112331F413891770133011F045
:100CB00053A302C011E013A315E0E8CF138913FF7B
:100CC0000AC01770133039F0293028F4E20FF51FED
:100CD00035970083D8CF2F3F21F01FEF178F01A347
:100CE000AACF268D30E0F901E154F94F00830E942C
:100CF0004000FD01068D10E081A190E001970817EA
:100D00001907B1F400E000A30E94400000E00E9437
:100D10004000ECE3F2E000811181012B21F000E0C2
:100D2000FD01048766CFFD0101A1048701E061CFC9
:100D30000634A9F30395068F5BCF08E00AB9949AAD
:100D40005E9A08EF0CB95E9BFECF00E10AB9949859
:100D50000895542F4A95552389F0F8015081F901DF
:100D60006081561710F40FEF089551919F01F8011B
:100D700061918F01561768F701E0089500E008952A
:100D800006C0F90151919F01F80151938F01542F31
:100D90004A955523B1F70895BA93AA938A93A5E08B
:100DA000B7E0FD010485002311F000E084C015DFE9
:100DB0000023D9F3FD012389022F0770033031F599
:100DC00000E010E01487269526952695239539F4A2
:100DD0001BC0361751F7285003952223A9F0FD01B7
:100DE000E00FF11F6585ECEFFFE7E00FF11F349195
:100DF000283078F70FEF48E0421B0E94620A102F5C
:100E000013230623101789F603E055C0022F017142
:100E10001189112329F0003141F200E00487C5CF88
:100E20000031E1F526952370822F038907FF02C068
:100E30000FEF058B0589021741F544E09D012A5DFE
:100E40003F4F8D0186DF002301F500E0FD0104879F
:100E5000FD01058D063059F5838982958F70869541
:100E6000837044E09D018D01065D1F4F72DF0023FA
:100E7000C1F4FD01018D06950370801791F403897B
:100E80000779013191F402E016C0FD01858B44E041
:100E90009D018D010A5D1F4F73DFDACF2779213164
:100EA000A1F200E0FD01048706C001E004C013893F
:100EB000117001E001278991A991B99108950D3F21
:100EC00021F00E3F11F00C3F61F4109179071123CE
:100ED00039F45D9B08C01CEF1CB911E01093790731
:100EE0000F775D9902C000E008950CB95E9A00E0AA
:100EF0000093790701E00895BA93AA939A938A938D
:100F0000A5E0B7E0FD01008D0023B1F408E00AB9C7
:100F1000949A0E946200FD01008D0395008F00E00D
:100F200005A3018D077901318D0111F40A5D01C01E
:100F3000065D1F4F02871387008D013049F45D9BCA
:100F40000CC00DEF0CB902E0008F0DEF0E944000C5
:100F5000FD01008D0230D9F414C000E0ADC08285DF
:100F6000938510E0800F911FFC010081A8DF002312
:100F7000A1F3FC0100810E944000FD0105A1039541
:100F800005A305A1043058F3008D0395008F008D53
:100F9000033059F4818D082F92DF0023F1F204E031
:100FA000FD01008F082F0E944000FD01008D0430DC
:100FB000E9F4018D03FD14C005E0008F1AC0E8EFCD
:100FC000FFE710E0E00FF11F8491082F78DF002386
:100FD00021F2082F0E944000FD0105A1039505A301
:100FE00005A1083060F3008D0395008F008D05305A
:100FF00091F48289018D0171013109F480E08E5FE5
:10100000082F5DDF002309F4A8CF06E0FD01008F63
:10101000082F0E944000FD01008D063029F58289CD
:10102000018D0171013199F480E011C010E0F801E7
:10103000ED5CF84F9081092F42DF002309F48DCF3A
:10104000092F0E944000FD0107890395078B07893E
:10105000081760F300E00E94400000E00E9440009A
:10106000FD01008D0395008F008D073079F400910C
:101070003D0225DF002311F001E001C000E0002364
:1010800009F46BCF08E0FD01008F02C0083051F475
:1010900000913C0214DF002309F45FCF09E0FD0159
:1010A000008F02C0093039F45E9B57CF00E10AB9C6
:1010B00094980AE0008F01E089919991A991B991E2
:1010C000089544E098010FE217E05ACEBA93AA932C
:1010D0008A9380E0A5E0B7E0FD01878B808F44E034
:1010E0009D012C5F3F4F8D01065D1F4F32DE0023B7
:1010F00009F080E844E027E332E08D01065D1F4FF0
:1011000028DE002391F044E09D01265D3F4F8D01D4
:101110000C5F1F4F35DEFD0104891689101719F485
:1011200003950370048B0489068BFD01038D033046
:1011300089F4048925892295207F220F102F110F11
:10114000122B182B1861118F033010F000E001C032
:101150000395048B8991A991B9910895BA93AA93A3
:1011600000913202002311F40FEFCDC015DE0330E1
:1011700011F4E3DDF9CFA7E1B7E01C911B962C91A8
:101180005D97222391F02A9511F12A9509F45EC00A
:101190002A9509F476C02A9509F487C02A9509F49E
:1011A00051C02A9509F48BC0ACC0013029F401E08C
:1011B0005D960C935D97A5C0112309F4A2C002E0CF
:1011C0005D960C93129703E00C935B979AC05A9626
:1011D0000C915A97002309F094C01123E9F044E0E0
:1011E0009D012A5D3F4F8D01065D1F4FB2DD00233B
:1011F00099F403E05B960C93539768DFF89402B779
:1012000010E00F70000F000F00571E4F0D931C933E
:101210005496789403E00EC000E057960D930C931B
:1012200013970C9114960295007F000F09610C939F
:10123000149605E00C935D975FDE002309F461C00E
:1012400000E0B6CF59DE0023D9F75BC0013009F4C6
:10125000AECF5A960C915A97002309F052C036DF50
:1012600044E027E332E08D01065D1F4F72DD00236D
:1012700011F404E001C003E05D960C935D973CDE41
:1012800040C03ADE0023E9F106E05D960C935597E5
:10129000F89402B710E00F70000F000F00571E4FB8
:1012A0000D931C93199778942CC026DE002349F1E6
:1012B00000E05D960C931B970C93529722C0F89414
:1012C000023029F400E052960C931B9617C00130AF
:1012D00031F400E052960C931B9601E00FC0189673
:1012E0000D911C911997012B59F45B960C910A955D
:1012F0000C935B97002331F302E05D960C935D97AE
:1013000078945D960C91A991B9910895FA93EA9316
:101310002A931A930A932FB7E5E0F7E080990BC060
:1013200001E0028F02B70F71085D048F00E002BF79
:1013300008B7016008BF048D0A95048F11F400E01E
:10134000028F00851185012B31F000851185015038
:101350001040008711872FBF099119912991E991B8
:10136000F9911895C7980FE811E001501040E9F77E
:1013700000C00000C79A37C0C7980FE811E00150BD
:101380001040E9F700C00000C79A0FE811E00150D3
:101390001040E9F700C000000895C79824C09A9350
:1013A0008A93902F812FBF9ADDDF01C0E5DF092FDF
:1013B0009A950023D9F7D6DF01C0DEDF082F8A9582
:1013C0000023D9F7CFDFE9DF07B3007807BB8991A6
:1013D00099910895C6980FE811E001501040E9F77F
:1013E00000C00000C69A0FE113E001501040E9F779
:1013F00000C000000895C6980FE811E001501040A9
:10140000E9F700C00000C69AC0CFC698ECCFBA93E7
:10141000AA939A938A93289760E0702F7F70FE01B9
:101420003796462F50E041955040E40FF51F7083EA
:1014300044E00E94680A6395683078F3BE9ACADF78
:10144000DE0188E09D9101C0D6DF092F9A95002327
:10145000D9F7C0DF8A95B1F7D8DF07B3007407BBAF
:10146000289689919991A991B9910895F80110E070
:1014700020E030E040E00590002D433039F0322F7D
:10148000212F102D00E043954430A8F308950C94CB
:10149000A50A0CE10DBF02E00EBFC5EAD1E00E9433
:1014A0007B0A002311F00E948B0A0E9429040E94EB
:1014B0005B0A0C94470A0C94470A4A9512F0000FF5
:1014C000E1F708954A951AF0000F111FFBCF089518
:1014D0004A952AF03695279517950795F9CF0895DF
:1014E000AF93BF93D80105900D9241505040D9F76A
:1014F000BF91AF91089501E0089520E006D0E9F78B
:101500000895259102D0E9F708952D9301501040D8
:10151000202F212B08958CE495E1FC010591149175
:10152000FC013296A591B491FC0134962591349139
:10153000422F432B19F0F901E4DF01C0DEDF0696EC
:1015400015E18835910748F30895FFCF3E053C0229
:1015500000001F001D0258150202020202020202D0
:1015600002020202FFFFFFFF00003C00000000102B
:101570000800FFFFFFFF00FFFFFFFFFFFFFFFFFF70
:10158000FFFFFFFFFFFFFFFFFFFFFFFFFFFFFFFF6B
:10159000FFFFFFFFFFFFFFFFFFFFFFFFFFFFFFFF5B
:1015A000FFFFFFFFFFFFFFFFFFFFFFFFFFFFFFFF4B
:1015B000FFFFFFFFFFFFFFFFFFFFFFFFFFFFFFFF3B
:1077F0000103FFFFFFFFFFFFFFFFFFFFFFFFFFFF93
:00000001FF
