:100000000C94F5131895189518951895189518953A
:100010000C947000189518951895189518951895C2
:100020001895189518951895189518950C943213DD
:100030001895189518951895189518951895189558
:100040001895189518951895189518951895189548
:10005000189518951895189544656275672D4D6F1C
:100060006465206F6E2000FF18E0E8E8F1E0218170
:1000700027FF02C021E001C020E0322F40815181E2
:10008000440F551F4083518307FB1EF4242F21602A
:100090002083000F332339F022E030E140814227F2
:1000A0005327408351831A9501F708950FEFE8E82D
:1000B000F1E000830183089500E002BD02B500FD78
:1000C000FDCF0DE005BD02B501FDFDCF0CE703BD81
:1000D00009B7006809BF09B70F7B09BF0895ECCFC6
:1000E000FA93EA932A931A930A932FB7EAE8F1E076
:1000F0000281016002830381039503830A3029F49E
:1001000000E003830281026002830481039504837B
:10011000043629F400E0048302810460028305812F
:1001200003950583083911F400E00583038102304B
:1001300048F410E0E00FF11F0081002319F0008166
:100140000A9500832FBF099119912991E991F9919D
:1001500018959A938A93C80102C00E945A12E19995
:10016000FCCF9FBB8EBB01E00CBB0DB38991999175
:1001700008958A93822FEDDF081719F40AC00E94B0
:100180005A12E199FCCF8DBBF89404E00CBBE19AC4
:10019000789489910895E0E9F1E000E00483058313
:1001A0000283038308E911E00083118300E00683E2
:1001B00007830895AD01E0E9F1E0268137812C3411
:1001C000344010F000E01AC0A081B1812281338157
:1001D000A20FB31F0C93028113810F5F1F4F028385
:1001E00013830C34144018F000E00283038306816B
:1001F00017810F5F1F4F0683178301E0DA0108950F
:10020000AD01E0E9F1E006811781012B11F400E076
:1002100019C0A081B18104811581A00FB11F0C917B
:100220002481312F2F5F3F4F248335832C3434407A
:1002300018F020E024832583268137812150304027
:1002400026833783DA0108954A92BA93AA939A9340
:100250008A93B02F412EC901A42FE0E9F1E0268155
:100260003781042F10E0020F131F0D5F1F4F0D3455
:10027000144010F4A7FB16F400E010C0042F0D5F2B
:1002800099DF0B2F97DF042D95DFAA2331F0FC01B6
:100290000191CF018FDFAA95D1F701E08991999162
:1002A000A991B991499008959A928A926A925A9224
:1002B0004A92BA93AA939A938A932801C901DA01C0
:1002C0004B016984E0E9F1E006811781012B11F40B
:1002D00000E017C095DF0350F401008391DFF201C5
:1002E00000838EDFFC010083F4018081882341F0CC
:1002F000662031F085DF0D938A956A948823C1F7D3
:1003000001E089919991A991B99149905990699089
:10031000899099902196089508950AB300E00ABB48
:100320000FEF0BBB07B3007F07BB08B30F6008BB21
:1003300004B30F6704BB05B3007805BB01B30466C3
:1003400001BB02B30B7902BB27E73BE000E00E9450
:1003500081034FEF3CE020E010E000E00E948A03C0
:100360004FEF3DE020E011E001E00E948A034FEFF3
:100370003EE020E012E002E00E948A034FEF3FE0FF
:1003800020E013E003E00E948A034FEF30E120E019
:1003900014E004E00E948A034FEF31E120E015E011
:1003A00005E00E948A034FEF32E120E016E006E00C
:1003B0000C948A03402F212F0331E8F450E0FA0116
:1003C000E45DFE4F00810130B1F44C501F3F01E06D
:1003D00010E029F40E941C1415B3102706C00E94D7
:1003E0001C14222321F015B3102B15BB0895009582
:1003F00015B3102315BB0895BA93AA93502FD901B2
:1004000000E0F9010183563068F429B301E010E0FF
:10041000452F0E941C14022311F000E001C008ECDB
:100420000C934BC001E010E0452F44500E941C1477
:10043000583018F416B31023EFCF5A3028F426B3EF
:1004400001E010E05850E4CF5C3010F419B3F3CF62
:1004500025B301E010E0452F4C500E941C140223EC
:1004600011F008EC01C000E00C93052F0E94350349
:10047000202F06E0029FF001EC51FA4F2181E6E3C4
:10048000F6E00BE1029FE00DF11D0589002339F034
:100490000A9551F00A9519F00A9531F00EC0FD0148
:1004A00001810064018309C006891789208D318D7F
:1004B0000F3F1F4F2F4F3F4F91F7A991B9910895CB
:1004C00008955B2F6A2F20E0ACE2B1E0F8010D91B6
:1004D000002369F4263090F439B301E010E0422F94
:1004E0000E941C140323A9F400810160008323955A
:1004F00031962C3060F3A62FB52F089501E010E05F
:10050000422F44500E941C14283030F416B310239C
:1005100059F300810E7FEACF2A3050F436B301E060
:1005200010E0422F48500E941C14032391F7DCCFA7
:1005300019B31023FBCF08959D01E1E4F1E0ADE490
:10054000B1E00CE010E011931D930A95D9F7D901A1
:100550000895BA93AA938A93F89480918C0100E04D
:1005600000938C017894082F057011F400E079C095
:10057000AFE3B1E08D010E5F1F4F0E94610220E0EA
:100580000C91002369F401E00C93FD0132960CE01C
:10059000108110FF02C0106C108331960A95C1F7CC
:1005A00010E0FD01329600810D7E0083017401345C
:1005B00011F0002309F42395008100FF02C00064BC
:1005C00001C00F7B0083139531961C3060F3211717
:1005D000C9F4FD010181002311F00A950183018115
:1005E000002321F63E9612960CE01081133028F479
:1005F0001C9117FF02C011601C931C9110FF06C0D4
:10060000106205C00AE0FD010183B0CF1F7D1C937D
:100610001C911178113019F41C91106104C010382C
:10062000D9F31C911F7E1C931C9115FF0EC014FF63
:1006300002C010E006C082FB46F410811F3F29F083
:10064000139510831C9112601C931C9115FF02C01E
:10065000106801C01F771C93119631960A9529F6F0
:1006600001E08991A991B991089520E064EE75E0C7
:10067000FB01329646E0429FE00DF11D10811017FC
:1006800011F4022F08952395273090F30FEF08956A
:10069000E0E0F0ECF123E03020ECF20729F40FEF7A
:1006A0001FEF2FEF3FEF08955FE3402F51238A01A3
:1006B00020E030E0E050F04881F0E050F04C01F5EF
:1006C0004AE070E0459F502D612D409F402D510D17
:1006D000621F721F8A019B01089548E552E070E095
:1006E000519F602D509F502D610D419F500D611DF8
:1006F000721F409F402D510D621F721F8A019B0186
:100700000895402F04E1049FF001E25AFE4F228336
:1007100033830895602F012F122FE4EEF5E0262E8B
:1007200066E0629DE00DF11D0183328320E02383AA
:100730001083448324E1219FF001E25AFE4F22817D
:100740003381F90109949A938A938FDF0F3FD9F08F
:10075000802F90E026E0209FF001EC51FA4F40817D
:1007600024E1249FF001E25AFE4F22893389F901E6
:100770000995002341F001E010E00E94A900FC016E
:10078000E25AFE4F008F8991999108957A926A9268
:100790005A924A92BA93AA939A938A93280139015A
:1007A000A9E5B3E09BE18D010E94A900061501F5C2
:1007B0008D010B5F1F4F0E94A9000715C9F480E04F
:1007C000082F10E00A0F1B1F0F5F1F4F0E94A90088
:1007D00030E0F201E80FF31F1081011719F483953F
:1007E000843070F3843021F42FEF8D010E94B90022
:1007F00016969A95C1F689919991A991B9914990C6
:1008000059906990799008956A925A924A92BA934F
:10081000AA939A938A932801822F632EA9E5B3E0C5
:10082000B5DF90E08D010E94A9000F3FB9F4282F99
:100830008D010E94B9001196C20104E0402EFC0116
:100840002191CF018D010E94B90011964A94B9F708
:10085000262D8D010E94B90000E005C016969395E3
:100860009B3100F301E089919991A991B991499047
:100870005990699008955A924A92BA93AA939A937A
:100880008A93D801C901442E042D4A94002369F0AB
:100890008D010E94A900502E11968C010E94A90082
:1008A0000196501689F300E001C001E08991999109
:1008B000A991B991499059900895FA92EA92DA92E1
:1008C000CA92BA92AA929A928A927A926A925A9208
:1008D0004A92BA93AA939A938A93F02EE12E6901D1
:1008E000742E882409E5402E03E0502E5901662419
:1008F00082010E94A9000E1501F5882029F460925A
:100900000E068824839419C09924AEE0B6E0C20193
:10091000019644E06D9126E0269F9001265A3C4FB7
:100920008C01A9DF002331F49924F401E25FF94F2F
:100930006082E8CF9394981460F306E0400E00E0E4
:10094000501E63940BE1601698F2A6EBB7E00BE43F
:10095000F01621F5EC9200E0FD01018302E0602E2B
:10096000772061F0272DF60131916F0110E0FD0134
:10097000E60DF11F308363942A95A9F7FD010281EA
:1009800002600283472D4E5F9D011BE40FEF0E9422
:100990002401F50100810370013079F1882069F0AC
:1009A0008EE096E0482C472D95011F2DFC0101910A
:1009B000CF010E9424014A94B1F70BE4F016E9F448
:1009C00002E1FD01018300E0028303E0038306E00E
:1009D00004839D012B5F3F4F02EF1FE74AE0F801C0
:1009E00055918F01F90151939F014A95C1F74FE04D
:1009F0009D0111E40FEF0E94240189919991A99121
:100A0000B991499059906990799089909990A9905D
:100A1000B990C990D990E990F99008955A924A9264
:100A2000BA93AA938A930901812F2B010B3449F4BD
:100A3000FB013281242F8001AEE5B1E0ED91FC9104
:100A40002EC0033769F5FB010081033148F5012F02
:100A50000CDE0F3F29F1A4EEB5E0202F30E006E0D8
:100A6000029FA00DB11D40E020E0F2011081082F8F
:100A70002C9064E1629DF001E25AFE4F6685778515
:100A8000FB01099531E020E010E0082F6C9144E172
:100A9000469FF001E25AFE4F42855385FA010995BF
:100AA000899106CFBA92AA929A928A927A926A927F
:100AB0005A924A92BA93AA939A938A93279700914B
:100AC0005307002309F012C102E30A93BE016F5FCE
:100AD0007F4F46EB57E09E012E5F3F4F8E010D5F2B
:100AE0001F4F0E945401002309F400C1DE01139638
:100AF000ECEFFFE704E015911D930A95E1F72A81D9
:100B0000AFE6B7E049810091530710E0FD01E00F27
:100B1000F11F4083E3E5F7E00081039500838EE554
:100B200091E00A810F3FF9F52091B6070091530734
:100B3000FD01E00FF11F208344244394E3E5F7E037
:100B400000810395008308810330A0F05524F20151
:100B5000EA54F84F208100915307FD01E00FF11F87
:100B60002083E3E5F7E00081039500834394088147
:100B7000401660F309E511E00E940C1209810B3464
:100B800009F0B4C00091B80701FFB0C001E0FC015A
:100B9000078F66EB77E0FD01418110E09E012D5F3C
:100BA0003F4F0BE4A2C00E3F59F508810023A1F08E
:100BB00006EB17E02881F80131918F01409153072E
:100BC00050E0FD01E40FF51F3083E3E5F7E03081ED
:100BD000339530832A9579F74424DE011396042D4A
:100BE00010E00E5F1F4F0E94A9000D93439404E094
:100BF0004016A8F38E010D5F1F4F0E940C1276C0A5
:100C000006E0029F200109E5400E03E0501E6080CF
:100C1000062D0395008382010E94A90011E0410E78
:100C200010E0511EFD01E60DF11F0083BB24B394BB
:100C30004E0103E0800E911E0CEF602E0FE7702E28
:100C400004E0A02E82010E94A90011E0410E10E0F4
:100C5000511EF4010083F3011491011709F0BB2424
:100C600001E0600E00E0701E01E0800E00E0901ECA
:100C7000AA9441F782010E94A9002091530730E015
:100C8000FD01E20FF31F0083E3E5F7E01081139508
:100C90001083BB20E9F48E010D5F1F4F0E940C12E0
:100CA0000881002319F106EB17E02881F801319142
:100CB0008F014091530750E0FD01E40FF51F308391
:100CC000E3E5F7E03081339530832A9579F0EECF74
:100CD000FC01378F3093530766EB77E0FD014181CC
:100CE000102F9E012D5F3F4F098198DE2796899135
:100CF0009991A991B9914990599069907990899069
:100D00009990A990B9900895DA92CA92BA92AA924B
:100D10008A927A926A925A924A92BA93AA939A9330
:100D20008A93219755240CE2A02E01E0B02E01E415
:100D3000602E01E0702E88EE97E0ADE4B1E007E0B0
:100D4000C02EDD24F5010081002309F057C0860183
:100D50000E94A900402E41FA0EF050C086010F5F9C
:100D60001F4F0E94A900802E03E0801648F00FEF6D
:100D7000801611F40AE004C003E3801610F002E3C9
:100D8000802EFC011081110F110FF30120812073BF
:100D9000203369F440FA96F1188341E09E01152D45
:100DA0000BE48BDDFC0100810395008327C03C919F
:100DB000203131F440FA86F7381570F31360ECCF28
:100DC000008101FF1BC040FACEF41160412E38159E
:100DD00031F4188341E09E01152D0BE46EDD0C917A
:100DE00010E0E82DF0E033960E171F0739F4488223
:100DF00041E09E01152D0BE460DD8C92539402E0DE
:100E0000C00E00E0D01E1196019601E0600E00E0D9
:100E1000701E01E0A00E00E0B01E03E1501608F4C1
:100E200091CF219689919991A991B9914990599021
:100E3000699079908990A990B990C990D9900895B6
:100E40004A92BA93AA939A938A93D801C9010A0144
:100E5000172F1C7F3C9170FB20E0FEF070E0AC018E
:100E6000420F571F0E945B0FF001E20FF71F4081F6
:100E7000041789F42395243088F34424311711F0A2
:100E800002E0402E1C930596AC010E945B0FEDDB47
:100E9000202F083000F100E028C070E0AC01420FC4
:100EA000571F0E945B0FF001E20FF71F40810417EC
:100EB00091F72395243088F34424311711F002E090
:100EC000402EFD0110830596AC010E945B0FCDDB27
:100ED000202F083000F706E0029FF001EC51FA4F96
:100EE000038100FDD8CF01E0042989919991A9914E
:100EF000B99149900895BA93AA939A938A93ABEFC4
:100F0000B6E0FD019181092FB0DB0F3F11F400E045
:100F100030C0202F06E0029FF001EC51FA4F808193
:100F2000FD01128100914D07063038F040914D07C8
:100F300043509D012D5F3F4F03C040E020E030E073
:100F4000092F64E1689FF001E25AFE4F66857785BC
:100F5000FB01099531E020E010E0FD01018144E151
:100F6000489FF001E25AFE4F42855385FA010995E8
:100F700001E089919991A991B991089502E010E059
:100F80000E94A9000F3F41F503E010E00E94A90074
:100F90000F3F11F504E010E00E94A9000F3FE1F4BB
:100FA00005E010E00E94A9000F3FB1F401E010E05D
:100FB0000E94A9000F3F29F424E101E010E00E9403
:100FC000B90006E010E00E94A9000F3F29F42EEFBF
:100FD00006E010E00E94B9000895DA92CA92BA922F
:100FE000AA929A928A927A926A925A924A92BA9360
:100FF000AA939A938A93A497CC24DD2416E003E065
:101000000E947B130CEF1FE70E94E2130E94B313B0
:101010000E948D01B3DF0E949C020E946F000E941B
:10102000770F0E94CB000FEF13EC29E00150104026
:101030002040E1F700C000000EE5802E01E0902E78
:1010400001E0F40100A378945AC00E94600200E01D
:1010500000934D07DD2009F052C000918A01002362
:1010600009F04DC0F89401E000938A01789407E0FC
:10107000C016E8F54C2C5524A4EEB5E006E0049D1E
:10108000A00DB11DFD0101814C9124E1249FF401CB
:10109000E00DF11D20893189F9010995F401EC0D6C
:1010A000F51D008D002319F10A95008F01F509E661
:1010B000FC010083FD010281FC01018302969C0179
:1010C0000E94FC0104E0009353076624CE01062D24
:1010D00010E00E5F1F4F0E94A900FC010193CF0199
:1010E000639404E0601698F38E010E940C120E9433
:1010F0009B02C3940C2D4AE00E940E14C42E0E9441
:10110000A902002339F000DE05C0DD24789400E058
:1011100000934D07ABEFB6E0DD2039F10E945A1283
:1011200000914D070023D1F30C910A5571F30B5137
:1011300019F00550B1F0EBCF00E000934D07789423
:1011400005E000938A0102C00E945A1200918A01B0
:101150000023D1F7F894F40104891589F801099561
:10116000D6CFDD24D394F894D2CF9CDC0E945A12BF
:101170008FE697E000914D07002309F46ECFFD0143
:101180001181028198015381412E4C914B5C09F4ED
:101190008CC1465509F441C0405209F486C1425001
:1011A00009F454C0425009F49BC0465009F462C18E
:1011B000475009F44EC04A9509F499C1445009F4C6
:1011C00062C0435041F1495009F449C1455009F406
:1011D00074C0445009F407C1425009F473C043502D
:1011E00009F417C1425009F46CC1425049F04A95C4
:1011F00009F45CC0425009F4E2C0425041F025CFEE
:10120000F894F40104891589F801099520CFDD24AB
:10121000D394F8941CCF78941ACF00914D070230E4
:1012200008F415CF0C91101709F011CF789405E050
:1012300000938A0102C00E945A1200918A01002381
:10124000D1F7F894F40106891789DECF0E948C014A
:10125000FECE580166240CC085010E94A90011E051
:10126000A10E10E0B11EFC01E60DF11F0083639496
:10127000FD010381601680F30093530707E617E032
:101280000E940C12E4CE58016624FD010381601611
:1012900008F0DDCE7724E60DF71D248185010E943C
:1012A000B90001E0A00EB71C6394EFCF03E0FC018E
:1012B000008306E0018302E0DFCF02E1FC0100834E
:1012C00000E0F8CF9C0102EF1FE74AE0F8015591DA
:1012D0008F01F90151939F014A95C1F70AE0CCCFE4
:1012E0000481002309F4B3CEFE01349600E210E03D
:1012F00011930A95E1F7442455245901772428C015
:1013000085010E94A900102F01E0A00E00E0B01E90
:101310001F3FA1F001E0442D47700E940914202FC7
:10132000FE01349682011695079516950795169538
:101330000795E00FF11F0081022B00836394FD01EC
:1013400003816016E8F201E0400E00E0501E739445
:10135000FD010481701610F46624F1CF05E6FC014E
:101360000083FD010181FC010183FD010281FC017B
:101370000283FD010381FC01038366240FEF400E0D
:10138000501E56944794569447945694479482011D
:101390000F5F1F4F202F212B79F030E0FE01349694
:1013A000E60DF31F4081FC01E60DF31F44836394B7
:1013B00077246016710688F3042D0B5F5DCF0091D2
:1013C0005207002309F043CE96DD09E6FC010083B5
:1013D000FD010181FC0101839C012E5F3F4F0E94B2
:1013E000FC0104E049CF41D9402F0F3F09F42FCE33
:1013F00004EE15E026E0249F000D111DFD01238160
:101400002223F801038119F00160038320CE0E7FAF
:10141000FCCF00915207002309F019CE06E010E03E
:101420000E94A90000FB0EF412CEFD013281218141
:1014300001E417E0E9D9002309F009CE01E5FC0138
:101440000083FD010181FC010183FD010281FC019A
:10145000028303E00093530701E417E011CF2091CA
:101460005207222309F0F3CD302F212F01E417E09A
:101470008DD9EDCD00915207002311F051FFE7CD3A
:10148000F401078F352F212F01E417E040815181AE
:10149000FA01099500915207002309F0D8CD09E619
:1014A000FC010083FD01028195CF009152070023CA
:1014B00009F0CDCD352F212F8D010C5F1F4FF40189
:1014C000E5CF00915207002309F0C1CD012FCDD8FF
:1014D0000F3F09F4BCCD042DC8D8202F06E0029F91
:1014E000F001EC51FA4F038100FDB1CD6DCF09E65B
:1014F000FC01008311839C012E5F3F4F012F6FCFB2
:10150000DA92CA92BA92AA929A928A927A926A923B
:101510005A924A92BA93AA939A938A935801D22ED6
:10152000932ECC2404EF602E07E0702E8DE290E025
:1015300004E3402E5524232F21700BE0029F400C22
:10154000511CAC014C5F5F4F0E945B0F0D1509F001
:10155000B1C0AC010E945B0FF5011081011709F0C9
:10156000A9C0192D1C7FF301308190FAAC01A6F0BF
:101570004A5F5F4F0E945B0F202F217009F49AC0D1
:101580003117B1F40470A1F4AC014B5F5F4F0E94BE
:101590005B0F0E94A3038EC04F5E5F4F0E945B0FE4
:1015A000202F217009F486C0311711F4047061F303
:1015B000792D6D2DA5019C0183010E942007802EAD
:1015C000002309F477C0A2010E945E0F012BC9F429
:1015D00092012E5F3F4FA9010E945E0F012B89F4FB
:1015E00092012C5F3F4FA9010E945E0F012B49F42D
:1015F00092012A5F3F4FA9010E945E0F012B09F45F
:1016000059C0AC014B5F5F4F0E945B0F0E943503D6
:101610000F3F09F44FC0202FA6E3B6E00BE1029F75
:10162000A00DB11DB201685F7F4FAB010E945E0F3C
:10163000B801FD01158903E0109F402D8B010E9428
:10164000221407700430B0F506E0029FF001EC515F
:10165000FA4F05810F7071F5FD01028D002339F0FD
:1016600000917D01002319F4082D0E7F71F0192DD2
:101670000C2D24D28694382D292D10E0AC014B5F1F
:101680005F4F0E945B0F3BD307C0AC014B5F5F4FC6
:101690000E945B0F0E94A30300917D01002321F4AF
:1016A00000E0FD01028F06C001E0FD01028F00E0B5
:1016B00000937D01C3940CE1400E00E0501E4C9657
:1016C00001E0600E00E0701E0DE1C01608F439CF95
:1016D00089919991A991B99149905990699079907E
:1016E00089909990A990B990C990D99008953B2F6D
:1016F0004A2F202FEEE5F1E004E1019FE00DF11DFE
:101700000BEB1BE00483158304E01CE000871187CA
:101710000BE41CE0068317830FE71EE002871387A4
:1017200008EE1CE0048715870687178705EF1EE083
:10173000008B118B00E81AE00083118302E21FE0A6
:10174000028B138BE6E3F6E00BE1029FE00DF11D47
:10175000DF0110E01D930A95E1F70FEF068B078B71
:10176000008F018F048705870687078703E0058BB5
:10177000A42FB32F0895BA938A931801722F132EB2
:1017800080E02DE230E01DE1A9014C5F5F4F0E9437
:101790005B0F071769F5A9014B5F5F4F0E945B0F55
:1017A000011531F560E0B0E0A901460F5B1F0E9412
:1017B0005B0FF101E60FFB1F4081041719F46395DD
:1017C000643088F36430A1F40FEFA9014C5F5F4FE0
:1017D0000E946C0FA9014B5F5F4F0E946C0FA90123
:1017E00064E00E946C0F4F5F5F4F6A95D1F783955D
:1017F000245E3F4F1A9541F6882311F000E001C0A6
:1018000001E08991B9910895AA939A93382EB8016D
:10181000122F232EA0E08DE290E02CE12A9F900170
:1018200050E041E3400D511D0E945B0F0F3F51F00E
:101830000C01020E131EA0014B5F5F4F0E945B0F55
:101840000F3F11F400E023C0A0014C5F5F4F0E94E6
:101850005B0F0117C1F4A0014B5F5F4F0E945B0F4C
:10186000021589F420E0A001420F591F0E945B0F6E
:10187000FB01E20FF91F3081031719F4239524307F
:1018800090F32430F9F2A395AD3138F201E0832DC5
:101890009991A99108954A92BA93AA939A938A9397
:1018A000C801B22F432EA42F66DFE0E02DE230E026
:1018B0000CE10E9FB901600D711D50E041E3400D38
:1018C000511D0E945B0F0F3F41F0AB014B5F5F4F1B
:1018D0000E945B0F0F3F09F070C0AB01FC0114E0E8
:1018E00001910E946C0F4F5F5F4F1A95C9F7AB01D2
:1018F0004C5F5F4F0B2F0E946C0FAB014B5F5F4F34
:10190000042D0E946C0F00E010E09B012E5E3F4F03
:10191000A9010E94700F9B01295F3F4FA9010E94FE
:10192000700F9B012A5E3F4FA9010E94700F9B011F
:10193000255F3F4FA9010E94700F0FEF1FEF9B0122
:101940002C5E3F4FA9010E94700F9B01275F3F4F04
:10195000A9010E94700F9B01285E3F4FA9010E94C0
:10196000700F9B01235F3F4FA9010E94700FAF3F93
:1019700019F401ED10E007C0A83C19F409E412E0E5
:1019800002C00BED16E09B01265E3F4FA9010E94AD
:10199000700F9B01215F3F4FA9010E94700F01EF63
:1019A000AB014A5F5F4F0E946C0F05EF6F5E7F4F88
:1019B000AB010E946C0F00E005C0E395ED3108F427
:1019C00077CF01E089919991A991B99149900895B2
:1019D0007A926A925A924A92BA93AA939A938A9363
:1019E000912FD901842F0E943503402E07E0401625
:1019F00008F05BC006E0049DF001EC51FA4F418015
:101A00009F3F81F0E6E4F6E00BE1049DE00DF11D5F
:101A100014E004C003E001931A95D1F09923D1F3A7
:101A200001E0F9CF90E006E416E02BE1249D3801B7
:101A3000600C711C092F10E00F5F1F4F44E050E055
:101A40000E944014F30141933F019395943090F329
:101A500006E316E02BE1249D2801400C511C01EF08
:101A6000F201048B00E000830183028303830A2FC9
:101A70000B2B11F0882331F40FEF048305830683C9
:101A8000078309C00D911C910E944803F201048351
:101A900015832683378300E0008701870287038749
:101AA0000FEF048705870687078789919991A99188
:101AB000B991499059906990799008956A925A9293
:101AC0004A92BA93AA939A938A93412EA12FA17016
:101AD0008DE290E0202F0CE1029F800D911DAC0162
:101AE0004B5F5F4F0E945B0F0E943503602F0730F2
:101AF00008F0FDC006E0069FF001EC51FA4F61814D
:101B0000AA23AC0111F04F5E01C04A5F5F4F0E94F3
:101B10005B0F2BE1269FF001EA5CF94F048B0BE091
:101B20000A9F800D911DA6E3B6E00BE1069FA00D74
:101B3000B11DFD01048904FD0EC042FA05FD08C077
:101B400046F413E0709604E011930A9559F1FCCF26
:101B5000C6F711E0F7CF66242D0100E1400E561CB8
:101B60009C01215F3F4FA9010E945E0F23E0629E0E
:101B7000402D0E9422140770F2010083053050F0BE
:101B8000062D10E00F5F1F4F44E050E00E9440140C
:101B9000F2014083639401E0400E00E0501E04E037
:101BA0006016F0F29C01295F3F4FA9010E945E0F71
:101BB0000F3F2FEF120731F400E00D930D930D93BB
:101BC0000C9306C00E9448030D931D932D933C93E4
:101BD00013979C01255F3F4FA9010E945E0F0F3FA5
:101BE0002FEF120739F400E0FD010087018702871B
:101BF000038707C00E944803FD01008711872287E1
:101C000033879C01275F3F4FA9010E945E0F0E940E
:101C10004803FD01448947FD18C044815581668110
:101C20007781041715072607370778F4458941306F
:101C3000B1F45189523098F446895789608D718D7D
:101C4000401751076207730728F40483158326831E
:101C5000378311C044835583668377830CC0442344
:101C6000A1F74089423088F74481558140175107D8
:101C70006207730750F30D96AC010E945E0F0E943D
:101C80004803FD01448946FD1AC044855585668593
:101C90007785041715072607370788F445894330E9
:101CA000C1F453895230A8F0543098F446895789CA
:101CB000608D718D401751076207730728F4048700
:101CC00015872687378713C04487558766877787A8
:101CD0000EC04230A1F74289423088F3443078F791
:101CE00044855585401751076207730740F3899172
:101CF0009991A991B9914990599069900895BA9391
:101D0000AA939A938A93902FB12FA32F80E00E94D9
:101D10003503073008F064C0E4EEF5E0202F06E05C
:101D2000029FE00DF11D0281033108F059C00181CD
:101D300026E336E04BE1409F200D311DB13029F400
:101D4000F90115891395137009C0A0FB46F4F90138
:101D5000458950E0E40FF51F1089F901158BF90151
:101D60001589112339F01A9551F01A9569F01A95D1
:101D700081F017C040815181628173810EC044811E
:101D800055816681778109C040855185628573855B
:101D900004C04485558566857785468B578B608F53
:101DA000718F46895789608D718D452B462B472B46
:101DB00029F4B1E08395843008F4BACF0589013065
:101DC00011F0023011F411E001C010E0092F0E945F
:101DD000DA0100917D01002319F4092F0E94A30369
:101DE00089919991A991B9910895602FE6E3F6E060
:101DF0000BE1069FE00DF11D06891789208D318DBD
:101E00000F3F4FEF140724073407D9F0012B022BA3
:101E1000032BB9F006890150104020403040068B5A
:101E2000178B208F318F012B022B032B51F431E0C4
:101E300020E011E046E0469FF001EC51FA4F0281AC
:101E40005EDF08954FE150E0202F06E0029FF00191
:101E5000EC51FA4F018112E0019F400D511D0E948B
:101E60005B0F017008950F921F922F923F920F9374
:101E70001F932F933F934F935F936F937F93EF93B2
:101E8000FF930E945912FF91EF917F916F915F91A3
:101E90004F913F912F911F910F913F902F901F9045
:101EA0000F90E199E0CF08954F5F5F4FFADF4EBB8F
:101EB0005FBBE09A0895FADF0DB30895F7DF0DB325
:101EC000F3DF1DB308954F5F5F4F4EBB5FBBF894C8
:101ED000E29AE19A0FBE08950FB6E3DF0DBBF5CF8E
:101EE0000FB6DFDF0DBBF1DFDCDF1DBBECCF00E0A9
:101EF00000BD03E309B900E10AB906EA00BDE1E467
:101F0000F7E000E0058F028B0487048B0FEF068B50
:101F1000058B0783068305830483899A8C9A94989A
:101F200001E0028F02E003BF09B7016009BF089515
:101F3000BA93AA939A938A93A1E4B7E000E0FD01D3
:101F400004875F9902C000E062C21BB10CB114713A
:101F5000D1F712A10C3F29F4112319F401E002A3D7
:101F6000F2CF24A1239524A30D3F99F400E004A30C
:101F7000068F078F03E000A301E003A300E00383C3
:101F8000028301830C930E9456000DEF0E943400DF
:101F9000DACF0E3F19F400E003A3D5CF112319F0D7
:101FA000006810E012A313A1112369F2278D50E0FD
:101FB0002430C8F40F3F19F010A11D7F10A3ECEFDF
:101FC000FFE7E20FF51F1491011721F0FD0110A1A9
:101FD0001E7F10A3FD01E20FF51F0587FD01178D80
:101FE0001395178FD3CFA9F410A111FF03C011E0EF
:101FF000118B01C0518B038B10A1112331F4138974
:102000001770133011F053A302C011E013A315E0B1
:10201000E8CF138913FF0AC01770133039F0293045
:1020200028F4E20FF51F35970083D8CF2F3F21F01A
:102030001FEF178F01A3AACF268D30E0F901E550DD
:10204000F94F00830E943400FD01068D10E081A14C
:1020500090E0019708171907B1F400E000A30E946F
:10206000340000E00E943400E8E8F1E000811181D2
:10207000012B21F000E0FD01048766CFFD0101A1E5
:10208000048701E061CF0634A9F30395068F5BCF87
:1020900008E00AB9949A5E9A08EF0CB95E9BFECFED
:1020A00000E10AB994980895542F4A95552389F070
:1020B000F8015081F9016081561710F40FEF08956F
:1020C00051919F01F80161918F01561768F701E066
:1020D000089500E0089506C0F90151919F01F801AB
:1020E00051938F01542F4A955523B1F70895BA9310
:1020F000AA938A93A1E4B7E0FD010485002311F0BF
:1021000000E084C015DF0023D9F3FD012389022FED
:102110000770033031F500E010E01487269526950E
:102120002695239539F41BC0361751F7285003958F
:102130002223A9F0FD01E00FF11F6585ECEFFFE719
:10214000E00FF11F3491283078F70FEF48E0421B81
:102150000E941C14102F13230623101789F603E086
:1021600055C0022F01711189112329F0003141F26C
:1021700000E00487C5CF0031E1F526952370822F5A
:10218000038907FF02C00FEF058B0589021741F590
:1021900044E09D012A5D3F4F8D0186DF002301F55C
:1021A00000E0FD010487FD01058D063059F58389A6
:1021B00082958F708695837044E09D018D01065D48
:1021C0001F4F72DF0023C1F4FD01018D06950370DE
:1021D000801791F403890779013191F402E016C068
:1021E000FD01858B44E09D018D010A5D1F4F73DF6A
:1021F000DACF27792131A1F200E0FD01048706C082
:1022000001E004C01389117001E001278991A991AF
:10221000B99108950D3F21F00E3F11F00C3F61F48C
:102220001091B507112339F45D9B08C01CEF1CB950
:1022300011E01093B5070F775D9902C000E0089593
:102240000CB95E9A00E00093B50701E00895BA93D7
:10225000AA939A938A93A1E4B7E0FD01008D00232D
:10226000B1F408E00AB9949A0E945600FD01008D6D
:102270000395008F00E005A3018D077901318D01E1
:1022800011F40A5D01C0065D1F4F02871387008DA0
:10229000013049F45D9B0CC00DEF0CB902E0008FDA
:1022A0000DEF0E943400FD01008D0230D9F414C0FE
:1022B00000E0ADC08285938510E0800F911FFC0186
:1022C0000081A8DF0023A1F3FC0100810E943400FB
:1022D000FD0105A1039505A305A1043058F3008D68
:1022E0000395008F008D033059F4818D082F92DF04
:1022F0000023F1F204E0FD01008F082F0E9434005A
:10230000FD01008D0430E9F4018D03FD14C005E0EA
:10231000008F1AC0E8EFFFE710E0E00FF11F849193
:10232000082F78DF002321F2082F0E943400FD01DE
:1023300005A1039505A305A1083060F3008D039561
:10234000008F008D053091F48289018D017101317A
:1023500009F480E08E5F082F5DDF002309F4A8CF29
:1023600006E0FD01008F082F0E943400FD01008D62
:10237000063029F58289018D0171013199F480E0DF
:1023800011C010E0F801E159F84F9081092F42DFA8
:10239000002309F48DCF092F0E943400FD01078925
:1023A0000395078B0789081760F300E00E9434004B
:1023B00000E00E943400FD01008D0395008F008D28
:1023C000073079F40091890125DF002311F001E045
:1023D00001C000E0002309F46BCF08E0FD01008F8D
:1023E00002C0083051F40091880114DF002309F481
:1023F0005FCF09E0FD01008F02C0093039F45E9B18
:1024000057CF00E10AB994980AE0008F01E0899162
:102410009991A991B991089544E098010BE617E0CC
:102420005ACEBA93AA938A9380E0A1E4B7E0FD0163
:10243000878B808F44E09D012C5F3F4F8D01065DAF
:102440001F4F32DE002309F080E844E023E831E04A
:102450008D01065D1F4F28DE002391F044E09D01B1
:10246000265D3F4F8D010C5F1F4F35DEFD01048956
:102470001689101719F403950370048B0489068BD1
:10248000FD01038D033089F4048925892295207F7D
:10249000220F102F110F122B182B1861118F0330E0
:1024A00010F000E001C00395048B8991A991B991C6
:1024B00008950000BA93AA9300917E01002311F4BD
:1024C0000FEFCDC014DE033011F4E2DDF9CFA3E548
:1024D000B7E01C911B962C915D97222391F02A95D1
:1024E00011F12A9509F45EC02A9509F476C02A955F
:1024F00009F487C02A9509F451C02A9509F48BC0C4
:10250000ACC0013029F401E05D960C935D97A5C045
:10251000112309F4A2C002E05D960C93129703E028
:102520000C935B979AC05A960C915A97002309F026
:1025300094C01123E9F044E09D012A5D3F4F8D01D5
:10254000065D1F4FB1DD002399F403E05B960C9309
:10255000539767DFF89402B710E00F70000F000F79
:1025600000571E4F0D931C935496789403E00EC0B1
:1025700000E057960D930C9313970C9114960295C7
:10258000007F000F09610C93149605E00C935D9792
:102590005EDE002309F461C000E0B6CF58DE002300
:1025A000D9F75BC0013009F4AECF5A960C915A9717
:1025B000002309F052C035DF44E023E831E08D010B
:1025C000065D1F4F71DD002311F404E001C003E03C
:1025D0005D960C935D973BDE40C039DE0023E9F148
:1025E00006E05D960C935597F89402B710E00F70D3
:1025F000000F000F00571E4F0D931C9319977894EE
:102600002CC025DE002349F100E05D960C931B975A
:102610000C93529722C0F894023029F400E05296AD
:102620000C931B9617C0013031F400E052960C93C6
:102630001B9601E00FC018960D911C911997012B64
:1026400059F45B960C910A950C935B97002331F338
:1026500002E05D960C935D9778945D960C91A9913C
:10266000B9910895FA93EA932A931A930A932FB78C
:10267000E1E4F7E080990BC001E0028F02B70F712F
:10268000085D048F00E002BF08B7016008BF048D39
:102690000A95048F11F400E0028F00851185012B4B
:1026A00031F00085118501501040008711872FBF40
:1026B000099119912991E991F9911895C7980FE815
:1026C00011E001501040E9F700C00000C79A37C080
:1026D000C7980FE811E001501040E9F700C0000072
:1026E000C79A0FE811E001501040E9F700C0000060
:1026F0000895C79824C09A938A93902F812FBF9AE8
:10270000DDDF01C0E5DF092F9A950023D9F7D6DF79
:1027100001C0DEDF082F8A950023D9F7CFDFE9DF7C
:1027200007B3007807BB899199910895C6980FE87F
:1027300011E001501040E9F700C00000C69A0FE117
:1027400013E001501040E9F700C000000895C6985A
:102750000FE811E001501040E9F700C00000C69AF0
:10276000C0CFC698ECCFBA93AA939A938A9328972E
:1027700060E0702F7F70FE013796462F50E0419544
:102780005040E40FF51F708344E00E945414639599
:10279000683078F3BE9ACADFDE0188E09D9101C0FF
:1027A000D6DF092F9A950023D9F7C0DF8A95B1F7B4
:1027B000D8DF07B3007407BB289689919991A99136
:1027C000B9910895F80110E020E030E040E0059074
:1027D000002D433039F0322F212F102D00E043958A
:1027E0004430A8F308950C9486140BE20DBF01E069
:1027F0000EBFC0EFD0E00E945C14002311F00E94D5
:102800006C140E94ED070E9407140C94F3130C94AF
:10281000F3134A9512F0000FE1F708950024E8E061
:10282000EA9532F0001F001C0416D0F3041AF8CF0A
:10283000001F402D009508954A951AF0000F111FB2
:10284000FBCF08954A951AF016950795FBCF08958A
:1028500000241124EFE0001F111F001C111C04169E
:10286000150610F0041A150AEA95AAF7001F111FA1
:10287000A0010095109508955195419550400895F7
:10288000FF27552312F4F160F7DF112312F4F095BE
:1028900007D00E942814F0FD03D0F1FDEDCF08957C
:1028A00011950195104008954A952AF0369527957F
:1028B00017950795F9CF089501E0089520E006D017
:1028C000E9F70895259102D0E9F708952D93015075
:1028D0001040202F212B08958EE099E2FC010591F4
:1028E0001491FC013296A591B491FC013496259186
:1028F0003491422F432B19F0F901E4DF01C0DEDFF0
:10290000069619E28A31910748F30895FFCF2E0603
:10291000880100005C002C011A2900000000000062
:1029200000000000000001010101010101000A0096
:102930000000000000000000000000000000000097
:1029400000000000000000FFFFFFFF00000000008B
:102950000000000000000000000000000000000077
:10296000003C000000000000000000000000100813
:1029700000FFFFFFFF00FFFFFFFFFFFFFFFFFFFF65
:10298000FFFFFFFFFFFFFFFFFFFFFFFFFFFFFFFF57
:10299000FFFFFFFFFFFFFFFFFFFFFFFFFFFFFFFF47
:1029A000FFFFFFFFFFFFFFFFFFFFFFFFFFFFFFFF37
:1029B000FFFFFFFFFFFFFFFFFFFFFFFFFFFFFFFF27
:1077F0000603FFFFFFFFFFFFFFFFFFFFFFFFFFFF8E
:00000001FF
