:100000000C943113189518951895189518951895FE
:100010000C947000189518951895189518951895C2
:100020001895189518951895189518950C9403130C
:100030001895189518951895189518951895189558
:100040001895189518951895189518951895189548
:10005000189518951895189544656275672D4D6F1C
:100060006465206F6E2000FF18E0EEEFF1E0218163
:1000700027FF02C021E001C020E0322F40815181E2
:10008000440F551F4083518307FB1EF4242F21602A
:100090002083000F332339F022E030E140814227F2
:1000A0005327408351831A9501F708950FEFEEEF20
:1000B000F1E000830183089500E002BD02B500FD78
:1000C000FDCF0BE005BD02B501FDFDCF09EF03BD7E
:1000D00009B7006809BF09B70F7B09BF0895ECCFC6
:1000E000FA93EA932A931A930A932FB7E0E0F2E087
:1000F0000281016002830381039503830A3029F49E
:1001000000E003830281026002830481039504837B
:10011000043629F400E0048302810460028305812F
:1001200003950583083911F400E00583038102304B
:1001300048F410E0E00FF11F0081002319F0008166
:100140000A9500832FBF099119912991E991F9919D
:1001500018959A938A93C80102C00E942D12E199C2
:10016000FCCF9FBB8EBB01E00CBB0DB38991999175
:1001700008958A93822FEDDF081719F40AC00E94B0
:100180002D12E199FCCF8DBBF89404E00CBBE19AF1
:10019000789489910895E6E0F2E000E00483058315
:1001A000028303830EE012E00083118300E00683E4
:1001B00007830895AD01E6E0F2E0268137812C3413
:1001C000344010F000E01AC0A081B1812281338157
:1001D000A20FB31F0C93028113810F5F1F4F028385
:1001E00013830C34144018F000E00283038306816B
:1001F00017810F5F1F4F0683178301E0DA0108950F
:10020000AD01E6E0F2E006811781012B11F400E078
:1002100019C0A081B18104811581A00FB11F0C917B
:100220002481312F2F5F3F4F248335832C3434407A
:1002300018F020E024832583268137812150304027
:1002400026833783DA0108954A92BA93AA939A9340
:100250008A93B02F412EC901A42FE6E0F2E0268157
:100260003781042F10E0020F131F0D5F1F4F0D3455
:10027000144010F4A7FB16F400E010C0042F0D5F2B
:1002800099DF0B2F97DF042D95DFAA2331F0FC01B6
:100290000191CF018FDFAA95D1F701E08991999162
:1002A000A991B991499008959A928A926A925A9224
:1002B0004A92BA93AA939A938A932801C901DA01C0
:1002C0004B016984E6E0F2E006811781012B11F40D
:1002D00000E017C095DF0350F401008391DFF201C5
:1002E00000838EDFFC010083F4018081882341F0CC
:1002F000662031F085DF0D938A956A948823C1F7D3
:1003000001E089919991A991B99149905990699089
:1003100089909990219608954A92BA93AA939A93B4
:100320008A9307E010E00E94A900A02FA7FB96F493
:10033000A0E080E0EAE5F6E0019110E0482F0E949D
:100340005813A02B83958430B8F32A2F07E010E0D0
:100350000E94B90080E0EAE5F6E0B0E001E010E0DC
:10036000482F0E945813202F2A2330E020173107EE
:1003700019F401E0008301C0B08383953196843085
:1003800068F380E0AAE5B6E001E010E0482F0E94A3
:100390005813902F402E40940D91002361F43FEFAD
:1003A00020E0182F082F0E9468030AB304210ABB1B
:1003B0000BB3092B0BC0382F20E0182F082F0E94F9
:1003C00068030AB3092B0ABB0BB304210BBB83954B
:1003D0008430D0F289919991A991B9914990089569
:1003E0008F9A97982AE43BE000E00E945F0394CF45
:1003F000402F212F0430D0F450E0FA01E65AF94F93
:100400000081013099F401E010E00E9458132F3F61
:1004100019F41BB3102704C0222321F01BB3102BA7
:100420001BBB089500951BB310231BBB0895BA9303
:10043000AA93602FD90100E0F90101836430D8F557
:1004400029B301E010E0462F0E945813022311F057
:1004500008EC01C000E00C9370E0FB01E65AF94F94
:100460000081013041F5062F0E941603202F06E07F
:10047000029FF001ED52FE4F2181E6E8F6E00BE12C
:10048000029FE00DF11D0589002339F00A9551F016
:100490000A9519F00A9531F00EC0FD010181006442
:1004A000018309C006891789208D318D0F3F1F4FA9
:1004B0002F4F3F4F91F7A991B991089508955B2F60
:1004C0006A2F20E0EAE5F6E0D8010191002369F403
:1004D00039B301E010E0422F0E94581303230C911E
:1004E00011F00E7F01C001600C932395119624300A
:1004F00060F3A62FB52F089508959D01E2EBF1E07A
:10050000A6EBB1E004E010E011931D930A95D9F732
:10051000D9010895BA93AA938A93F894809102021C
:1005200000E0009302027894082F057011F400E0B7
:1005300079C0A0EBB1E08D010E5F1F4F0E945F02FA
:1005400020E00C91002369F401E00C93FD01329648
:1005500004E0108110FF02C0106C108331960A95E0
:10056000C1F710E0FD01329600810D7E0083017419
:10057000013411F0002309F42395008100FF02C02B
:10058000006401C00F7B008313953196143060F333
:100590002117C9F4FD010181002311F00A9501839F
:1005A0000181002321F63696129604E01081133063
:1005B00028F41C9117FF02C011601C931C9110FFBE
:1005C00006C0106205C00AE0FD010183B0CF1F7DA7
:1005D0001C931C911178113019F41C91106104C006
:1005E0001038D9F31C911F7E1C931C9115FF0EC06F
:1005F00014FF02C010E006C082FB46F410811F3FCA
:1006000029F0139510831C9112601C931C9115FF07
:1006100002C0106801C01F771C93119631960A958D
:1006200029F601E08991A991B991089520E046E069
:10063000429FF001E154FE4F1689101711F4022F6A
:1006400008952395243098F30FEF0895E0E0F0EC3F
:10065000F123E03020ECF20729F40FEF1FEF2FEF2A
:100660003FEF08955FE3402F51238A0120E030E0FF
:10067000E050F04881F0E050F04C01F54AE070E0C5
:10068000459F502D612D409F402D510D621F721FBF
:100690008A019B01089548E552E070E0519F602D6A
:1006A000509F502D610D419F500D611D721F409F45
:1006B000402D510D621F721F8A019B010895402F2A
:1006C00004E1049FF001E154FE4F22833383089537
:1006D000602F012F122FEFEBF1E0262E66E0629DD6
:1006E000E00DF11D058B368B20E0278B148B408F9E
:1006F00024E1219FF001E154FE4F22813381F90171
:1007000009949A938A9392DF0F3FD9F0802F90E05B
:1007100026E0209FF001E154FE4F448924E1249F0C
:10072000F001E154FE4F22893389F9010995002334
:1007300041F001E010E00E94A900FC01E154FE4FED
:1007400000AB8991999108957A926A925A924A924D
:10075000BA93AA939A938A9328013901A0E6B3E049
:100760009AE18D010E94A900061501F58D010B5F2C
:100770001F4F0E94A9000715C9F480E0082F10E060
:100780000A0F1B1F0F5F1F4F0E94A90030E0F201EC
:10079000E80FF31F1081011719F48395843070F36B
:1007A000843021F42FEF8D010E94B90016969A959E
:1007B000C1F689919991A991B991499059906990FF
:1007C000799008956A925A924A92BA93AA939A9308
:1007D0008A932801822F632EA0E6B3E0B5DF90E074
:1007E0008D010E94A9000F3FB9F4282F8D010E94AE
:1007F000B9001196C20104E0402EFC012191CF0105
:100800008D010E94B90011964A94B9F7262D8D01E9
:100810000E94B90000E005C0169693959A3100F346
:1008200001E089919991A991B99149905990699064
:1008300008955A924A92BA93AA939A938A93D801A6
:10084000C901442E042D4A94002369F08D010E94B1
:10085000A900502E11968C010E94A90001965016F5
:1008600089F300E001C001E089919991A991B991C2
:10087000499059900895FA92EA92DA92CA92BA92FD
:10088000AA929A928A927A926A925A924A92BA93C7
:10089000AA939A938A93F02EE12E6901742E8824EC
:1008A00000E6402E03E0502E5901662482010E948A
:1008B000A9000E1501F5882029F460925E068824AF
:1008C000839419C09924AEE5B6E0C201019644E0D4
:1008D0006D9126E0269F90012F593C4F8C01A9DF96
:1008E000002331F49924F401E25AF94F6082E8CFF1
:1008F0009394981460F306E0400E00E0501E639459
:100900000AE1601698F2A5EBB7E00BE4F01621F5CA
:10091000EC9200E0FD01018302E0602E772061F09F
:10092000272DF60131916F0110E0FD01E60DF11F59
:10093000308363942A95A9F7FD0102810260028346
:10094000472D4E5F9D011BE40FEF0E942401F5012E
:1009500000810370013079F1882069F08EE596E01E
:10096000482C472D95011F2DFC010191CF010E94BC
:1009700024014A94B1F70BE4F016E9F400E1FD011B
:10098000018300E0028303E0038306E004839D010A
:100990002B5F3F4F02EF1FE74AE0F80155918F01AF
:1009A000F90151939F014A95C1F74FE09D0111E470
:1009B0000FEF0E94240189919991A991B9914990D1
:1009C00059906990799089909990A990B990C9901F
:1009D000D990E990F99008955A924A92BA93AA93BD
:1009E0008A930901812F2B010B3449F4FB013281D9
:1009F000242F8001AFEBB1E0ED91FC9130C00337C3
:100A000079F5FB010081043058F5012F0FDE0F3F0F
:100A100039F1AFEBB1E0202F30E006E0029FA00DEE
:100A2000B11D40E020E0F2011081082FFD01248873
:100A300064E1629DF001E154FE4F66857785FB011C
:100A4000099531E020E010E0082FFD01648944E1C0
:100A5000469FF001E154FE4F42855385FA01099506
:100A6000899104CFBA92AA929A928A927A926A92C1
:100A70005A924A92BA93AA939A938A93279700918B
:100A80005207002309F012C102E30A93BE016F5F0F
:100A90007F4F45EB57E09E012E5F3F4F8E010D5F6C
:100AA0001F4F0E945401002309F400C1DE01139678
:100AB000ECEFFFE704E015911D930A95E1F72A8119
:100AC000AEE6B7E049810091520710E0FD01E00F6A
:100AD000F11F4083E2E5F7E00081039500838FEB8F
:100AE00091E00A810F3FF9F52091B5070091520777
:100AF000FD01E00FF11F208344244394E2E5F7E079
:100B000000810395008308810330A0F05524F20191
:100B1000EB54F84F208100915207FD01E00FF11FC7
:100B20002083E2E5F7E00081039500834394088188
:100B3000401660F30AEB11E00E94DF1109810B34CB
:100B400009F0B4C00091B70701FFB0C001E0FC019B
:100B500004AB65EB77E0FD01418110E09E012D5F64
:100B60003F4F0BE4A2C00E3F59F508810023A1F0CE
:100B700005EB17E02881F80131918F014091520770
:100B800050E0FD01E40FF51F3083E2E5F7E030812E
:100B9000339530832A9579F74424DE011396042D8A
:100BA00010E00E5F1F4F0E94A9000D93439404E0D4
:100BB0004016A8F38E010D5F1F4F0E94DF1176C013
:100BC00006E0029F200100E6400E03E0501E608018
:100BD000062D0395008382010E94A90011E0410EB9
:100BE00010E0511EFD01E60DF11F0083BB24B394FC
:100BF0004E0103E0800E911E0CEF602E0FE7702E69
:100C000004E0A02E82010E94A90011E0410E10E034
:100C1000511EF4010083F3011491011709F0BB2464
:100C200001E0600E00E0701E01E0800E00E0901E0A
:100C3000AA9441F782010E94A9002091520730E056
:100C4000FD01E20FF31F0083E2E5F7E01081139549
:100C50001083BB20E9F48E010D5F1F4F0E94DF114E
:100C60000881002319F105EB17E02881F801319183
:100C70008F014091520750E0FD01E40FF51F3083D2
:100C8000E2E5F7E03081339530832A9579F0EECFB5
:100C9000FC0134AB3093520765EB77E0FD014181F5
:100CA000102F9E012D5F3F4F098196DE2796899177
:100CB0009991A991B99149905990699079908990A9
:100CC0009990A990B9900895DA92CA92BA92AA928C
:100CD0008A927A926A925A924A92BA93AA939A9371
:100CE0008A93219755240AE5A02E06E0B02E02EB48
:100CF000602E01E0702E87EE97E0A6EBB1E008E0F1
:100D0000C02EDD24F5010081002309F057C08601C3
:100D10000E94A900402E41FA0EF050C086010F5FDC
:100D20001F4F0E94A900802E03E0801648F00FEFAD
:100D3000801611F40AE004C003E3801610F002E309
:100D4000802EFC011081110F110FF30120812073FF
:100D5000203369F440FA96F1188341E09E01152D85
:100D60000BE489DDFC0100810395008327C03C91E1
:100D7000203131F440FA86F7381570F31360ECCF68
:100D8000008101FF1BC040FACEF41160412E3815DE
:100D900031F4188341E09E01152D0BE46CDD0C91BC
:100DA00010E0E82DF0E033960E171F0739F4488263
:100DB00041E09E01152D0BE45EDD8C92539402E020
:100DC000C00E00E0D01E1196019601E0600E00E01A
:100DD000701E01E0A00E00E0B01E04E0501608F402
:100DE00091CF219689919991A991B9914990599062
:100DF000699079908990A990B990C990D9900895F7
:100E00004A92BA93AA939A938A93D801C9010A0184
:100E1000172F1C7F3C9170FB20E0FEF070E0AC01CE
:100E2000420F571F0E942E0FF001E20FF71F408163
:100E3000041789F42395243088F34424311711F0E2
:100E400002E0402E1C930596AC010E942E0FEEDBB3
:100E5000202F053000F100E028C070E0AC01420F07
:100E6000571F0E942E0FF001E20FF71F4081041759
:100E700091F72395243088F34424311711F002E0D0
:100E8000402EFD0110830596AC010E942E0FCEDB93
:100E9000202F053000F706E0029FF001E154FE4FDD
:100EA000078900FDD8CF01E0042989919991A99182
:100EB000B99149900895BA93AA939A938A93AAEF05
:100EC000B6E0FD019181092FB1DB0F3F11F400E085
:100ED00030C0202F06E0029FF001E154FE4F8489CC
:100EE000FD01128100914C07063038F040914C070B
:100EF00043509D012D5F3F4F03C040E020E030E0B4
:100F0000092F64E1689FF001E154FE4F6685778503
:100F1000FB01099531E020E010E0FD01018144E191
:100F2000489FF001E154FE4F42855385FA0109952F
:100F300001E089919991A991B991089502E010E099
:100F40000E94A9000F3F41F503E010E00E94A900B4
:100F50000F3F11F504E010E00E94A9000F3FE1F4FB
:100F600005E010E00E94A9000F3FB1F401E010E09D
:100F70000E94A9000F3F29F424E101E010E00E9443
:100F8000B90006E010E00E94A9000F3F29F42EEFFF
:100F900006E010E00E94B9000895DA92CA92BA926F
:100FA000AA929A928A927A926A925A924A92BA93A0
:100FB000AA939A938A93A497CC24DD240E94F001EB
:100FC000BDDF0E947D020E946F000E944A0F0E94B6
:100FD000CB000FEF11EE24E0015010402040E1F76C
:100FE00000C000000FEB602E01E0702E01E0F30165
:100FF00005AB789459C00E945E0200E000934C0754
:10100000DD2009F051C000910002002309F04CC01E
:10101000F89401E000930002789404E0C016E0F533
:101020004C2C552406E0049DD301A00DB11DFD01FB
:101030000589448924E1249FF301E00DF11D2089F5
:101040003189F9010995F301EC0DF51D00A9002383
:1010500019F10A9500AB01F509E6FC010083FD01D9
:101060000689FC01018302969C010E94170204E09C
:10107000009352078824CE01082D10E00E5F1F4F09
:101080000E94A900FC010193CF01839404E0801623
:1010900098F38E010E94DF110E947C02C3940C2DF4
:1010A0004AE00E944A13C42E0E948A02002339F0AB
:1010B0000BDE05C0DD24789400E000934C07AAEF16
:1010C000B6E0DD2039F10E942D1200914C0700237B
:1010D000D1F30C910A5571F30B5119F00550B1F091
:1010E000EBCF00E000934C07789405E000930002FA
:1010F00002C00E942D12009100020023D1F7F89443
:10110000F30104A515A5F8010995D6CFDD24D394E4
:10111000F894D2CFA7DC0E942D128EE697E00091C2
:101120004C07002309F46FCFFD0111810281980162
:101130005381412E4C914B5C09F48AC1465509F408
:1011400041C0405209F484C1425009F454C0425095
:1011500009F49BC0465009F460C1475009F44EC0E1
:101160004A9509F497C1445009F462C0435041F1D3
:10117000495009F447C1455009F474C0445009F47A
:1011800007C1425009F473C0435009F415C14250DD
:1011900009F46AC1425049F04A9509F45CC04250D2
:1011A00009F4E2C0425041F026CFF894F30104A5BF
:1011B00015A5F801099521CFDD24D394F8941DCF0E
:1011C00078941BCF00914C07023008F416CF0C9195
:1011D000101709F012CF789405E00093000202C0C6
:1011E0000E942D12009100020023D1F7F894F30120
:1011F00006A517A5DECF0E948C01FFCE58018824DA
:101200000CC085010E94A90011E0A10E10E0B11EE2
:10121000FC01E80DF11F00838394FD01038180161A
:1012200080F30093520706E617E00E94DF11E5CE37
:1012300058018824FD010381801608F0DECE992430
:10124000E80DF91D248185010E94B90001E0A00E7E
:10125000B91C8394EFCF03E0FC01008306E0018317
:1012600002E0DFCF00E1FC01008300E0F8CF9C0149
:1012700002EF1FE74AE0F80155918F01F901519300
:101280009F014A95C1F70AE0CCCF0481002309F4FD
:10129000B4CEFE01349600E210E011930A95E1F716
:1012A000442455245901992428C085010E94A9008D
:1012B000102F01E0A00E00E0B01E1F3FA1F001E0E2
:1012C000442D47700E944513202FFE013496820161
:1012D000169507951695079516950795E00FF11F3A
:1012E0000081022B00838394FD0103818016E8F2C4
:1012F00001E0400E00E0501E9394FD010481901621
:1013000010F48824F1CF05E6FC010083FD01018182
:10131000FC010183FD010281FC010283FD010381C7
:10132000FC01038388240FEF400E501E569447940F
:10133000569447945694479482010F5F1F4F202F75
:10134000212B79F030E0FE013496E80DF31F408147
:10135000FC01E80DF31F44838394992480169106C1
:1013600088F3042D0B5F5DCF00915107002309F036
:1013700044CEA1DD09E6FC010083FD010181FC01F1
:1013800001839C012E5F3F4F0E94170204E049CF6A
:101390004DD90F3F09F431CE26E0209F8301000D87
:1013A000111DFD0123812223F801078919F0016035
:1013B000078B23CE0E7FFCCF00915107002309F04D
:1013C0001CCE06E010E00E94A90000FB0EF415CE32
:1013D000FD013281218100E417E0F4D9002309F0F6
:1013E0000CCE01E5FC010083FD010181FC010183BC
:1013F000FD010281FC01028303E00093520700E437
:1014000017E013CF20915107222309F0F6CD302F9A
:10141000212F00E417E098D9F0CD00915107002367
:1014200011F051FFEACDF30104AB352F212F00E479
:1014300017E040815181FA0109950091510700237D
:1014400009F0DBCD09E6FC010083FD01028197CFA5
:1014500000915107002309F0D0CD352F212F8D01A8
:101460000C5F1F4FF301E5CF00915107002309F0F6
:10147000C4CD012FDBD80F3F09F4BFCD042DD6D842
:10148000202F06E0029FF301E00DF11D078900FD0A
:10149000B4CD6FCF09E6FC01008311839C012E5F60
:1014A0003F4F012F71CFDA92CA92BA92AA929A92C2
:1014B0008A927A926A925A924A92BA93AA939A9389
:1014C0008A935801D22E932ECC240BEE602E07E087
:1014D000702E88E190E00FE1402E5524232F2170DB
:1014E0000BE0029F400C511CAC014C5F5F4F0E940F
:1014F0002E0F0D1509F0B1C0AC010E942E0FF501A1
:101500001081011709F0A9C0192D1C7FF30130814A
:1015100090FAAC01A6F04A5F5F4F0E942E0F202F79
:10152000217009F49AC03117B1F40470A1F4AC0130
:101530004B5F5F4F0E942E0F0E9481038EC04F5E53
:101540005F4F0E942E0F202F217009F486C03117A3
:1015500011F4047061F3792D6D2DA5019C018301B7
:101560000E940007802E002309F477C0A2010E9488
:10157000310F012BC9F492012E5F3F4FA9010E9448
:10158000310F012B89F492012C5F3F4FA9010E947A
:10159000310F012B49F492012A5F3F4FA9010E94AC
:1015A000310F012B09F459C0AC014B5F5F4F0E9412
:1015B0002E0F0E9416030F3F09F44FC0202FA6E8FC
:1015C000B6E00BE1029FA00DB11DB201685F7F4F35
:1015D000AB010E94310FB801FD01158903E0109F96
:1015E000402D8B010E945E1307700430B0F506E0B9
:1015F000029FF001ED52FE4F05810F7071F5FD0164
:10160000028D002339F00091F301002319F4082D15
:101610000E7F71F0192D0C2D24D28694382D292D92
:1016200010E0AC014B5F5F4F0E942E0F3BD307C011
:10163000AC014B5F5F4F0E942E0F0E94810300910F
:10164000F301002321F400E0FD01028F06C001E058
:10165000FD01028F00E00093F301C3940CE1400E02
:1016600000E0501E4C9601E0600E00E0701E0EE19E
:10167000C01608F439CF89919991A991B9914990EF
:1016800059906990799089909990A990B990C99052
:10169000D99008953B2F4A2F202FEFEBF1E004E182
:1016A000019FE00DF11D0EE81BE00483158307ED9B
:1016B0001BE0008711870EE11CE00683178302E51B
:1016C0001EE0028713870BEB1CE004871587068753
:1016D000178708EC1EE0008B118B03E51AE00083EE
:1016E000118305EF1EE0028B138BE6E8F6E00BE1B9
:1016F000029FE00DF11DDF0110E01D930A95E1F757
:101700000FEF068B078B008F018F048705870687F5
:10171000078703E0058BA42FB32F0895BA938A930C
:101720001801722F132E80E028E130E01EE1A9019C
:101730004C5F5F4F0E942E0F071769F5A9014B5FA1
:101740005F4F0E942E0F011531F560E0B0E0A90156
:10175000460F5B1F0E942E0FF101E60FFB1F408119
:10176000041719F46395643088F36430A1F40FEF23
:10177000A9014C5F5F4F0E943F0FA9014B5F5F4F74
:101780000E943F0FA90164E00E943F0F4F5F5F4F2F
:101790006A95D1F78395245E3F4F1A9541F68823C9
:1017A00011F000E001C001E08991B9910895AA9378
:1017B0009A93382EB801122F232EA0E088E190E0F2
:1017C0002CE12A9F900150E04CE1400D511D0E94F8
:1017D0002E0F0F3F51F00C01020E131EA0014B5FA4
:1017E0005F4F0E942E0F0F3F11F400E023C0A001B5
:1017F0004C5F5F4F0E942E0F0117C1F4A0014B5F99
:101800005F4F0E942E0F021589F420E0A001420FC5
:10181000591F0E942E0FFB01E20FF91F30810317A1
:1018200019F42395243090F32430F9F2A395AE31C6
:1018300038F201E0832D9991A99108954A92BA93C3
:10184000AA939A938A93C801B22F432EA42F66DFDE
:10185000E0E028E130E00CE10E9FB901600D711D60
:1018600050E04CE1400D511D0E942E0F0F3F41F002
:10187000AB014B5F5F4F0E942E0F0F3F09F070C00E
:10188000AB01FC0114E001910E943F0F4F5F5F4FDD
:101890001A95C9F7AB014C5F5F4F0B2F0E943F0FAA
:1018A000AB014B5F5F4F042D0E943F0F00E010E043
:1018B0009B012E5E3F4FA9010E94430F9B01295FB0
:1018C0003F4FA9010E94430F9B012A5E3F4FA90190
:1018D0000E94430F9B01255F3F4FA9010E94430FC8
:1018E0000FEF1FEF9B012C5E3F4FA9010E94430F9A
:1018F0009B01275F3F4FA9010E94430F9B01285E78
:101900003F4FA9010E94430F9B01235F3F4FA90155
:101910000E94430FAF3F19F401ED10E007C0A83C4F
:1019200019F409E412E002C00BED16E09B01265EFB
:101930003F4FA9010E94430F9B01215F3F4FA90127
:101940000E94430F01EFAB014A5F5F4F0E943F0FC0
:1019500005EF6F5E7F4FAB010E943F0F00E005C0B7
:10196000E395EE3108F477CF01E089919991A9913F
:10197000B991499008957A926A925A924A92BA938A
:10198000AA939A938A93912FD901842F0E941603C8
:10199000402E04E0401608F05BC006E0049DF00114
:1019A000ED52FE4F41809F3F81F0E6E9F6E00BE10A
:1019B000049DE00DF11D14E004C003E001931A95AD
:1019C000D1F09923D1F301E0F9CF90E006E916E0D8
:1019D0002BE1249D3801600C711C092F10E00F5F72
:1019E0001F4F44E050E00E947C13F30141933F01FC
:1019F0009395943090F306E816E02BE1249D28019E
:101A0000400C511C01EFF201048B00E000830183C4
:101A1000028303830A2F0B2B11F0882331F40FEF7D
:101A2000048305830683078309C00D911C910E94DE
:101A30002603F201048315832683378300E00087A1
:101A40000187028703870FEF0487058706870787CB
:101A500089919991A991B9914990599069907990FA
:101A600008956A925A924A92BA93AA939A938A9341
:101A7000412EA12FA17088E190E0202F0CE1029F60
:101A8000800D911DAC014B5F5F4F0E942E0F0E9495
:101A90001603602F043008F0FDC006E0069FF00139
:101AA000ED52FE4F6181AA23AC0111F04F5E01C0DF
:101AB0004A5F5F4F0E942E0F2BE1269FF001EA57ED
:101AC000F94F048B0BE00A9F800D911DA6E8B6E04C
:101AD0000BE1069FA00DB11DFD01048904FD0EC0A0
:101AE00042FA05FD08C046F413E0709604E0119335
:101AF0000A9559F1FCCFC6F711E0F7CF66242D0106
:101B000000E1400E561C9C01215F3F4FA9010E943D
:101B1000310F23E0629E402D0E945E130770F20198
:101B20000083053050F0062D10E00F5F1F4F44E09A
:101B300050E00E947C13F2014083639401E0400E68
:101B400000E0501E04E06016F0F29C01295F3F4F58
:101B5000A9010E94310F0F3F2FEF120731F400E06F
:101B60000D930D930D930C9306C00E9426030D93C5
:101B70001D932D933C9313979C01255F3F4FA90123
:101B80000E94310F0F3F2FEF120739F400E0FD01E3
:101B9000008701870287038707C00E942603FD0193
:101BA00000871187228733879C01275F3F4FA90158
:101BB0000E94310F0E942603FD01448947FD18C091
:101BC00044815581668177810417150726073707F9
:101BD00078F445894130B1F45189523098F44689FE
:101BE0005789608D718D401751076207730728F47C
:101BF000048315832683378311C04483558366830A
:101C000077830CC04423A1F74089423088F7448190
:101C10005581401751076207730750F30D96AC01C9
:101C20000E94310F0E942603FD01448946FD1AC01F
:101C30004485558566857785041715072607370778
:101C400088F445894330C1F453895230A8F05430A8
:101C500098F446895789608D718D40175107620746
:101C6000730728F4048715872687378713C04487AE
:101C70005587668777870EC04230A1F74289423088
:101C800088F3443078F7448555854017510762073B
:101C9000730740F389919991A991B991499059900D
:101CA00069900895BA93AA939A938A93902FB12F2B
:101CB000A32F80E00E941603043008F064C0E3ED17
:101CC000F1E0202F06E0029FE00DF11D02810430BB
:101CD00008F059C0018126E836E04BE1409F200D15
:101CE000311DB13029F4F90115891395137009C01C
:101CF000A0FB46F4F901458950E0E40FF51F108977
:101D0000F901158BF9011589112339F01A9551F054
:101D10001A9569F01A9581F017C04081518162814E
:101D200073810EC0448155816681778109C04085E9
:101D300051856285738504C04485558566857785A0
:101D4000468B578B608F718F46895789608D718D57
:101D5000452B462B472B29F4B1E08395843008F4BA
:101D6000BACF0589013011F0023011F411E001C041
:101D700010E0092F0E94F8010091F301002319F4EB
:101D8000092F0E94810389919991A991B991089590
:101D9000602FE6E8F6E00BE1069FE00DF11D0689F5
:101DA0001789208D318D0F3F4FEF1407240734071B
:101DB000D9F0012B022B032BB9F0068901501040FA
:101DC00020403040068B178B208F318F012B022B48
:101DD000032B51F431E020E011E046E0469FF00192
:101DE000ED52FE4F02815EDF089540E150E0202F6A
:101DF00006E0029FF001ED52FE4F018112E0019FCB
:101E0000400D511D0E942E0F017008950F921F92D8
:101E10002F923F920F931F932F933F934F935F9374
:101E20006F937F93EF93FF930E942C12FF91EF919A
:101E30007F916F915F914F913F912F911F910F91E2
:101E40003F902F901F900F90E199E0CF08954F5F42
:101E50005F4FFADF4EBB5FBBE09A0895FADF0DB328
:101E60000895F7DF0DB3F3DF1DB308954F5F5F4FA4
:101E70004EBB5FBBF894E29AE19A0FBE08950FB68D
:101E8000E3DF0DBBF5CF0FB6DFDF0DBBF1DFDCDF2E
:101E90001DBBECCF00E000BD09E109B900E10AB9C2
:101EA00006EA00BDE0E4F7E000E0058F028B04875E
:101EB000048B0FEF068B058B078306830583048352
:101EC000899A8A9A929801E0028F02E003BF09B7CB
:101ED000016009BF0895BA93AA939A938A93A0E4E4
:101EE000B7E000E0FD0104875F9902C000E062C234
:101EF0001BB10CB11471D1F712A10C3F29F41123BD
:101F000019F401E002A3F2CF24A1239524A30D3FED
:101F100099F400E004A3068F078F03E000A301E01B
:101F200003A300E00383028301830C930E94560005
:101F30000DEF0E943400DACF0E3F19F400E003A346
:101F4000D5CF112319F0006810E012A313A11123BB
:101F500069F2278D50E02430C8F40F3F19F010A12A
:101F60001D7F10A3ECEFFFE7E20FF51F149101179F
:101F700021F0FD0110A11E7F10A3FD01E20FF51F4E
:101F80000587FD01178D1395178FD3CFA9F410A1E5
:101F900011FF03C011E0118B01C0518B038B10A105
:101FA000112331F413891770133011F053A302C0B9
:101FB00011E013A315E0E8CF138913FF0AC01770CF
:101FC000133039F0293028F4E20FF51F35970083DC
:101FD000D8CF2F3F21F01FEF178F01A3AACF268D57
:101FE00030E0F901E650F94F00830E943400FD0112
:101FF000068D10E081A190E0019708171907B1F450
:1020000000E000A30E94340000E00E943400EEEFE4
:10201000F1E000811181012B21F000E0FD01048736
:1020200066CFFD0101A1048701E061CF0634A9F369
:102030000395068F5BCF08E00AB9929A5E9A08EF83
:102040000CB95E9BFECF00E10AB992980895542F17
:102050004A95552389F0F8015081F901608156179E
:1020600010F40FEF089551919F01F80161918F01D4
:10207000561768F701E0089500E0089506C0F901D9
:1020800051919F01F80151938F01542F4A95552387
:10209000B1F70895BA93AA938A93A0E4B7E0FD013B
:1020A0000485002311F000E084C015DF0023D9F37C
:1020B000FD012389022F0770033031F500E010E0A5
:1020C0001487269526952695239539F41BC0361737
:1020D00051F7285003952223A9F0FD01E00FF11FCD
:1020E0006585ECEFFFE7E00FF11F3491283078F7BA
:1020F0000FEF48E0421B0E945813102F13230623B2
:10210000101789F603E055C0022F017111891123C0
:1021100029F0003141F200E00487C5CF0031E1F53C
:1021200026952370822F038907FF02C00FEF058BCE
:102130000589021741F544E09D012A5D3F4F8D015D
:1021400086DF002301F500E0FD010487FD01058D18
:10215000063059F5838982958F708695837044E0A7
:102160009D018D01065D1F4F72DF0023C1F4FD014B
:10217000018D06950370801791F403890779013169
:1021800091F402E016C0FD01858B44E09D018D01B4
:102190000A5D1F4F73DFDACF27792131A1F200E00A
:1021A000FD01048706C001E004C01389117001E03D
:1021B00001278991A991B99108950D3F21F00E3F12
:1021C00011F00C3F61F41091B407112339F45D9BB9
:1021D00008C01CEF1CB911E01093B4070F775D998C
:1021E00002C000E008950CB95E9A00E00093B407C5
:1021F00001E00895BA93AA939A938A93A0E4B7E072
:10220000FD01008D0023B1F408E00AB9929A0E9402
:102210005600FD01008D0395008F00E005A3018DA0
:10222000077901318D0111F40A5D01C0065D1F4F70
:1022300002871387008D013049F45D9B0CC00DEFC0
:102240000CB902E0008F0DEF0E943400FD01008DFB
:102250000230D9F414C000E0ADC08285938510E04F
:10226000800F911FFC010081A8DF0023A1F3FC0176
:1022700000810E943400FD0105A1039505A305A17D
:10228000043058F3008D0395008F008D033059F40E
:10229000818D082F92DF0023F1F204E0FD01008F11
:1022A000082F0E943400FD01008D0430E9F4018DF7
:1022B00003FD14C005E0008F1AC0E8EFFFE710E04F
:1022C000E00FF11F8491082F78DF002321F2082FFF
:1022D0000E943400FD0105A1039505A305A1083066
:1022E00060F3008D0395008F008D053091F4828995
:1022F000018D0171013109F480E08E5F082F5DDFEF
:10230000002309F4A8CF06E0FD01008F082F0E94EA
:102310003400FD01008D063029F58289018D01719F
:10232000013199F480E011C010E0F801E259F84F52
:102330009081092F42DF002309F48DCF092F0E94DD
:102340003400FD0107890395078B0789081760F39F
:1023500000E00E94340000E00E943400FD01008D86
:102360000395008F008D073079F40091FF0125DF80
:10237000002311F001E001C000E0002309F46BCF5D
:1023800008E0FD01008F02C0083051F40091FE0109
:1023900014DF002309F45FCF09E0FD01008F02C0C4
:1023A000093039F45E9B57CF00E10AB992980AE0F0
:1023B000008F01E089919991A991B991089544E024
:1023C00098010AE617E05ACEBA93AA938A9380E05E
:1023D000A0E4B7E0FD01878B808F44E09D012C5F76
:1023E0003F4F8D01065D1F4F32DE002309F080E86C
:1023F00044E029EF31E08D01065D1F4F28DE002308
:1024000091F044E09D01265D3F4F8D010C5F1F4F11
:1024100035DEFD0104891689101719F40395037040
:10242000048B0489068BFD01038D033089F4048934
:1024300025892295207F220F102F110F122B182B88
:102440001861118F033010F000E001C00395048B78
:102450008991A991B99108950000BA93AA93009126
:10246000F401002311F40FEFCBC014DE033011F49C
:10247000E2DDF9CFA2E5B7E01C911B962C915D97A8
:10248000222391F02A9511F12A9509F45DC02A952D
:1024900009F475C02A9509F485C02A9509F450C03D
:1024A0002A9509F489C0AAC0013029F401E05D969B
:1024B0000C935D97A3C0112309F4A0C002E05D96C0
:1024C0000C93129703E00C935B9798C05A960C916B
:1024D0005A97002309F092C01123E1F044E09D01D6
:1024E0002A5D3F4F8D01065D1F4FB1DD002391F442
:1024F00003E05B960C93539767DFF89402B710E004
:102500000F70000F08531F4F0D931C93549678942F
:1025100003E00EC000E057960D930C9313970C91B7
:1025200014960295007F000F09610C93149605E044
:102530000C935D975FDE002309F460C000E0B7CF25
:1025400059DE0023D9F75AC0013009F4AFCF5A96AB
:102550000C915A97002309F051C036DF44E029EF6F
:1025600031E08D01065D1F4F72DD002311F404E0A0
:1025700001C003E05D960C935D973CDE3FC03ADE00
:102580000023E1F106E05D960C935597F89402B7AD
:1025900010E00F70000F08531F4F0D931C931997F5
:1025A00078942CC027DE002349F100E05D960C935F
:1025B0001B970C93529722C0F894023029F400E044
:1025C00052960C931B9617C0013031F400E05296DE
:1025D0000C931B9601E00FC018960D911C91199752
:1025E000012B59F45B960C910A950C935B97002391
:1025F00031F302E05D960C935D9778945D960C91B3
:10260000A991B9910895FA93EA932A931A930A9398
:102610002FB7E0E4F7E080990BC001E0028F02B72A
:102620000F700C5E048F00E002BF08B7016008BFA6
:10263000048D0A95048F11F400E0028F0085118546
:10264000012B31F000851185015010400087118762
:102650002FBF099119912991E991F99118950C943D
:10266000BA130FEA0DBF01E00EBFC0E6D1E00E9431
:102670009013002311F00E94A0130E94CD070E9426
:1026800043130C942F130C942F134A9512F0000F40
:10269000E1F708950024E8E0EA9532F0001F001CFD
:1026A0000416D0F3041AF8CF001F402D00950895AA
:1026B0004A951AF0000F111FFBCF08954A951AF0A2
:1026C00016950795FBCF089500241124EFE0001F15
:1026D000111F001C111C0416150610F0041A150A0F
:1026E000EA95AAF7001F111FA00100951095089503
:1026F0005195419550400895FF27552312F4F160FC
:10270000F7DF112312F4F09507D00E946413F0FD57
:1027100003D0F1FDEDCF0895119501951040089576
:1027200001E0089520E006D0E9F70895259102D050
:10273000E9F708952D9301501040202F212B089583
:1027400086E797E2FC0105911491FC013296A59170
:10275000B491FC01349625913491422F432B19F00A
:10276000F901E4DF01C0DEDF069617E28238910747
:1027700048F30895FFCFB705FE0100004E00B001F9
:102780008227000A0000000000000000FFFFFFFF9A
:102790000000000000000000000000000000000039
:1027A0000000000000000000000000000000000029
:1027B00000000000000000000000000000003C00DD
:1027C0000000000000000000100800FFFFFFFF00F5
:1027D000FFFFFFFFFFFFFFFFFFFFFFFFFFFFFFFF09
:1027E000FFFFFFFFFFFFFFFFFFFFFFFFFFFFFFFFF9
:1027F000FFFFFFFFFFFFFFFFFFFFFFFFFFFFFFFFE9
:10280000FFFFFFFFFFFFFFFFFFFFFFFFFFFFFFFFD8
:1077F0000603FFFFFFFFFFFFFFFFFFFFFFFFFFFF8E
:00000001FF
