:100000000C94821E189518951895189518951895A2
:100010000C949A0018951895189518951895189598
:100020001895189518951895189518950C94B01D55
:100030001895189518951895189518951895189558
:100040001895189518951895189518951895189548
:10005000189518951895189544656275672D4D6F1C
:100060006465206F6E2000FF10E019C020E0322F81
:1000700040815181440F551F4083518307FB1EF47B
:10008000208121602083000F332341F022E030E102
:100090004081518142275327408351831395183063
:1000A00038F4E7E7F2E0218127FFE0CF21E0DFCF5E
:1000B00008950FEFE7E7F2E000830183089502302F
:1000C00080F4F894EDE1F2E0402F07E0049FE00DAA
:1000D000F11D00EF0223008331832F7022832383DD
:1000E0007894089500E002BD02B5102F10FDFCCFFA
:1000F0000BE005BD02B5102F11FDFCCF09EF03BDCC
:1001000009B7006809BF09B70F7B09BF0895EADF87
:1001100020E00DC0EDE1F2E007E0029FE00DF11DEF
:100120000CE010E0008311830283038323952230C7
:1001300088F30895BA93AA938A93FA93EA933A922A
:100140002A921A920A927A936A935A934A933A930A
:100150002A931A930A938FB7ADE1B2E0FD010089AB
:100160000160008B01890395018B01890A3029F414
:1001700000E0018B00890260008B02890395028BED
:100180000289043629F400E0028B00890460008BA8
:1001900003890395038B0389083911F400E0038B6D
:1001A0000189023048F410E0E00FF11F06850023BA
:1001B00019F006850A950687FD010389023038F596
:1001C000202F07E0029FE00DF11D248160817181E5
:1001D00001E010E043814D5F0E94A91E0623172312
:1001E000012B11F011E001C010E0022F0E9441022A
:1001F000FD01238907E0029FA00DB11DFD010381D0
:100200000A9503830381002311F4028103838FBFC6
:10021000099119912991399149915991699179914E
:100220000990199029903990E991F9918991A991B2
:10023000B99118959A938A93C80102C00E94E61C4E
:10024000E199FCCF9FBB8EBB01E00CBB0DB3899144
:10025000999108958A93822FEDDF081719F40AC047
:100260000E94E61CE199FCCF8DBBF89404E00CBB26
:10027000E19A789489910895E9E7F2E000E0048337
:1002800005830283038301E812E00083118300E009
:10029000068307830895AD01E9E7F2E026813781FF
:1002A0002C3414E0310710F000E01DC0A081B181B2
:1002B00022813381A20FB31F0C93028113810F5F40
:1002C0001F4F02831383028113810C3424E0120731
:1002D00018F000E002830383068117810F5F1F4F30
:1002E0000683178301E0DA010895AD01E9E7F2E042
:1002F00006811781012B11F400E01CC0A081B1819F
:1003000004811581A00FB11F0C91248135812F5FCD
:100310003F4F24833583248135812C3414E0310709
:1003200018F020E024832583268137812150304036
:1003300026833783DA0108954A92BA93AA939A934F
:100340008A93B02F412EC901A42FE9E7F2E026815C
:1003500037810A2F10E0020F131F0D5F1F4F0D345E
:1003600024E0120710F4A7FB16F400E010C00A2FD7
:100370000D5F91DF0B2F8FDF042D8DDF05C0FC019A
:100380000191CF0188DFAA95AA23C9F701E08991DD
:100390009991A991B991499008959A928A926A92F5
:1003A0005A924A92BA93AA939A938A932801C901BE
:1003B000DA014B016984E9E7F2E006811781012B3C
:1003C00011F400E016C091DF0350F40100838DDFCB
:1003D000F20100838ADFFC010083F401808104C004
:1003E00084DF0D938A956A94882311F06620C1F703
:1003F00001E089919991A991B99149905990699099
:100400008990999021960895089507B3036007BBDA
:1004100008B30C7F08BB04B30C7F04BB05B30360B7
:1004200005BB01B3006301BB02B30F7C02BB01B388
:100430000F7301BB02B3006C02BB15E000E00E9429
:10044000200516E001E00E9420052AEC3FE000E0D4
:100450000E94F70440E032E020E010E000E00E945B
:10046000030540E032E020E013E000E00E948C044D
:1004700041E032E028EC14E001E00E948C04C4DF8B
:1004800008952297402F212F423099F5213069F4A9
:10049000C19A0FE31CE901501040E9F700C00000C9
:1004A000C09A01E00093CD063DC0223059F4C198B6
:1004B0000FE31CE901501040E9F700C00000C09AAA
:1004C00002E0F0CF2F3F31F49E0102E02DD00981F0
:1004D000007351F0C0980FE31CE901501040E9F798
:1004E00000C00000C1981EC00091CD060130F9F295
:1004F000CFCF453011F04630A9F44A952F3F01E0A7
:1005000010E029F40E94A91E12B310270AC00E940D
:10051000A91E222319F012B3102B03C0009512B3A9
:10052000102312BB229608954A92BA93AA939A93E3
:100530008A932297C90110E0FC011183002339F44A
:10054000989B02C000E001C008EC0083F1C00130BC
:1005500019F49999F7CFF8CF023009F0E9C002E019
:100560000E947F04202F06E010E0029F002D110D55
:10057000F801E75AFD4F4180A6EFB6E00FE2049D77
:10058000A00DB11DFD0103A114A108831983C09919
:1005900022C008811981075E1F4F42E350E00E948C
:1005A000B51EFC0100836BE070E007E0049D600D68
:1005B000711D6E5F7F4FAB010E94B719FD0114A53D
:1005C000011710F4002319F404A507FF72C0FC0101
:1005D000018100636DC042A553A500E117E220E050
:1005E00030E02224159F200D311D149F102D210D68
:1005F000321D059F100D211D321D049F002D110D70
:10060000221D321D6BE070E047E0449D600D711DBE
:100610000801C19B27C06B5F7F4FAB010E94BA19D5
:10062000A80160E070E080010E94E91E2881398104
:100630000217130738F428813981201B310B2883D6
:10064000398303C000E00883098308811981075EAC
:100650001F4F42E350E00E94B51EFC010083018160
:10066000006226C06D5F7F4FAB010E94BA19A801DE
:1006700060E070E080010E94E91E28813981200F2E
:10068000311F2883398308811981013127E212073C
:1006900018F000E10883298308811981075E1F4F44
:1006A00042E350E00E94B51EFC010083018100611D
:1006B0000183FD0102A10023B9F10430A9F1033047
:1006C00051F444815581668177814F3F1FEF510777
:1006D0006107710749F5073051F4448555856685F2
:1006E00077854F3F1FEF510761077107E9F401302C
:1006F00011F0023051F404811581268137810F3FBA
:100700004FEF14072407340779F402A1053011F0E4
:10071000063071F404851585268537850F3F4FEF28
:1007200014072407340721F0FC01018100640183D0
:10073000229689919991A991B99149900895089526
:10074000B80120E003C0016000832395223078F4D3
:1007500030E0FB01E20FF31F33B301E010E0422F62
:100760000E94A91E0323008171F30E7FEDCF22E0CA
:1007700003C0016000832395243080F430E0FB0146
:10078000E20FF31F30B301E010E0422F4C5F0E94F4
:10079000A91E0323008169F30E7FECCF089508950D
:1007A00000E00BC0202F30E0F901EA5CFD4F308300
:1007B000F901EA5CFD4F34830395043098F3089502
:1007C000BA93AA938A93F89480912D0200E0009343
:1007D0002D027894082F057011F400E08CC0A6E378
:1007E000B2E08D010E94A00320E0FD0100850023FE
:1007F00081F401E0008700E00AC0FD01E00FF21F74
:10080000108110FF03C01081106C10830395043019
:10081000A0F300E004C010811F7B10830395043017
:10082000A0F410E0FD01E00FF11F10811D7E108388
:1008300010811174113411F0112309F423951081E2
:1008400010FFE9CF10811064E8CF201769F4FD0193
:100850000185002319F001850A9501870185002390
:1008600009F0BBCF00E008C00AE0FD010187B5CF69
:1008700010811F77108303950430E0F5002E1124BA
:10088000AD01400D511DFA016481633030F41081D7
:1008900017FF03C0108111601083108110FF03C087
:1008A0001081106202C010811F7D108310811178A9
:1008B000113019F41081106104C01038D9F310817F
:1008C0001F7E1083108115FF0FC0108114FF02C01E
:1008D000148207C082FB46F46F3F31F014811395F8
:1008E0001483108112601083108115FFC1CF108115
:1008F0001068C0CF01E08991A991B991089510E0E5
:1009000001C011E0112331F410915B021017C9F7F7
:1009100000E008950FEF08955A924A92BA93AA936D
:100920009A938A93402EB12F922F832FA42FF8945D
:1009300002E04016B8F45524082FE1DF202F06E02E
:1009400010E0029F002D110DF801EB5BFD4F518E61
:10095000E5E4F2E004E0409EE00DF11DB28F938FDC
:10096000848FA58F789489919991A991B991499093
:1009700059900895E0E0F0ECF123E03020ECF2072C
:1009800029F40FEF1FEF2FEF3FEF08954FEF5FE3D5
:10099000402351238A0120E030E0E050F04891F0FC
:1009A000E050F04C19F54AE050E060E070E0419F03
:1009B000500D611D409F402D510D621F721F8A0115
:1009C0009B01089548E552E060E070E0519F600DA2
:1009D000509F502D610D419F500D611D721F409F12
:1009E000402D510D621F721F8A019B010895402FF7
:1009F00004E110E0049F002D110DF801EB5BFD4FA9
:100A0000228333830895602F012F122FE5E4F2E053
:100A1000262E66E0629DE00DF11D058B368B20E0F1
:100A2000278B148B408F24E130E0219F202D310D46
:100A3000F901EB5BFD4F22813381F901099508959E
:100A400027E030E0209F202D310DF901E35EFD4FBE
:100A5000148308959A938A9352DF0F3F09F1802FF0
:100A600090E026E030E0209F202D310DF901EB5B76
:100A7000FD4F448924E130E0249F202D310DF90100
:100A8000EB5BFD4F22893389F9010995002341F081
:100A900001E010E00E941A01FC01EB5BFD4F06A390
:100AA0008991999108959A928A926A925A924A9259
:100AB000BA93AA939A938A93D801622E532E86E50D
:100AC00093E044241CC0839404E0801678F4082D3D
:100AD00010E0080F191F0F5F1F4F0E941A01992481
:100AE000FD01E80DF91D1081011769F304E080167E
:100AF00021F42FEF8C010E942A01069643940CE109
:100B0000401670F48C010E941A010615B1F78C0191
:100B10000B5F1F4F0E941A01051579F78824D4CF67
:100B200089919991A991B991499059906990899029
:100B3000999008956A925A924A92BA93AA939A9374
:100B40008A932801822F932FA6E5B3E0ACDF6624B9
:100B500002C0169663940CE16016F8F48D010E94B1
:100B60001A010F3FB1F7282F8D010E942A0111961B
:100B700080E00BC0082F10E0F201E00FF11F208190
:100B80008D010E942A0111968395843098F3292FB4
:100B90008D010E942A0100E001C001E08991999134
:100BA000A991B99149905990699008955A924A92A1
:100BB000BA93AA939A938A93D801C901442E042D1B
:100BC0004A94002369F08D010E941A01502E11965B
:100BD0008C010E941A010196501689F300E001C0B1
:100BE00001E089919991A991B991499059900895FD
:100BF000CA92BA92AA929A928A927A926A925A92D5
:100C00004A92BA93AA939A938A93702EC12E59014D
:100C1000542E662486E593E0450144241FC0A39525
:100C2000A615D0F444E0B0E0FD01E253F94F608135
:100C300026E030E0269F202D310D295A3C4F8C01B3
:100C40000F5F1F4FB3DF002351F7062D10E0F801AF
:100C5000E253F94F40826394069643940CE14016A8
:100C600068F48C010E941A010C15B1F7662021F47A
:100C70004092CE066624EFCFA0E0D2CFA0EEB7E040
:100C80000BE4701601F5CC9200E0FD01018302E057
:100C9000402E20E00BC0F50131915F01042D10E0E2
:100CA000FD01E00FF11F308343942395251598F340
:100CB000FD01028102600283452D4E5F9D011BE410
:100CC0000FEF0E949C010BE4701629F4F4010081DF
:100CD0000370013099F144240CC0452D9401172D67
:100CE000642D70E0FB01E253F94F00810E949C01EA
:100CF0004394461490F30BE4701601F505E1FD01F1
:100D0000018300E0028303E0038306E004834424BC
:100D10000CC0042D10E0E2EFFFE7E00FF11F24917B
:100D2000FD01E00FF11F258343940AE0401688F38C
:100D30004FE09D0111E40FEF0E949C018991999170
:100D4000A991B99149905990699079908990999019
:100D5000A990B990C99008955A924A92BA93AA93C9
:100D60009A938A93D901412E542ECB010B3481F4EE
:100D700000E0002309F043C0FC013281252D8D01E4
:100D8000E5E4F2E040815181FA01099501E0F1CFFB
:100D90000337A9F5FC010081053088F5042DAFDD8E
:100DA0000F3F69F1A5E4B2E0202F30E006E0029F9A
:100DB000A00DB11D40E020E0FC011081042DFD01DB
:100DC000248864E170E0629D602D710DFB01EB5B96
:100DD000FD4F66857785FB01099531E020E010E045
:100DE000042DFD01648944E150E0469F402D510DE2
:100DF000FA01EB5BFD4F42855385FA010995899114
:100E00009991A991B991499059900895AA929A926D
:100E10008A927A926A925A924A92BA93AA939A932F
:100E20008A93279700917D07002309F0B7C102E359
:100E30000A93BE016F5F7F4F40EE57E09E012E5F29
:100E40003F4F8E010D5F1F4F0E94CD01002309F41B
:100E5000A5C180E00DC0082F10E0ECEFFFE7E00F28
:100E6000F11F2491FE013396E00FF11F208383953B
:100E7000843088F32A81A9E9B7E0498100917D0790
:100E800010E0FD01E00FF11F4083EDE7F7E0008186
:100E90000395008305E4802E02E0902E0A810F3F27
:100EA00009F0DCC02091E00700917D07FD01E00F13
:100EB000F11F208381E0EDE7F7E0008103950083D7
:100EC00008810330A8F011C090E0FC01E052F84F17
:100ED000208100917D07FD01E00FF11F2083EDE7E8
:100EE000F7E000810395008383950881801760F304
:100EF00000E412E00E94821CAA245BC006E010E01D
:100F00000E941A0100FBD6F1F201348DFD0121810E
:100F10008E010D5F1F4F0EDE002381F504E1089F57
:100F2000C401800D911DFC014085518500E04030D9
:100F3000500721F1F201348DFD0121810BE617E00C
:100F4000FA0109950023D1F4FC016681778100E064
:100F50006030700799F0F301018D02950F7014E075
:100F6000019FF401E00DF11D438DF201348DFD016F
:100F700021818E010D5F1F4FFB010995F301018D4A
:100F800002950F7014E0019FF401E00DF11D458DF5
:100F900007E010E0049F002D110DF801E35EFD4F06
:100FA00025813681042F0E945F0000E0F301018F4C
:100FB000A39402E0A016D8F504E0A09E2401400C02
:100FC000511CF201048D9BDC202F06E0029F3401AE
:100FD000600C711CF3018489018D0F70023009F4DB
:100FE0008DCF013029F706E010E00E941A0100FBC6
:100FF0002EF2F201348DFD0121818E010D5F1F4F14
:1010000052DD04E1089FC401800D911DFC01448163
:10101000558100E04030500709F4B0CFF201348D23
:10102000FD0121818E010D5F1F4FFA01A6CF0981BD
:101030000B3409F0B3C0E0EEF7E0028101FFAEC06F
:1010400001E0E5E4F2E007A360EE77E0FD01418115
:1010500010E09E012D5F3F4F0BE49FC00A810E3FC1
:1010600069F580E011C090E0FC01E052F84F20816A
:1010700000917D07FD01E00FF11F2083EDE7F7E010
:1010800000810395008383950881801760F380E0D9
:101090000DC0A82FB0E08D010E5F1F4F0E941A01F6
:1010A000FE013396EA0FFB1F00838395843088F39B
:1010B0008E010D5F1F4F0E94821C70C006E0029FD0
:1010C000002D110D280106E5400E03E0501E809111
:1010D0007D07082F039500937D0782010E941A0166
:1010E00011E0410E10E0511EFD01E80FF11F0083D9
:1010F00091E080E016C00E941A0111E0410E10E05C
:10110000511E282FFE013396E20FF11F008300814C
:10111000ECEFFFE7E20FF11F1491011709F090E0E7
:1011200083958430820138F30E941A0120917D0753
:1011300030E0FD01E20FF31F0083EDE7F7E01081DF
:10114000139510839923D9F48E010D5F1F4F0E94D0
:10115000821C80E00881801708F590E0FC01E052D5
:10116000F84F208100917D07FD01E00FF91F2083DA
:10117000EDE7F7E00081039500838395EBCFE5E48D
:10118000F2E037A330937D0760EE77E0FD01418107
:10119000102F9E012D5F3F4F0981DEDD279689913B
:1011A0009991A991B99149905990699079908990B4
:1011B0009990A99008952197188341E09E01102FDE
:1011C0000BE416DD21960895AA928A927A926A9289
:1011D0005A924A92BA93AA939A938A93AA24AA9467
:1011E000882413C02F70213079F4F801E65CFD4F9C
:1011F0000081033348F02FEF3FEFFD01058D0E9482
:101200005F0003E0F301018F839405E0801608F08E
:1012100025C1482C5524F201EF5CFD4F00810023CD
:1012200009F068C0A82CD201AA0FBB1F8D01095F6D
:101230001F4F0E941A01902F91FB36F718968D01CF
:101240000E941A01802F833010F483E007C08F3F83
:1012500011F48AE003C0833308F082E3E6E3F2E0AE
:10126000E40DF51D20812073A2E1B8E0A40DB51DA9
:10127000203359F490FB46F21C91110F110F082DE9
:101280009ADF0C9103950C93BFCF0AE312E0040D93
:10129000151D2801203159F490FB76F7F2010081E9
:1012A000081750F31C91110F110F1360E8CF008144
:1012B00001FFAACF90FB0EF0A7CFF2010081081723
:1012C00031F41C91110F110F1160082D74DFF20120
:1012D000008110E0E82FF0E033960E171F0709F0A9
:1012E00093CF1C91110F110F1160082D64DFF201D3
:1012F00080838ACF0F3F09F087CFA39444244A9478
:1013000000E001C0039585E492E0023048F414E067
:10131000019FFC01E00DF11D128D181599F7402E6B
:1013200004E0409EDC01A00DB11DFD01048DE7DA53
:10133000402F0A2D10E0E6E3F2E0EA0DF51D2081D2
:101340002073203109F06DC026E0249F3C01600C21
:10135000711CF301218DF801E65CFD4F00810E3117
:10136000F0F52223F30181F0518EFD01058D27E078
:1013700030E0209F202D310DF901E35EFD4F2581E6
:1013800036810E945F0040CF078900FD3DCFFD01FF
:10139000048DB5DA202F30E006E0029FFC01E00D5D
:1013A000F11D248904E1029F2C01400C511C40E0F6
:1013B00020E0FD01138D048DF20164857585FB012C
:1013C000099500E0FC0107A331E020E010E0FD01F9
:1013D000048DF20142855385FA01099515CF23301A
:1013E00089F4A0E0B0E005C02FEF8D010E942A0132
:1013F0001196A03004E0B007B8F3FC0104A115A1D8
:10140000F801EBCF0F3108F4FFCE429410EF4122E8
:10141000142D0C3320F41260F301118FF5CE1160FE
:10142000FBCF208121FFF0CE26E0249F3C01600C01
:10143000711CF301218D222309F0D4CEF801E65C62
:10144000FD4F00810C3329F422E230E0FD01058DCF
:1014500098CF0E3109F0D8CE24ECF7CF899199912D
:10146000A991B99149905990699079908990A990E2
:1014700008954A92BA93AA939A938A93D801C9017C
:101480000A01372F3C7F70FB11E020E036F101C0EC
:101490002395243070F4622F70E0AC01460F571F83
:1014A0000E94B719F001E60FF71F4081041781F37E
:1014B00010E0112379F044240C91031711F002E09D
:1014C000402E3C930596AC010E94B71918DA202FE4
:1014D000023028F100E031C02395243070F4622FEF
:1014E00070E0AC01460F571F0E94B719F001E60FDC
:1014F000F71F4081041781F310E0112359F34424AE
:10150000FD010081031711F002E0402E3C93059687
:10151000AC010E94B719F3D9202F0230D8F606E0AB
:1015200010E0029F002D110DF801EB5BFD4F0789C4
:1015300000FDD0CF01E0402A042D89919991A99115
:10154000B99149900895BA93AA939A938A93A5E280
:10155000B7E0FD019181092FD2D90F3F11F400E0CE
:1015600039C0202F06E010E0029F002D110DF80178
:10157000EB5BFD4F8489FD011281009177070630F6
:1015800038F04091770743509D012D5F3F4F03C0D6
:1015900040E020E030E0092F64E170E0689F602DBA
:1015A000710DFB01EB5BFD4F66857785FB010995AE
:1015B00031E020E010E0FD01018144E150E0489F6E
:1015C000402D510DFA01EB5BFD4F42855385FA0129
:1015D000099501E089919991A991B991089502E045
:1015E00010E00E941A010F3F41F503E010E00E9455
:1015F0001A010F3F11F504E010E00E941A010F3F9D
:10160000E1F405E010E00E941A010F3FB1F401E09F
:1016100010E00E941A010F3F29F424E101E010E0DC
:101620000E942A0106E010E00E941A010F3F29F4EF
:101630002EEF06E010E00E942A010895EA92DA9265
:10164000CA92BA92AA929A928A927A926A925A927A
:101650004A92BA93AA939A938A93A497DD24EE248C
:1016600016E003E00E94FE1D0CEF1FE70E946C1EB7
:101670000E943B1E0E940502B2DF0E94D0030E941E
:1016800087000E94DC190E943C010FEF11EE24E05C
:10169000015010402040E1F700C0000005E4602E3A
:1016A00002E0702E01E0F30100A778941AC08A2DA1
:1016B00090E08C010E5F1F4F0E941A01FE01E80F9F
:1016C000F91F0083A39404E0A01688F38E010E9402
:1016D000821C0E94CF03D3940D2D4AE00E949B1ED2
:1016E000D42E0E94E003002339F06EDD05C0EE2405
:1016F000789400E000937707A5E2B7E0EE2039F197
:101700000E94E61C009177070023B1F30C910A5563
:1017100071F30B5119F00550B1F0EBCF00E00093DD
:101720007707789405E000932B0202C00E94E61C24
:1017300000912B020023D1F7F894F30102A113A129
:10174000F8010995D6CFEE24E394F894D2CF5EDB6E
:101750000E94E61C89E997E000917707002309F4CD
:10176000DFC2FD0111810281202F312F41804C9178
:101770004B5C09F49BC2465509F444C0405209F43D
:10178000FCC1425009F457C0425009F4A2C046506F
:1017900009F4C8C1465009F460C14A9509F44EC025
:1017A0004A9509F4AFC2445009F462C0435041F174
:1017B000495009F4ABC1455009F474C0445009F4D0
:1017C00011C1425009F473C0435009F420C1425082
:1017D00009F482C2425049F04A9509F45CC0425073
:1017E00009F4ECC0425041F096C2F894F30102A112
:1017F00013A1F801099591C2EE24E394F8948DC2E7
:1018000078948BC200917707023008F486C20C915D
:10181000101709F082C2789405E000932B0202C0F1
:101820000E94E61C00912B020023D1F7F894F301EB
:1018300004A115A1DECF0E9404026FC24901AA24AF
:101840000CC084010E941A0111E0810E10E0911E6B
:10185000FC01EA0DF11F0083A394FD010381A01692
:1018600080F300937D0701E917E00E94821C55C2B6
:101870004901AA24FD010381A01608F04EC2BB2431
:10188000EA0DFB1D248184010E942A0101E0800EE3
:101890009B1CA394EFCF03E0FC01008306E00183CF
:1018A00002E0DFCF05E1FC01008300E0F8CFAA24CD
:1018B0000CC00A2D10E0E2EFFFE7E00FF11F2491CA
:1018C000FC01E00FF11F2083A3940AE0A01688F327
:1018D000C8CF0481002309F420C24424552409C040
:1018E000FE013496E40DF51D008301E0400E00E09A
:1018F000501E00E2401600E0500690F344245524A8
:101900004901BB2428C084010E941A01102F01E064
:10191000800E00E0901E1F3FA1F001E0442D4770B3
:101920000E94961E202FFE0134968201169507957F
:101930001695079516950795E00FF11F0081022B6C
:101940000083A394FD010381A016E8F201E0400E9C
:1019500000E0501EB394FD010481B01610F4AA24D7
:10196000F1CF05E6FC010083FD010181FC0101834B
:10197000FD010281FC010283FD010381FC0103835F
:10198000AA240BC00A2DFE013496E00FFB1D208116
:10199000FC01E00FFB1D2483A39482010150104041
:1019A000169507951695079516950795BB24F8018A
:1019B0003196AE16BF0630F30B5F53CF00917C0714
:1019C000002309F0AAC1BFDD09E6FC010083FD0187
:1019D0000181FC0101839C012E5F3F4F0E94940214
:1019E00004E03FCF0E947F040F3F09F496C126E038
:1019F000209F8301000D111DFD0123812223F80189
:101A0000078919F00160078B88C10E7FFCCF009118
:101A10007C07002309F081C106E010E00E941A0152
:101A200000FB0EF47AC1FD01328121810BE617E043
:101A300081D8002309F071C101E5FC010083FD019B
:101A40000181FC010183FD010281FC01028303E0AD
:101A500000937D070BE617E008CFAA2402E0A0164A
:101A600008F05BC104E0A09E4301800C911CF401CE
:101A7000048D0E947F04202F06E0029F2301400C6A
:101A8000511CF201C488018D0F700230E9F506E0A7
:101A900010E00E941A0100FBEEF004E10C9DF3013E
:101AA000E00DF11D6681778100E06030700791F0F4
:101AB000F201118D12951F7004E0109FF301E00DEB
:101AC000F11D438DF401348DFD0121810BE617E0FA
:101AD000FB010995F201018D02950F7014E0019F41
:101AE000F301E00DF11D458D07E010E0049F002D8E
:101AF000110DF801E35EFD4F25813681042F0E9410
:101B00005F0000E0F201018FA394A8CF20917C0731
:101B1000222309F002C1302F212F0BE617E00E948B
:101B20005305FBC000917C07002319F0038101FDE0
:101B300005C000917C07002309F0EFC000917C07ED
:101B4000F30107A3AA240CC0FD01338121810BE618
:101B500017E0F30140815181FA010995AA24A39469
:101B6000AA2091F300917C07002309F0D6C009E672
:101B7000FC010083FD0102812CCF00917C07002332
:101B800009F494C0BB2448C0113009F044C010E0EF
:101B90000E941A0100FB2EF103E6FC010083FD0107
:101BA0000181FC010183F201048DFC01028303E049
:101BB00000937D070BE617E00E94821C04E10C9D58
:101BC000F301E00DF11D4481558100E040305007E4
:101BD00041F0F201348DFD0121810BE617E0FA019D
:101BE0000995F401018D02950F7014E0019FF30136
:101BF000E00DF11D458D07E010E0049F002D110D53
:101C0000F801E35EFD4F25813681042F0E945F00BD
:101C100000E0F401018FB39402E0B01608F046C072
:101C200004E0B09E2301400C511CF201048D0E947F
:101C30007F04202F06E0029F4301800C911CF401D9
:101C4000C488AA24A394118D1F70123009F09CCF70
:101C500010E00E941A0100FBF6F204E10C9DF30172
:101C6000E00DF11D4085518500E04030500749F0FE
:101C7000F201348DFD0121810BE617E0FA0109958F
:101C8000A02EAA2041F601E7FC010083FD0101819D
:101C9000FC010183F201048DFC01028303E0009347
:101CA0007D070BE617E00E94821CB5CF00917C07F0
:101CB000002399F5AA24AA2009F054CFFD0133810D
:101CC00021818D010C5F1F4FF30140815181FA0189
:101CD0000995AA24A394EFCF00917C070023E9F48F
:101CE000042D0E947F040F3FC1F0042D0E947F0449
:101CF000202F06E0029FF301E00DF11D078900FD92
:101D00000CC061CE09E6FC01008341829C012E5F7C
:101D10003F4F042D63CE0E949F0300E0009377079E
:101D2000EE2009F0DECC00912B02002309F0D9CC83
:101D3000F89401E000932B027894DD2009F0C9CCDF
:101D4000F3010589448924E1249FE00DF11D2089D8
:101D50003189F9010995F30106A1002309F4B9CCF1
:101D600006A10A9506A306A1002309F0B2CC09E654
:101D7000FC010083F3010689FC01018302969C01AA
:101D80000E94940204E000937D07AA249CCCBA929E
:101D9000AA929A928A927A926A925A924A92BA93A2
:101DA000AA939A938A935801922E732E882407C07F
:101DB00001E0FD0106A700E000936C02839406E1B8
:101DC000801608F0DAC0282D30E082E190E006E2CB
:101DD000029F800D911DAC014C5F5F4F0E94B719AF
:101DE000091561F7AC010E94B719F50110810117BF
:101DF00029F7E4E1F8E0E20FF31F172D1C7F70FADA
:101E0000BEF0AC014A5F5F4F0E94B719202F2170CE
:101E1000A9F22081211711F40470C9F4008101177F
:101E2000B1F40596AC010E94B7190E942A05C6CFED
:101E300076F4AC014A5E5F4F0E94B719202F2170E3
:101E400009F4BCCF2081211749F7047039F3772DAD
:101E5000692DA5019C018F010E94390A602E002383
:101E600009F4ACCF072D017010E1019F2C01400C4B
:101E7000511C9201275F3F4FA9010E94BA19012B03
:101E8000C9F49201255F3F4FA9010E94BA19012BA5
:101E900089F49201235F3F4FA9010E94BA19012BD7
:101EA00049F49201215F3F4FA9010E94BA19012B09
:101EB00009F484CFAC014B5F5F4F0E94B7190E94B9
:101EC0007F040F3F09F47ACF202FA6EFB6E00FE290
:101ED000029FA00DB11DFD0102A100FF02C060EF35
:101EE00001C06FE002A100FF03C004E0002E01C0AA
:101EF0000024A20102A1069510E0400F511F4E5E82
:101F00005F4F0E94B7190623402D0E94AF1E083074
:101F100008F054CF06E010E0029F002D110DF801EB
:101F2000E75AFD4F05810F7009F048CFFD0106A566
:101F3000002339F000916C02002319F4062D0E7F66
:101F400069F0172D082D5FD36694362D272D10E0EC
:101F50000596AC010E94B719FBD406C00596AC01EA
:101F60000E94B7190E942A0500916C02002309F013
:101F70001FCF00E0FD0106A721CF89919991A9917A
:101F8000B991499059906990799089909990A990C8
:101F9000B9900895202FE5E4F2E0402F50E004E1ED
:101FA000019FE00DF11D0BE510E10483158308EF9F
:101FB00010E10683178301EB10E10087118708EA1F
:101FC00014E1028713870EE012E10487158701EB05
:101FD00012E10687178704E119E1008B118B07ECEA
:101FE0001EE0008311830BE719E1028B138B60E085
:101FF00005C000E0E60FF01F00836395E6EFF6E012
:102000000FE2029FE00DF11D6F3298F30FEF068F84
:10201000078F00A301A3048705870687078707E0CA
:1020200002A308E813E103A314A300E804A76BE0EC
:1020300070E007E0029F600D711DAB014E5F5F4FC6
:102040000E94B7190F3F31F400E0AB014E5F5F4FC4
:102050000E94C819AB014F5F5F4F0E94B7190F3F35
:1020600031F405E0AB014F5F5F4F0E94C8199B013F
:102070002D5F3F4FA9010E94BA190F3F2FEF1207A2
:1020800041F404EF11E09B012D5F3F4FA9010E9435
:10209000CC199B012B5F3F4FA9010E94BA190F3F3A
:1020A0002FEF120739F404EF11E06B5F7F4FAB01A4
:1020B0000E94CC1908954A92AA939A938A93B801E0
:1020C000222E332E4424A0E00BC030E0AC01420F9E
:1020D000531F0E94C81923952430B8F34394A39545
:1020E000A631A8F582E190E006E20A9F800D911DDD
:1020F000AC014C5F5F4F0E94B719021581F7AC012C
:102100004B5F5F4F0E94B719031549F720E001C0EC
:102110002395243068F4022E1124AC01400D511D8A
:102120000E94B719FB01E00DF11D1081011781F329
:102130002430A9F60FEFAC014C5F5F4F0E94C81925
:10214000AC014B5F5F4F0E94C81920E0C5CF44200F
:1021500011F000E001C001E089919991A9914990A5
:102160000895AA939A93382EB801222EA0E013C0A6
:102170002395243068F4022E1124AC01400D511D2A
:102180000E94B719FB01E00DF11D1081011781F3C9
:102190002430B9F0A395A63130F582E190E006E253
:1021A0000A9F800D911DAC014C5F5F4F0E94B719D3
:1021B0000F3F39F0AC014B5F5F4F0E94B7190F3FE3
:1021C00011F400E011C0AC014C5F5F4F0E94B719E1
:1021D000021501F7AC014B5F5F4F0E94B71903175F
:1021E000C9F620E0C6CF01E0832D9991A991089509
:1021F0004A92BA93AA939A938A93C801B22F432E14
:10220000A42F59DF20E001C02395263108F0FFC03C
:1022100062E170E006E2029F600D711DAB014C5F50
:102220005F4F0E94B7190F3F39F0AB014B5F5F4F13
:102230000E94B7190F3F41F720E00CC0022E112475
:10224000FC01E00DF11D0081AB01400D511D0E940C
:10225000C8192395243090F3AB014C5F5F4F0B2FCF
:102260000E94C819AB014B5F5F4F042D0E94C81933
:1022700000E0AB01495E5F4F0E94C819AB01495FA6
:102280005F4F0E94C81908ECAB01485E5F4F0E9487
:10229000C819AB01485F5F4F0E94C81900E010E009
:1022A0009B01275E3F4FA9010E94CC199B01275F2C
:1022B0003F4FA9010E94CC199B01255E3F4FA90108
:1022C0000E94CC199B01255F3F4FA9010E94CC19A8
:1022D0000FEF1FEF9B01235E3F4FA9010E94CC1916
:1022E0009B01235F3F4FA9010E94CC199B01215EF6
:1022F0003F4FA9010E94CC199B01215F3F4FA901CB
:102300000E94CC1909EFAB014A5F5F4F0E94C819C8
:102310000DEFAB014A5E5F4F0E94C8190FEFAB0192
:102320004F5E5F4F0E94C81905E0AB014F5D5F4FE4
:102330000E94C819AF3FC1F401E3AB014E5D5F4F8E
:102340000E94C819AB014E5E5F4F0E94C81903E49A
:10235000AB014D5D5F4F0E94C819AB014D5E5F4FF1
:102360000E94C81905E73CC0AA2319F504E3AB0194
:102370004E5D5F4F0E94C819AB014E5E5F4F0E94D9
:10238000C81903E4AB014D5D5F4F0E94C819AB0152
:102390004D5E5F4F0E94C81905E6AB014C5D5F4F73
:1023A0000E94C819AB014C5E5F4F0E94C81906E439
:1023B00022C001E2AB014E5D5F4F0E94C819AB0124
:1023C0004E5E5F4F0E94C81902E0AB014D5D5F4F4A
:1023D0000E94C819AB014D5E5F4F0E94C81900E70B
:1023E000AB014C5D5F4F0E94C819AB014C5E5F4F63
:1023F0000E94C81907E0AB014B5D5F4F0E94C819EE
:102400006B5E7F4FAB010E94C81900E001C001E084
:1024100089919991A991B991499008957A926A9276
:102420005A924A92AA938A93A12F0E947F04802FE6
:10243000823008F08FC006E010E0089F002D110DDB
:10244000F801E75AFD4F8181AF3F09F444C022E310
:1024500030E02A9F202D310D06EF16E04FE2489F15
:102460002801400C511CF201218B328B238B348BC1
:10247000213107E2300730F000E117E2018B128BC7
:10248000038B148BAA2369F002E0058B03E0068B13
:10249000078B02E0008F018F07E0028F038F02E0BD
:1024A0000CC006E0058B03E0068B078B06E0008F6F
:1024B000018F07E0028F038F06E0048FA93C61F5CE
:1024C00003E002A3058B068B078B008F018F028F21
:1024D000038F048F21C006EF16E02FE2289F28010A
:1024E000400C511C00E117E2F201038B148B00E059
:1024F000018B028BA0E00EC06A2E772483010F5F50
:102500001F4F48E050E00E94CD1EF201E60DF71D7E
:10251000458BA395A83080F306EF16E02FE2289FA5
:102520002801400C511C09EFF201058F0FEF008BC1
:1025300000E0008301830283038300870187028711
:1025400003870FEF048305830683078304870587CA
:10255000068707878991A991499059906990799048
:1025600008958A93812F0E947F04023008F049C0A9
:10257000202F30E006E010E0029F002D110DF80141
:10258000E75AFD4F018122E3289F202D310DE6EF10
:10259000F6E0402F0FE2049FE00DF11D218B328BFE
:1025A000238B348B213107E2300730F000E117E252
:1025B000018B128B038B148B893C10F401E003C058
:1025C00051F403E002A3058B068B078B008F018F6C
:1025D000028F038F048F09EF058F0FEF008B00E050
:1025E00000830183028303830087018702870387B7
:1025F0000FEF048305830683078304870587068717
:102600000787899108957A926A925A924A92BA9368
:10261000AA939A938A93412EA42DA17082E190E00F
:10262000202F06E2029F800D911DAC014B5F5F4F92
:102630000E94B7190E947F04602F623008F04EC1DB
:1026400006E010E0069F002D110DF801E75AFD4F3E
:102650006181AA23AC0111F04A5E01C04A5F5F4F5D
:102660000E94B7192FE230E0269F202D310DF9018D
:10267000EA50F94F058F00E1A09F800D911DA6EF54
:10268000B6E00FE2069FA00DB11DFD01058D03FD13
:102690001BC042FA36F443FA16F400E00AC004E024
:1026A00008C002A1002321F0053010F403E001C0AE
:1026B00007E0442418E0411698F55524FD01E40D87
:1026C000F51D058B4394F6CFAC014E5E5F4F0E9423
:1026D000B719102F1F70158B02950F70068BAC0168
:1026E0004D5E5F4F0E94B719102F1F70178B029518
:1026F0000F70008FAC014C5E5F4F0E94B719102F16
:102700001F70118F02950F70028FAC014B5E5F4FEF
:102710000E94B719102F1F70138F02950F70048F2E
:10272000442412C0042D10E03D01600E711EF3011F
:102730002589293040F00F5F1F4F48E050E00E948C
:10274000CD1EF301458B439408E0401658F39C01DD
:10275000275F3F4FA9010E94BA190E94BA040D9346
:102760001D932D933C9313979C01255F3F4FA90127
:102770000E94BA190E94BA04FD01008711872287BE
:1027800033879C01235F3F4FA9010E94BA190E9421
:10279000BA04FD01458D47FD18C04481558166810D
:1027A0007781041715072607370778F442A14330CD
:1027B000B1F4508D543098F4468D578D60A171A1BD
:1027C000401751076207730728F404831583268393
:1027D00037831DC0448355836683778318C04423A1
:1027E00019F45589543050F0413019F45689543059
:1027F00028F0423051F74789443038F744815581F9
:10280000668177814017510762077307F0F29C01D8
:10281000215F3F4FA9010E94BA190E94BA04FD012D
:10282000458D46FD1AC04485558566857785041714
:1028300015072607370788F442A14730C1F4548DA5
:102840005430A8F0583098F4468D578D60A171A18E
:10285000401751076207730728F4048715872687F6
:10286000378723C044875587668777871EC04430E3
:1028700029F4518D543010F0583070F0453029F45F
:10288000528D543010F0583038F0463031F7438DC7
:10289000443018F3483008F74485558566857785B8
:1028A0004017510762077307C0F2AC01495F5F4FE1
:1028B0000E94B719202F02E3029F018A128AAC01FD
:1028C000485F5F4F0E94B719202F02E3029F038ADF
:1028D000148A4196AC010E94B719008B8991999195
:1028E000A991B99149905990699079900895AD0155
:1028F000A0E0B0E0E6EFF6E0202F0FE2029FE00D4F
:10290000F11D02A1005039F0035039F00A9541F051
:10291000035049F00AC0DF0108C0DF01149605C06A
:10292000DF01189602C0DF011C960A2F0B2B49F01D
:102930000D911D912D913C91068F178F20A331A3EE
:1029400005C000E0068F078F00A301A3DA010895F8
:10295000FA92EA92DA92CA92BA92AA929A928A92D7
:102960007A926A925A924A92BA93AA939A938A93C3
:1029700023972883902EE12EF32EAA24DD240E9493
:102980007F04802ECC24BB2402E0801608F03AC4D9
:10299000E9E5F2E006E0089DE00DF11D0281053059
:1029A00008F030C4EE2009F4C39481809E012F5FAB
:1029B0003F4F092D0E9494020A810073003209F0F2
:1029C00040C0D394A6EFB6E00FE2089DA00DB11D64
:1029D000FD0142A553A560E070E000E117E220E0B0
:1029E00030E0159F200D311D149F102D210D361F35
:1029F000059F100D211D361F049F002D110D261F50
:102A0000361F2801390120E130E007E0089D200D44
:102A1000311DA9010E94BA19A801820193010E94E7
:102A2000E91EFD0123A134A10217130738F423A1E5
:102A300034A1201B310B23A334A348C0A3A2A4A21A
:102A400044C0003109F042C002E0D02EA6EFB6E04B
:102A50000FE2089DA00DB11DFD0142A553A560E048
:102A600070E000E117E220E030E0159F200D311DFD
:102A7000149F102D210D361F059F100D211D361F8F
:102A8000049F002D110D261F361F280139012EE04D
:102A900030E007E0089D200D311DA9010E94BA1900
:102AA000A801820193010E94E91EFD0123A134A126
:102AB000200F311F23A334A303A114A1013127E266
:102AC000120720F000E103A324A3A4A6A6EFB6E01A
:102AD0000FE2089DA00DB11DEE2031F0FD0105A50E
:102AE000002311F0A4A6B394FD01A5A6772401E06C
:102AF000E01621F402A10395077007C0F0FA36F43E
:102B000002A1E00FF71D0589FD0102A322E130E0DB
:102B100006E2089D200D311D1881117000E1109F03
:102B2000200D371D4BE050E007E0089D400D511D82
:102B30002A0102A1005059F00A9571F0025039F0B3
:102B40000A9529F00A9541F0025009F06FC003A1DF
:102B500014A105A316A36AC04E5F5F4F0E94B71968
:102B600014A5011710F4002319F404A507FF0AC0E7
:102B7000CC2039F0A9014F5E5F4F0E94B7190F3F7B
:102B800009F4739412A1113069F443895489042F14
:102B9000052B21F0403107E2500721F402A10395F3
:102BA00002A344C0153049F441895289042F052BF2
:102BB000A9F3403107E2500789F3158D10731033E4
:102BC00011F4772059F3103139F401E005A700E141
:102BD00017E205A316A328C0103201E005A709F1EA
:102BE00012A1113049F443895489042F052BB1F205
:102BF000403107E2500791F2153049F4418952897A
:102C0000042F052B59F2403107E2500739F203A196
:102C100014A145A156A1400F511F413107E25007B1
:102C2000B0F600E005A306A30FEF008B02A102504F
:102C300021F0045009F480C02EC0A2014E5F5F4F06
:102C40000E94B71914A5011710F4002319F404A564
:102C500007FF0BC0CC2039F02F5E3F4FA9010E9427
:102C6000B7190F3F11F477247394058D0073003367
:102C700011F4772061F001E0B01649F0238934891E
:102C8000022F032B21F0203107E23007D9F403890A
:102C9000148905A316A305A116A123A134A1201709
:102CA000310708F0BAC092012D5F3F4FA9010E9481
:102CB000BA1920E0772009F484C0068F178F20A36B
:102CC00021A3A8C0158D1073103161F401E005A790
:102CD00000E117E205A316A302A10A9502A30FEFD4
:102CE000008BD9CF103231F401E005A700E005A335
:102CF00006A3F2CF02A10A9502A301E005A723894A
:102D00003489022F032B19F2203107E2300709F42E
:102D1000BECF03A114A125A136A1200F311F21315F
:102D200007E2300728F000E117E205A316A3D7CF8A
:102D300000E005A306A3D3CFA2014E5F5F4F0E9420
:102D4000B71914A5011710F4002319F404A507FFFF
:102D50000BC0CC2039F02F5E3F4FA9010E94B7195C
:102D60000F3F11F477247394058D0073003311F431
:102D7000772061F001E0B01649F021893289022FF5
:102D8000032B21F0203107E2300719F40189128961
:102D900080CF158D1073103109F498CF103209F4DB
:102DA000A3CF02A10A9502A301E005A721893289D8
:102DB000022F032B59F3203107E2300709F0A9CF86
:102DC000E5CF45A156A163A174A1461B570B60E056
:102DD00070E0519F600D711D509F502D610D721F4D
:102DE000419F500D611D721F409F402D510D621F6C
:102DF000721F48575C4E6F4F7F4F8A019B0140E125
:102E000057E260E070E00E94E91EFD01068F178F17
:102E100020A331A302E0602E41C063A174A1061774
:102E20001707C8F592012B5F3F4FA9010E94BA19FD
:102E300020E0772029F0068F178F20A321A328C038
:102E4000AB0165A176A1461B570B60E070E0519F76
:102E5000600D711D509F502D610D721F419F500DCF
:102E6000611D721F409F402D510D621F721F4857F8
:102E70005C4E6F4F7F4F8A019B0140E157E260E05B
:102E800070E00E94E91EFD01068F178F20A331A379
:102E90006624639403C06624082D29DDFD0112A178
:102EA000113059F0123011F4BB2039F0153029F0EF
:102EB000163009F040C0BB20F1F525A136A1022F44
:102EC000032BD9F492012B5F3F4FA9010E94BA193D
:102ED0004AE050E00E94B51E20E0FD01468D578D6E
:102EE00060A171A1400F511F621F721F468F578F43
:102EF00060A371A3662463941EC0203107E23007EB
:102F0000D1F492012D5F3F4FA9010E94BA194AE006
:102F100050E00E94B51E20E0FD01468D578D60A156
:102F200071A1400F511F621F721F468F578F60A300
:102F300071A302E0602E20892F3FB1F06620A1F03E
:102F4000772091F4022F10E020E030E0468D578D7D
:102F500060A171A1041715072607370728F4008917
:102F6000068F178F10A311A3068D178D20A131A1F5
:102F7000402F412B422B432B11F4EE24E394012BE1
:102F8000022B032B29F4A39408E0A01608F4AECD7D
:102F900060A6AA2415C00CEEFB0105834683092D0B
:102FA0000E947F04202F06E010E0029F002D110DEB
:102FB000F801E75AFD4F0581002309F44AC0A394A4
:102FC00002E0A01608F0D6C08FE592E004E0A09ED3
:102FD000800D911DFC010281091589F7FD0102A1F7
:102FE0000050B1F00A9509F465C00A9509F462C071
:102FF0000A9509F478C00A9509F496C00A9509F46F
:1030000059C00A9509F456C00A9509F497C0D7CF5C
:10301000FC010181083C69F50CEE19E0438127E0D1
:1030200030E0249F202D310DF901E35EFD4F058333
:103030001683092D0E947F04202F06E010E0029FD6
:10304000002D110DF801E75AFD4F0581002309F00D
:10305000B6CFFC01438107E010E0049F002D110D65
:10306000F801E35EFD4F25813681042F0E945F0049
:10307000A6CF002309F0A3CF08E010E0438127E0AA
:1030800030E0249F202D310DF901E35EFD4F0583D3
:103090001683092D0E947F04202F06E010E0029F76
:1030A000002D110DF801E75AFD4F0581002309F0AD
:1030B00086CFCFCF01E0601651F4FC010181083CBE
:1030C000D9F2002309F07BCF0CEF14E2D7CF02E056
:1030D000601609F074CFFC010181083CA9F30023BC
:1030E00009F06DCFC9CFFC010181083CC9F46DE145
:1030F00072E0238107E0029F600D711DFD01068DC6
:10310000178D20A131A10F3F4FEF1407240734077B
:1031100029F408EFFB0105834683BBCF0CEEFACF01
:10312000002309F04CCFA8CFFC010181083CD1F26B
:10313000002309F044CF0CEE19E0A0CFFC0101817F
:10314000083C09F499CF002309F039CF6DE172E012
:10315000238107E0029F600D711DFD01068D178D13
:1031600020A131A10F3F4FEF14072407340709F0C6
:1031700012CFCFCFDD2089F0FD0107A1002369F434
:10318000D61459F001A5061541F001E0400E00E00B
:10319000501EA2010E94B71907A3FD0107A1002339
:1031A00029F001A5601611F0662402C000E007A313
:1031B000DD20B1F06620A1F404A500780F3780F47B
:1031C00003A114A1202F212B59F0003127E212076F
:1031D00039F004A5102F107803950F77012B04A761
:1031E00000E002A703A7162D092D0E9441026620C8
:1031F00011F0FD0161A600916C02002319F4092D64
:103200000E942A05239689919991A991B991499093
:1032100059906990799089909990A990B990C990A6
:10322000D990E990F9900895BA93AA939A938A93C2
:10323000202FA9E5B2E006E0029FA00DB11D86EFA8
:1032400096E00FE2029F800D911DFC0107A1002373
:10325000C9F007A10A9507A307A1002309F046C0FA
:1032600000E002A703A710A5FD0102810E94410210
:10327000FD0102810E942A05FC0100A50023B1F195
:1032800001A734C002A513A50F3F2FEF120731F09D
:1032900002A513A50F5F1F4F02A713A7068D178D59
:1032A00020A131A10F3F4FEF140724073407F1F09D
:1032B000012B022B032BD1F0068D178D20A131A1FC
:1032C0000150104020403040068F178F20A331A3BB
:1032D000068D178D20A131A1012B022B032B31F478
:1032E00031E020E011E0FD01028132DB899199910A
:1032F000A991B99108954BE050E0202F06E010E02D
:10330000029F002D110DF801E75AFD4F218107E0C2
:10331000029F400D511D0E94B719017008950F9230
:103320001F922F923F920F931F932F933F934F9390
:103330005F936F937F93EF93FF930E94E41CFF9141
:10334000EF917F916F915F914F913F912F911F91DD
:103350000F913F902F901F900F90E199E0CF08952B
:103360004F5F5F4FFADF4EBB5FBBE09A0895FADF15
:103370000DB30895F7DF0DB3F3DF1DB308954F5F6D
:103380005F4F4EBB5FBBF894E29AE19A0FBE08957F
:103390000FB6E3DF0DBBF5CF0FB6DFDF0DBBF1DFFF
:1033A000DCDF1DBBECCF00E000BD09E109B900E1A5
:1033B0000AB906EA00BD0895F6DFEBE6F7E000E0A3
:1033C000058F028B0487048B0FEF068B058B078319
:1033D000068305830483899A8A9A929801E0028F72
:1033E00002E003BF09B7016009BF0895BA93AA9329
:1033F0009A938A93ABE6B7E000E0FD0104875F99FA
:1034000006C000E089919991A991B99108951BB1E5
:103410000CB11471B1F712A10C3F29F4112319F466
:1034200001E002A3EECF24A1239524A30D3F99F43C
:1034300000E004A3068F078F03E000A301E003A3CD
:1034400000E00383028301830C930E9459000DEF77
:103450000E943400D6CF0E3F19F400E003A3D1CF71
:10346000112319F0006810E012A313A1112349F2EF
:10347000278D50E02430C8F40F3F19F010A11D7FB4
:1034800010A3ECEFFFE7E20FF51F1491011721F0F5
:10349000FD0110A11E7F10A3FD01E20FF51F05879E
:1034A000FD01178D1395178FD3CFA9F410A111FF2C
:1034B00003C011E0118B01C0518B038B10A11123AC
:1034C00031F413891770133011F053A302C011E0C7
:1034D00013A315E0E8CF138913FF0BC013891770EE
:1034E000133039F0293028F4E20FF51F35970083A7
:1034F000D7CF2F3F21F01FEF178F01A3A9CF268D24
:1035000030E0F901EB5DF84F00830E943400FD01CB
:10351000068D10E081A190E0019708171907B1F41A
:1035200000E000A30E94340000E00E943400E7E7BE
:10353000F2E000811181012B21F000E0FD01048700
:1035400061CFFD0101A1048701E05CCF0634A9F33E
:10355000068D0395068F55CF08E00AB9929A5E9AB8
:1035600008EF0CB95E9BFECF00E10AB9929808956E
:1035700004C00F5F1F4F2F5F3F4F542F4A955523B5
:1035800079F0F8015081F9016081561710F40FEFBE
:1035900008955081F8016081561758F701E00895A9
:1035A00000E0089506C0F90151919F01F80151937F
:1035B0008F01542F4A955523B1F70895BA93AA93D2
:1035C0008A93ABE6B7E0FD010485002311F000E02B
:1035D00084C00CDF0023D9F3FD012389022F07707B
:1035E000033031F500E010E01487269526952695E6
:1035F000239504C0361759F7285003952223B1F0BC
:10360000402FFD01E40FF11F6585ECEFFFE7E40FAC
:10361000F11F3491283070F70FEF48E0421B0E94F1
:10362000A91E102F13230623101789F603E055C097
:10363000022F01711189112329F0003141F200E0BC
:103640000487C5CF0031E1F526952370822F0389C9
:1036500007FF02C00FEF058B0589021741F544E013
:103660009D012A5D3F4F8D0183DF002301F500E0BE
:10367000FD010487FD01058D063059F544E09D01EB
:103680008D01065D1F4F74DF0023E9F4FD010389FE
:10369000102F12951F7016951370218D269523708B
:1036A000121789F40779013191F402E016C0FD0187
:1036B000858B44E09D018D010A5D1F4F73DFDACFDA
:1036C00027792131A1F200E0FD01048706C001E065
:1036D00004C01389117001E001278991A991B99162
:1036E00008955D9902C000E008950CB901E00895C5
:1036F0008A93802F8D3F21F08E3F11F08C3F71F423
:103700000091DF07002349F40CEFEBDF002311F4F5
:1037100000E00DC001E00093DF078F77082FE1DFA5
:103720000023B1F35E9A00E00093DF0701E0899186
:103730000895BA93AA939A938A93ABE6B7E0FD01F2
:10374000008D0023B1F408E00AB9929A0E94590052
:10375000FD01008D0395008F00E005A3018D077921
:1037600001318D0111F40A5D01C0065D1F4F028712
:103770001387008D013061F40DEFB3DF002311F4E6
:1037800000E0BBC002E0FD01008F0DEF0E9434009D
:10379000FD01008D0230C9F412C08285938510E0CE
:1037A000800F911FFC010081A3DF002349F3FC017E
:1037B00000810E943400FD0105A1039505A305A128
:1037C000043058F3008D0395008F008D033059F4B9
:1037D000818D082F8DDF002399F204E0FD01008F19
:1037E000082F0E943400FD01008D0430E9F4018DA2
:1037F00003FD14C005E017C0E8EFFFE710E0E00F9D
:10380000F11F8491082F74DF002309F4B9CF082F2A
:103810000E943400FD0105A1039505A305A1083010
:1038200058F3008D0395008F008D053091F4828947
:10383000018D0171013109F480E08E5F082F58DF9E
:10384000002309F49DCF06E0FD01008F082F0E94A0
:103850003400FD01008D063029F58289018D01714A
:10386000013199F480E011C010E0F801E756F84FFB
:103870009081092F3DDF002309F482CF092F0E9498
:103880003400FD0107890395078B0789081760F34A
:1038900000E00E94340000E00E943400FD01008D31
:1038A0000395008F008D073081F4E7E7F2E0118186
:1038B000012F1EDF002311F001E001C000E0002312
:1038C00009F45ECF08E0FD01008F008D083051F44F
:1038D000E7E7F2E000810CDF002309F451CF09E0B3
:1038E000FD01008F008D093039F45E9B49CF00E166
:1038F0000AB992980AE0008F01E089919991A99103
:10390000B991089544E0980105E917E04BDE089568
:10391000EBE6F7E000E0078B008F05890295007F5A
:10392000000F0961018F0895BA93AA938A9380E0EA
:10393000ABE6B7E0FD01878B808F44E09D012C5FF3
:103940003F4F8D01065D1F4F13DE002309F080E815
:1039500044E022E732E08D01065D1F4F09DE0023BF
:1039600091F044E09D01265D3F4F8D010C5F1F4F9C
:1039700019DEFD0104891689101719F403950370E7
:10398000048B0489068BFD01038D033091F40489B7
:1039900025892295207F220F102F110F122B182B13
:1039A0001861118F033010F000E002C00489039504
:1039B000048B8991A991B991089502B710E00F7015
:1039C000000F08531F4F089501D00895BA93AA938A
:1039D00000916D02002311F40FEFBFC0EFDD033043
:1039E00011F4BADDF9CFABE6B7E052961C915297CD
:1039F0005D962C915D97205091F02A9519F12A95AA
:103A000009F44FC02A9509F467C02A9509F473C0D8
:103A10002A9509F442C02A9509F478C09CC0013067
:103A200029F401E05D960C935D9795C0112309F48C
:103A300092C002E05D960C935D9703E05B960C9359
:103A40005B9789C05A960C915A97002309F083C05E
:103A50001123C1F044E09D012A5D3F4F8D01065DB9
:103A60001F4F86DD002371F403E05B960C935B9798
:103A70005BDFF894A2DF18960D931C931997789446
:103A800003E002C045DF05E05D960C935D9751DED3
:103A9000002309F460C000E0C5CF4BDE0023D9F756
:103AA0005AC0013009F4BDCF5A960C915A970023A1
:103AB00009F051C039DF44E022E732E08D01065DB4
:103AC0001F4F56DD002311F404E001C003E05D96B2
:103AD0000C935D972EDE3FC02CDE0023E1F106E063
:103AE0005D960C935D97F89468DF18960D931C9380
:103AF0001997789430C01DDE002369F100E05D96CF
:103B00000C935D9752960C93529725C0F89402300F
:103B100029F400E052960C93529719C0013031F409
:103B200000E052960C93529701E011C018960D9147
:103B30001C911997012B71F45B960C910A950C93CB
:103B40005B975B960C915B97002319F302E05D96FF
:103B50000C935D9778945D960C91A991B991089515
:103B6000FA93EA932A931A930A932FB7EBE6F7E0B6
:103B700080990BC001E0028F02B70F700C5E048FBA
:103B800000E002BF08B7016008BF048D0A95048FEA
:103B900011F400E0028F00851185012B31F00085C2
:103BA000118501501040008711872FBF099119918D
:103BB0002991E991F9911895C79808EC00000A95A8
:103BC000E9F7C79A0FE811E001501040E9F700C08B
:103BD00000000895C79808EC00000A95E9F7C79A15
:103BE00008EC00000A95E9F70895C7980FE811E07E
:103BF00001501040E9F700C0000008959A938A939D
:103C0000902F812FBF9AD8DF01C0E4DF092F9A954A
:103C10000023D9F7D1DF01C0DDDF082F8A9500230B
:103C2000D9F7CADFE2DF07B3007807BB8991999122
:103C30000895C69808EC00000A95E9F7C69A0FE8BF
:103C400011E001501040E9F700C000000895C69847
:103C500008EC00000A95E9F7C69A08EC00000A95FE
:103C6000E9F70895C6980FE811E001501040E9F710
:103C700000C0000008959A938A93289780E00FC0AF
:103C8000A801642F6F70FE01482F50E0419550400D
:103C9000E40FF51F678344E00E94E11E839588309E
:103CA00078F3BE9AC6DF80E007C0D1DF092F9A956E
:103CB0000023D9F7BEDF8395883030F4FE0190E011
:103CC000E80FF91F9081F2CFCDDF07B3007407BB77
:103CD0002896899199910895F80100E010E020E07C
:103CE00030E040E006C0322F212F102F00E0319647
:103CF0004395443020F4049000294330A1F70895FF
:103D00000C94361F0CE10DBF02E00EBFC5EAD1E0F6
:103D10000E940C1F002311F00E941C1F0E941E0B0A
:103D20000E94941E0C94801E0C94801E4A9512F0E2
:103D3000000FE1F708950024E8E0EA9532F0001F53
:103D4000001C0416D0F3041AF8CF001F402D009574
:103D500008954A951AF0000F111FFBCF08954A9558
:103D60001AF015950795FBCF089500241124EFE074
:103D7000001F111F001C111C0416150610F0041A58
:103D8000150AEA95AAF7001F111FA00100951095CA
:103D900008955195419550400895FF27552312F4F9
:103DA000F160F7DF112312F4F09507D00E94B51EE1
:103DB000F0FD03D0F1FDEDCF089511950195104070
:103DC00008954A952AF03695279517950795F9CFC6
:103DD0000895002411241001E0E2EA9592F0001FFA
:103DE000111F221F331F001C111C221C331C041620
:103DF00015062606370688F3041A150A260A370A16
:103E0000ECCF001F111F221F331FA001B10100952D
:103E1000109520953095089501E0089520E006D092
:103E2000E9F70895259102D0E9F708952D930150FF
:103E30001040202F212B08958EE69EE3FC01059172
:103E40001491FC013296A591B491FC013496259110
:103E50003491422F432B19F0F901E4DF01C0DEDF7A
:103E600006961EE38A37910748F30895FFCF690548
:103E7000770200005A001D027A3E00000000000098
:103E8000000000000000000000000000020200002E
:103E900001FFFF0000000000000000000AFFFFFF1C
:103EA000FF00000000000000000000000000000013
:103EB0000000000000000000000000000000000002
:103EC00000000000003C000000000000100800FF9F
:103ED000FFFFFF00FFFFFFFFFFFFFFFFFFFFFFFFF1
:103EE000FFFFFFFFFFFFFFFFFFFFFFFFFFFFFFFFE2
:103EF000FFFFFFFFFFFFFFFFFFFFFFFFFFFFFFFFD2
:103F0000FFFFFFFFFFFFFFFFFFFFFFFFFFFFFFFFC1
:103F1000FFFFFFFFFFFFFFFFFFFFFFFFFFFFFFFFB1
:1077F0000603FFFFFFFFFFFFFFFFFFFFFFFFFFFF8E
:00000001FF
