:100000000C946717189518951895189518951895C4
:100010000C9496001895189518951895189518959C
:100020001895189518951895189518950C94B31659
:100030001895189518951895189518951895189558
:100040001895189518951895189518951895189548
:10005000189518951895189544656275672D4D6F1C
:100060006465206F6E2000FF18E0EFE7F2E0218169
:1000700027FF02C021E001C020E0322F40815181E2
:10008000440F551F4083518307FB1EF4242F21602A
:100090002083000F332339F022E030E140814227F2
:1000A0005327408351831A9501F708950FEFEFE727
:1000B000F2E0008301830895023080F4F894EDE1CA
:1000C000F2E0402F07E0049FE00DF11D00EF022356
:1000D000008331832F70228323837894089500E076
:1000E00002BD02B500FDFDCF0BE005BD02B501FD6F
:1000F000FDCF09EF03BD09B7006809BF09B70F7B42
:1001000009BF0895BA93AA93EADFEFE1F2E022E093
:100110000CE010E0DF0112970D931C930083018324
:1001200037962A95A9F7A991B9910895BA93AA93F8
:100130008A93FA93EA933A922A921A920A927A93BB
:100140006A935A934A933A932A931A930A938FB7CE
:10015000ADE1B2E0FD0100890160008B01890395EA
:10016000018B0A3029F400E0018B00890260008BCA
:1001700002890395028B043629F400E0028B008982
:100180000460008B03890395038B083911F400E0A8
:10019000038B0189023048F410E0E00FF11F06855F
:1001A000002319F006850A950687FD0103890230B0
:1001B00030F5202F07E0029FE00DF11D24816081C2
:1001C000718101E010E043814D5F0E948E1706238C
:1001D0001723012B11F011E001C010E0022F0E9443
:1001E0002A02FD01238907E0029FA00DB11DFD0138
:1001F00003810A950383002311F4028103838FBFD7
:10020000099119912991399149915991699179915E
:100210000990199029903990E991F9918991A991C2
:10022000B99118959A938A93C80102C00E94DD156E
:10023000E199FCCF9FBB8EBB01E00CBB0DB3899154
:10024000999108958A93822FEDDF081719F40AC057
:100250000E94DD15E199FCCF8DBBF89404E00CBB46
:10026000E19A789489910895E1E8F2E000E004834E
:1002700005830283038309E812E00083118300E011
:10028000068307830895AD01E1E8F2E02681378116
:100290002C34344010F000E01AC0A081B1812281DA
:1002A0003381A20FB31F0C93028113810F5F1F4F85
:1002B000028313830C34144018F000E0028303839C
:1002C000068117810F5F1F4F0683178301E0DA0154
:1002D0000895AD01E1E8F2E006811781012B11F4E8
:1002E00000E019C0A081B18104811581A00FB11F68
:1002F0000C912481312F2F5F3F4F248335832C3481
:10030000344018F020E02483258326813781215052
:10031000304026833783DA0108954A92BA93AA932C
:100320009A938A93B02F412EC901A42FE1E8F2E0FD
:1003300026813781042F10E0020F131F0D5F1F4F1E
:100340000D34144010F4A7FB16F400E010C0042F85
:100350000D5F99DF0B2F97DF042D95DFAA2331F076
:10036000FC010191CF018FDFAA95D1F701E08991BE
:100370009991A991B991499008959A928A926A9215
:100380005A924A92BA93AA939A938A932801C901DE
:10039000DA014B016984E1E8F2E006811781012B63
:1003A00011F400E017C095DF0350F401008391DFE2
:1003B000F20100838EDFFC010083F4018081882339
:1003C00041F0662031F085DF0D938A956A94882389
:1003D000C1F701E089919991A991B99149905990FA
:1003E00069908990999021960895089503E007BB3C
:1003F00000E008BB04BB03E005BB06E301BB00EC67
:1004000002BB2AE43EE000E00E94FB0316E000E0AD
:100410000E941D0417E001E00E941D0440E032E04C
:1004200020E010E000E00E94040441E033E020E01E
:1004300011E001E00E94040440E032E02FEF14E0FC
:1004400000E00E94970341E033E02FEF15E001E068
:100450000C949703402F212F023011F00330B1F498
:1004600042501F3F01E010E029F40E948E1718B39C
:10047000102706C00E948E17222321F018B3102BDC
:1004800018BB0895009518B31023FACF063011F069
:100490000730B1F442501F3F01E010E029F40E9400
:1004A0008E1712B3102706C00E948E17222321F048
:1004B00012B3102B12BB0895009512B3102312BB78
:1004C0000895BA93AA93502FD901063008F054C06A
:1004D00000E0F9010183523058F423B301E010E049
:1004E000452F0E948E17022309F044C008EC43C038
:1004F0005430B0F526B301E010E0452F42500E9481
:100500008E17022311F008EC01C000E00C93052FB8
:100510000E948703202F06E0029FF001E65AFD4F5C
:100520002181EDEFF6E00BE1029FE00DF11D058961
:10053000002339F00A9551F00A9519F00A9531F027
:100540001BC0FD0101810064018316C00689178963
:10055000208D318D0F3F1F4F2F4F3F4F91F70CC014
:1005600020B301E010E05E5F452F0E948E1702234A
:1005700009F0BCCF00E00C93A991B99108950895BA
:100580005B2F6A2FD80120E0F80133B301E010E0BF
:10059000422F0E948E170323008111F00E7F01C0AD
:1005A0000160008323953196223078F322E0129681
:1005B00030B301E010E0422F4C5F0E948E170323FE
:1005C0000C9111F00E7F01C001600C9323951196E0
:1005D000243070F3A62FB52F089508959D01E9E307
:1005E000F2E0ADE3B2E004E010E011931D930A9550
:1005F000D9F7D9010895BA93AA938A93F894809170
:100600002D0200E000932D027894082F057011F45C
:1006100000E079C0A7E3B2E08D010E5F1F4F0E949A
:10062000C00220E00C91002369F401E00C93FD016D
:10063000329604E0108110FF02C0106C10833196D6
:100640000A95C1F710E0FD01329600810D7E00830E
:100650000174013411F0002309F42395008100FF97
:1006600002C0006401C00F7B0083139531961430E3
:1006700060F32117C9F4FD010181002311F00A95EF
:1006800001830181002321F63696129604E0108141
:10069000133028F41C9117FF02C011601C931C91A9
:1006A00010FF06C0106205C00AE0FD010183B0CF53
:1006B0001F7D1C931C911178113019F41C9110614D
:1006C00004C01038D9F31C911F7E1C931C9115FF98
:1006D0000EC014FF02C010E006C082FB46F4108179
:1006E0001F3F29F0139510831C9112601C931C91DD
:1006F00015FF02C0106801C01F771C931196319638
:100700000A9529F601E08991A991B991089520E00F
:1007100046E0429FF001EA5BFD4F1689101711F485
:10072000022F08952395223098F30FEF08955A92DF
:100730004A92BA93AA939A938A93402EB12F922FFA
:10074000832FA42FF89402E04016A0F45524032F21
:10075000DEDF202F06E0029FF001EA5BFD4F518EA5
:10076000E6E4F2E004E0409EE00DF11DB0A391A3A9
:1007700082A3A3A3789489919991A991B991499061
:1007800059900895E0E0F0ECF123E03020ECF2071E
:1007900029F40FEF1FEF2FEF3FEF08955FE3402F96
:1007A00051238A0120E030E0E050F04881F0E05031
:1007B000F04C01F54AE070E0459F502D612D409FBF
:1007C000402D510D621F721F8A019B01089548E55B
:1007D00052E070E0519F602D509F502D610D419F60
:1007E000500D611D721F409F402D510D621F721FE1
:1007F0008A019B010895402F04E1049FF001EA5B08
:10080000FD4F228333830895602F012F122FE6E4DA
:10081000F2E0262E66E0629DE00DF11D058B368B21
:1008200020E0278B148B408F24E1219FF001EA5BAD
:10083000FD4F22813381F901099427E0209FF001C7
:10084000E35EFD4F148308959A938A9360DF0F3F10
:10085000D9F0802F90E026E0209FF001EA5BFD4F69
:10086000448924E1249FF001EA5BFD4F228933890A
:10087000F9010995002341F001E010E00E94120106
:10088000FC01EA5BFD4F04A78991999108957A9242
:100890006A925A924A92BA93AA939A938A93280197
:1008A0003901A7E5B3E09CE18D010E941201061514
:1008B00001F58D010B5F1F4F0E9412010715C9F44E
:1008C00080E0082F10E00A0F1B1F0F5F1F4F0E94D0
:1008D000120130E0F201E80FF31F1081011719F443
:1008E0008395843070F3843021F42FEF8D010E94C2
:1008F000220116969A95C1F689919991A991B9917B
:10090000499059906990799008956A925A924A92C2
:10091000BA93AA939A938A932801822F632EA7E50C
:10092000B3E0B5DF90E08D010E9412010F3FB9F4F2
:10093000282F8D010E9422011196C20104E0402E51
:10094000FC012191CF018D010E94220111964A9450
:10095000B9F7262D8D010E94220100E005C01696F0
:1009600093959C3100F301E089919991A991B991F6
:1009700049905990699008955A924A92BA93AA93CD
:100980009A938A93D801C901442E042D4A940023D6
:1009900069F08D010E941201502E11968C010E9467
:1009A00012010196501689F300E001C001E0E3CE88
:1009B000FA92EA92DA92CA92BA92AA929A928A9297
:1009C0007A926A925A924A92BA93AA939A938A9383
:1009D000F02EE12E6901742E882407E5402E03E0F5
:1009E000502E5901662482010E9412010E1501F554
:1009F000882029F46092D5068824839419C099240C
:100A0000A5EDB6E0C201019644E06D9126E0269F77
:100A10009001285A3C4F8C01AFDF002331F4992418
:100A2000F401EB52F94F6082E8CF9394981460F38D
:100A300006E0400E00E0501E63940CE1601698F250
:100A4000A6EFB7E00BE4F01621F5EC9200E0FD0113
:100A5000018302E0602E772061F0272DF6013191AD
:100A60006F0110E0FD01E60DF11F308363942A95BC
:100A7000A9F7FD01028102600283472D4E5F9D01AF
:100A80001BE40FEF0E948D01F5010081037001301E
:100A900079F1882069F085ED96E0482C472D950185
:100AA0001F2DFC010191CF010E948D014A94B1F7E5
:100AB0000BE4F016E9F401E1FD01018300E002839B
:100AC00003E0038306E004839D012B5F3F4F02EFA9
:100AD0001FE74AE0F80155918F01F90151939F01F9
:100AE0004A95C1F74FE09D0111E40FEF0E948D017F
:100AF00089919991A991B99149905990699079906A
:100B000089909990A990B990C990D990E990F9905D
:100B10000895FDCD5A924A92BA93AA938A930901F5
:100B2000812F2B010B3449F4FB013281242F8001EA
:100B3000A6E4B2E0ED91FC9130C0033779F5FB01FA
:100B40000081063058F5012FE2DD0F3F39F1A6E4B0
:100B5000B2E0202F30E006E0029FA00DB11D40E082
:100B600020E0F2011081082FFD01248864E1629DDC
:100B7000F001EA5BFD4F66857785FB01099531E061
:100B800020E010E0082FFD01648944E1469FF00158
:100B9000EA5BFD4F42855385FA0109958991EDCDB8
:100BA000BA92AA929A928A927A926A925A924A92A5
:100BB000BA93AA939A938A93279700919307002355
:100BC00009F0A9C102E30A93BE016F5F7F4F46EFB0
:100BD00057E09E012E5F3F4F8E010D5F1F4F0E9419
:100BE000BD01002309F497C1DE011396ECEFFFE786
:100BF00004E015911D930A95E1F72A81AFEAB7E069
:100C000049810091930710E0FD01E00FF11F40833F
:100C1000E3E9F7E000810395008306E4602E02E03B
:100C2000702E0A810F3F09F0DAC02091F60700917B
:100C30009307FD01E00FF11F208381E0E3E9F7E076
:100C400000810395008308810330A0F090E0FC014F
:100C5000EA50F84F208100919307FD01E00FF11F4A
:100C60002083E3E9F7E00081039500838395088101
:100C7000801760F301E412E00E948F15430102E245
:100C8000800E00E0901E02E0A02EF40100813FDD06
:100C9000202F06E0029F2301400C511CF2018489A1
:100CA000018D0F70023009F074C006E010E00E9460
:100CB000120100FBD6F1F4013081FD0121818E018A
:100CC0000D5F1F4F22DE002381F504E1089FC30161
:100CD000800D911DFC014085518500E0403050079A
:100CE00021F1F4013081FD01218101E817E0FA01D1
:100CF00009950023D1F4FC016681778100E0603022
:100D0000700799F0F201018D02950F7014E0019FB8
:100D1000F301E00DF11D41A1F4013081FD012181BC
:100D20008E010D5F1F4FFB010995F201018D0295A8
:100D30000F7014E0019FF301E00DF11D43A107E0E6
:100D4000049FF001E35EFD4F25813681042F0E9450
:100D50005C0000E0F201018F04E0800E00E0901ED4
:100D6000AA9409F092CF09810B3409F0D4C0009104
:100D7000F80701FFD0C001E0E6E4F2E006A766EF65
:100D800077E0FD01418110E09E012D5F3F4F0BE4B4
:100D9000C1C0013009F706E010E00E94120100FB1B
:100DA00026F2F4013081FD0121818E010D5F1F4F7C
:100DB0006EDD04E1089FC301800D911DFC0144819B
:100DC000558100E04030500709F4AFCFF401308185
:100DD000FD0121818E010D5F1F4FFA01A5CF0E3F4E
:100DE00051F508810023A1F006EF17E02881F801F2
:100DF00031918F014091930750E0FD01E40FF51F01
:100E00003083E3E9F7E03081339530832A9579F731
:100E100080E0DE011396082F10E00E5F1F4F0E9446
:100E200012010D9383958430B0F38E010D5F1F4F37
:100E30000E948F1570C086E0829FC001895A9C4F26
:100E40004080042D039500838C010E9412010196BD
:100E50005524FD01E40DF51D0083BB24B3944E0120
:100E600003E0800E951C0CEF402E0FE7502E04E09F
:100E7000A02E8C010E9412010196F4010083F20160
:100E80001491011709F0BB2401E0400E00E0501E50
:100E900001E0800E00E0901EAA9459F78C010E9498
:100EA00012012091930730E0FD01E20FF31F008350
:100EB000E3E9F7E0108113951083BB20E9F48E017C
:100EC0000D5F1F4F0E948F150881002321F106EF4F
:100ED00017E02881F80131918F014091930750E08C
:100EE000FD01E40FF51F3083E3E9F7E0308133952E
:100EF00030832A9581F0EECFE6E4F2E036A7309316
:100F0000930766EF77E0FD014181102F9E012D5F71
:100F10003F4F0981FFDD279689919991A991B99158
:100F2000499059906990799089909990A990B99039
:100F30000895FA92EA92DA92CA92BA92AA929A9290
:100F40008A927A926A925A924A92BA93AA939A93FE
:100F50008A9325970FEF0A8300E0098301E3E02ECF
:100F600002E0F02E09E3C02E02E0D02E08E2A02E0F
:100F700008E0B02E0DE3802E02E0902E07E010E096
:100F80000B831C83F7010081002309F061C00981F4
:100F90000A830B811C810E941201902F91FB0EF09D
:100FA00016C10B811C810F5F1F4F0E941201802F01
:100FB000033010F483E007C00F3F11F48AE003C050
:100FC000033308F082E3F5010081000F000FF60102
:100FD00010811073103371F490FB0EF4F8C0088385
:100FE00041E09E0119810BE4E3DCF50100810395EA
:100FF0000083EDC0F4012081103131F490FB7EF7C5
:10100000281768F30360EBCFF601108111FFDFC0F2
:1010100090FB0EF0DCC00160902F281731F408839C
:1010200041E09E0119810BE4C3DCF401008110E072
:10103000E82FF0E033960E171F0709F0C8C0988319
:1010400041E09E0119810BE4B3DCF4018083BFC051
:101050000F3F09F0BCC00A8103950A8344244A94D7
:1010600000E086E492E014E0019FFC01E00DF11D38
:1010700010A12981121711F4402E03C003950230EC
:1010800080F304E0409EDC01A00DB11DFD0102A132
:101090003EDB402F0A8110E0E9E3F2E0E00FF11FB0
:1010A00020812073203109F065C026E0249F3C0197
:1010B000600C711CF301218DF801E35CFD4F108180
:1010C0001E31E8F5222379F000E0F301018FFD01E4
:1010D00003A127E0209FF001E35EFD4F25813681CB
:1010E0000E945C0074C0F301078900FD70C0FD011F
:1010F00002A10DDB202F30E006E0029FFC01E00D95
:10110000F11D248904E1029F2C01400C511C40E098
:1011100020E0FD0111A102A1F20164857585FB01AA
:10112000099500E0FC0106A731E020E010E0FD0198
:1011300002A1F20142855385FA01099548C0233086
:1011400071F4A0E0B0E02FEF8D010E942201119612
:10115000B430C8F3FC0102A513A5F801EECF1F318E
:10116000B0F1429400EF04211C3310F402602DC052
:1011700001602BC0208121FF2AC026E0249F3C0172
:10118000600C711CF301218D222379F4F801E35CDA
:10119000FD4F10811C3329F422E230E0FD0103A150
:1011A0009FCF1E31A1F424ECF8CF2F70213079F4B9
:1011B000F801E35CFD4F0081033348F02FEF3FEF70
:1011C000FD0103A10E945C0003E0F301018F09818E
:1011D000039509830B811C810E5F1F4F0B831C83BA
:1011E00001E0800E00E0901E01E0A00E00E0B01EC5
:1011F00001E0C00E00E0D01E01E0E00E00E0F01EB5
:101200000981063008F4BECE259672CC4A92BA9374
:10121000AA939A938A93D801C9010A01172F1C7FB8
:101220003C9170FB20E0FEF070E0AC01420F571FD4
:101230000E94DE12F001E20FF71F4081041789F4CB
:101240002395243088F34424311711F002E0402E16
:101250001C930596AC010E94DE1259DA202F033050
:1012600000F100E028C070E0AC01420F571F0E945F
:10127000DE12F001E20FF71F4081041791F723956A
:10128000243088F34424311711F002E0402EFD0190
:1012900010830596AC010E94DE1239DA202F03304C
:1012A00000F706E0029FF001EA5BFD4F078900FDB1
:1012B000D8CF01E0042989919991A991B9914990D8
:1012C0000895BA93AA939A938A93ABE3B7E0FD018A
:1012D0009181092F1CDA0F3F11F400E030C0202F5C
:1012E00006E0029FF001EA5BFD4F8489FD01128157
:1012F00000918D07063038F040918D0743509D01D5
:101300002D5F3F4F03C040E020E030E0092F64E153
:10131000689FF001EA5BFD4F66857785FB010995C3
:1013200031E020E010E0FD01018144E1489FF0013F
:10133000EA5BFD4F42855385FA01099501E08991E9
:101340009991A991B991089502E010E00E941201CB
:101350000F3F41F503E010E00E9412010F3F11F52D
:1013600004E010E00E9412010F3FE1F405E010E0FC
:101370000E9412010F3FB1F401E010E00E9412013F
:101380000F3F29F424E101E010E00E94220106E071
:1013900010E00E9412010F3F29F42EEF06E010E04A
:1013A0000E9422010895DA92CA92BA92AA929A925F
:1013B0008A927A926A925A924A92BA93AA939A938A
:1013C0008A93A497CC24DD2416E003E00E94F31650
:1013D0000CEF1FE70E9454170E9425170E94F60188
:1013E000B3DF0E94EE020E9482000E94FA120E9465
:1013F00034010FEF11EE24E0015010402040E1F7DE
:1014000000C0000006E4602E02E0702E01E0F3014F
:1014100007A7789459C00E94BF0200E000938D078F
:10142000DD2009F051C000912B02002309F04CC0CF
:10143000F89401E000932B02789402E0C016E0F5E6
:101440004C2C552406E0049DD301A00DB11DFD01D7
:101450000589448924E1249FF301E00DF11D2089D1
:101460003189F9010995F301EC0DF51D04A500235F
:1014700019F10A9504A701F509E6FC010083FD01B5
:101480000689FC01018302969C010E94610204E02E
:10149000009393078824CE01082D10E00E5F1F4FA4
:1014A0000E941201FC010193CF01839404E0801695
:1014B00098F38E010E948F150E94ED02C3940C2DAB
:1014C0004AE00E948017C42E0E94FB02002339F0DC
:1014D00030DD05C0DD24789400E000938D07ABE398
:1014E000B7E0DD2039F10E94DD1500918D07002362
:1014F000D1F30C910A5571F30B5119F00550B1F06D
:10150000EBCF00E000938D07789405E000932B0269
:1015100002C00E94DD1500912B020023D1F7F89440
:10152000F30100A511A5F8010995D6CFDD24D394C8
:10153000F894D2CF35DB0E94DD158FEA97E0009159
:101540008D07002309F46FCFFD0142812181042F13
:10155000122F5380422E3C913B5C09F478C23655E1
:1015600009F444C0305209F4DCC1325009F457C0C8
:10157000325009F49EC0365009F4B9C1365009F40E
:1015800053C13A9509F44EC03A9509F483C23450D8
:1015900009F462C0335041F1395009F49DC135500E
:1015A00009F474C0345009F407C1325009F473C00F
:1015B000335009F413C1325009F456C2325049F085
:1015C0003A9509F45CC0325009F4E2C0325041F05F
:1015D00022CFF894F30100A511A5F80109951DCFBC
:1015E000DD24D394F89419CF789417CF00918D0708
:1015F000023008F412CF0C91201709F00ECF789426
:1016000005E000932B0202C00E94DD1500912B0221
:101610000023D1F7F894F30102A513A5DECF0E94B1
:10162000F501FBCE580188240CC085010E941201EF
:1016300011E0A10E10E0B11EFC01E80DF11F0083C6
:101640008394FD010381801680F30093930707EADA
:1016500017E00E948F15E1CE58018824FD01038117
:10166000801608F0DACE9924E80DF91D2481850151
:101670000E94220101E0A00EB91C8394EFCF03E089
:10168000FC01008306E0018302E0DFCF01E1FC0101
:10169000008300E0F8CF9C0102EF1FE74AE0F80169
:1016A00055918F01F90151939F014A95C1F70AE0C5
:1016B000CCCF2481222309F4B0CEFE01349620E25F
:1016C00030E031932A95E1F74424552458019924B8
:1016D00028C085010E941201102F01E0A00E00E039
:1016E000B01E1F3FA1F001E0442D47700E947B1700
:1016F000202FFE01349682011695079516950795C1
:1017000016950795E00FF11F0081022B008383944B
:10171000FD0103818016E8F201E0400E00E0501E5A
:101720009394FD010481901610F48824F1CF05E60E
:10173000FC010083FD010181FC010183FD010281A7
:10174000FC010283FD010381FC01038388240FEF68
:10175000400E501E5694479456944794569447947E
:1017600082010F5F1F4F202F212B79F030E0FE0107
:101770003496E80DF31F4081FC01E80DF31F44830C
:10178000839499248016910688F3042D0B5F5DCF16
:1017900000919207002309F040CE93DD09E6FC0199
:1017A0000083FD010181FC0101839C012E5F3F4FFD
:1017B0000E94610204E049CFACD9202F0F3F09F409
:1017C0002CCE06E0029FF301E00DF11D55200789A4
:1017D00019F00160078B21CE0E7FFCCF009192079C
:1017E000002309F01ACE06E010E00E94120100FB6F
:1017F0000EF413CEFD013281218101E817E085D876
:10180000002309F00ACE01E5FC010083FD010181FE
:10181000FC010183FD010281FC01028303E00093CE
:10182000930701E817E015CF430102E2800E00E0C4
:10183000901E02E0B02EF40100816BD9202F06E04B
:10184000029F2301400C511CF201A488018D0F70EE
:101850000230D1F506E010E00E94120100FBEEF02C
:1018600004E10A9DF301E00DF11D6681778100E03E
:101870006030700791F0F201118D12951F7004E035
:10188000109FF301E00DF11D41A1F4013081FD0134
:10189000218101E817E0FB010995F201118D1295F4
:1018A0001F7004E0109FF301E00DF11D43A107E05C
:1018B000049FF001E35EFD4F25813681042F0E94D5
:1018C0005C0000E0F201018F04E0800E00E0901E59
:1018D000BA9409F4A2CDAFCF00919207002309F08A
:1018E0009CCD342F01E817E00E94470496CD00916B
:1018F0009207002311F051FE90CDF30106A7352D7C
:1019000001E817E040815181FA01099500919207A1
:10191000002309F082CD09E6FC010083FD0102816C
:1019200042CF00919207002309F491C0430102E2E3
:10193000800E00E0901E02E0B02EF4010081E9D894
:10194000202F06E0029F2301400C511CF201A488C5
:10195000118D1F70123081F510E00E94120100FB02
:101960000EF46EC004E10A9DF301E00DF11D408507
:10197000518500E04030500709F462C0F401308125
:10198000FD01218101E817E0FA010995002309F022
:1019900057C001E7FC010083FD010181FC010183C7
:1019A000F4010081FC01028303E00093930701E846
:1019B00017E00E948F1544C0113009F041C010E0BB
:1019C0000E94120100FB2EF103E6FC010083FD01E1
:1019D0000181FC010183F4010081FC01028303E029
:1019E0000093930701E817E00E948F1504E10A9D18
:1019F000F301E00DF11D4481558100E040305007B6
:101A000041F0F4013081FD01218101E817E0FA0184
:101A10000995F201118D12951F7004E0109FF301DA
:101A2000E00DF11D43A107E0049FF001E35EFD4FCF
:101A300025813681042F0E945C0000E0F201018FB5
:101A400004E0800E00E0901EBA9409F076CF009179
:101A50009207002309F0E1CCFD01338121818D0142
:101A60000C5F1F4FF3014ECF00919207002309F046
:101A7000D4CC022F4ED80F3F09F4CFCC042D49D837
:101A8000202F06E0029FF301E00DF11D078900FD04
:101A9000C4CC83CE09E6FC01008321839C012E5F28
:101AA0003F4F042D85CEDA92CA92BA92AA929A92A8
:101AB0008A927A926A925A924A92BA93AA939A9383
:101AC0008A935801D22E932ECC240AE2602E08E08D
:101AD000702E8FE090E006E1402E5524232F2170D8
:101AE0000BE0029F400C511CAC014C5F5F4F0E9409
:101AF000DE120D1509F0B1C0AC010E94DE12F50135
:101B00001081011709F0A9C0192D1C7FF301308144
:101B100090FAAC01A6F04A5F5F4F0E94DE12202FC0
:101B2000217009F49AC03117B1F40470A1F4AC012A
:101B30004B5F5F4F0E94DE120E9424048EC04F5EF6
:101B40005F4F0E94DE12202F217009F486C03117EA
:101B500011F4047061F3792D6D2DA5019C018301B1
:101B60000E940609802E002309F477C0A2010E947A
:101B7000E112012BC9F492012E5F3F4FA9010E948F
:101B8000E112012B89F492012C5F3F4FA9010E94C1
:101B9000E112012B49F492012A5F3F4FA9010E94F3
:101BA000E112012B09F459C0AC014B5F5F4F0E9459
:101BB000DE120E9487030F3F09F44FC0202FADEFC4
:101BC000B6E00BE1029FA00DB11DB201685F7F4F2F
:101BD000AB010E94E112B801FD01158903E0109FDD
:101BE000402D8B010E94941707700430B0F506E079
:101BF000029FF001E65AFD4F05810F7071F5FD015E
:101C0000028D002339F000917402002319F4082D8D
:101C10000E7F71F0192D0C2D24D28694382D292D8C
:101C200010E0AC014B5F5F4F0E94DE123BD307C058
:101C3000AC014B5F5F4F0E94DE120E9424040091B2
:101C40007402002321F400E0FD01028F06C001E0D0
:101C5000FD01028F00E000937402C3940CE1400E7A
:101C600000E0501E4C9601E0600E00E0701E0EE198
:101C7000C01608F439CF89919991A991B9914990E9
:101C800059906990799089909990A990B990C9904C
:101C9000D99008953B2F4A2F202FE6E4F2E004E18B
:101CA000019FE00DF11D0EE81EE00483158307ED92
:101CB0001EE0008711870EE11FE00683178302E50F
:101CC00011E1028713870BEB1FE004871587068756
:101CD000178708E712E1008B118B03E51DE00083F5
:101CE000118305EA12E1028B138BEDEFF6E00BE1B5
:101CF000029FE00DF11DDF0110E01D930A95E1F751
:101D00000FEF068B078B008F018F048705870687EF
:101D1000078703E0058BA42FB32F0895BA938A9306
:101D20001801722F132E80E02FE030E01EE1A90190
:101D30004C5F5F4F0E94DE12071769F5A9014B5FE8
:101D40005F4F0E94DE12011531F560E0B0E0A9019D
:101D5000460F5B1F0E94DE12F101E60FFB1F408160
:101D6000041719F46395643088F36430A1F40FEF1D
:101D7000A9014C5F5F4F0E94EF12A9014B5F5F4FBB
:101D80000E94EF12A90164E00E94EF124F5F5F4FC3
:101D90006A95D1F78395245E3F4F1A9541F68823C3
:101DA00011F000E001C001E08991B9910895AA9372
:101DB0009A93382EB801122F232EA0E08FE090E0E6
:101DC0002CE12A9F900150E043E1400D511D0E94FB
:101DD000DE120F3F51F00C01020E131EA0014B5FEB
:101DE0005F4F0E94DE120F3F11F400E023C0A001FC
:101DF0004C5F5F4F0E94DE120117C1F4A0014B5FE0
:101E00005F4F0E94DE12021589F420E0A001420F0C
:101E1000591F0E94DE12FB01E20FF91F30810317E8
:101E200019F42395243090F32430F9F2A395AE31C0
:101E300038F201E0832D9991A99108954A92BA93BD
:101E4000AA939A938A93C801B22F432EA42F66DFD8
:101E5000E0E02FE030E00CE10E9FB901600D711D54
:101E600050E043E1400D511D0E94DE120F3F41F052
:101E7000AB014B5F5F4F0E94DE120F3F09F070C055
:101E8000AB01FC0114E001910E94EF124F5F5F4F24
:101E90001A95C9F7AB014C5F5F4F0B2F0E94EF12F1
:101EA000AB014B5F5F4F042D0E94EF1200E010E08A
:101EB0009B012E5E3F4FA9010E94F3129B01295FF7
:101EC0003F4FA9010E94F3129B012A5E3F4FA901D7
:101ED0000E94F3129B01255F3F4FA9010E94F3125C
:101EE0000FEF1FEF9B012C5E3F4FA9010E94F312E1
:101EF0009B01275F3F4FA9010E94F3129B01285EBF
:101F00003F4FA9010E94F3129B01235F3F4FA9019C
:101F10000E94F312AF3F19F401ED10E007C0A83C96
:101F200019F409E412E002C00BED16E09B01265EF5
:101F30003F4FA9010E94F3129B01215F3F4FA9016E
:101F40000E94F31201EFAB014A5F5F4F0E94EF1254
:101F500005EF6F5E7F4FAB010E94EF1200E005C0FE
:101F6000E395EE3108F477CF01E089919991A99139
:101F7000B991499008957A926A925A924A92BA9384
:101F8000AA939A938A93912FD901842F0E94870351
:101F9000402E02E0401608F05BC006E0049DF00110
:101FA000E65AFD4F41809F3F81F0EDE0F7E00BE105
:101FB000049DE00DF11D14E004C003E001931A95A7
:101FC000D1F09923D1F301E0F9CF90E00DE017E0D3
:101FD0002BE1249D3801600C711C092F10E00F5F6C
:101FE0001F4F44E050E00E94B217F30141933F01BC
:101FF0009395943090F30DEF16E02BE1249D28018A
:10200000400C511C01EFF201048B00E000830183BE
:10201000028303830A2F0B2B11F0882331F40FEF77
:10202000048305830683078309C00D911C910E94D8
:10203000C203F201048315832683378300E00087FF
:102040000187028703870FEF0487058706870787C5
:1020500089919991A991B9914990599069907990F4
:1020600008956A925A924A92BA93AA939A938A933B
:10207000412EA12FA1708FE090E0202F0CE1029F54
:10208000800D911DAC014B5F5F4F0E94DE120E94DC
:102090008703602F023008F0FDC006E0069FF001C4
:1020A000E65AFD4F6181AA23AC0111F04F5E01C0D9
:1020B0004A5F5F4F0E94DE122BE1269FF001E35042
:1020C000F94F048B0BE00A9F800D911DADEFB6E038
:1020D0000BE1069FA00DB11DFD01048904FD0EC09A
:1020E00042FA05FD08C046F413E0709604E011932F
:1020F0000A9559F1FCCFC6F711E0F7CF66242D0100
:1021000000E1400E561C9C01215F3F4FA9010E9437
:10211000E11223E0629E402D0E9494170770F201A5
:102120000083053050F0062D10E00F5F1F4F44E094
:1021300050E00E94B217F2014083639401E0400E28
:1021400000E0501E04E06016F0F29C01295F3F4F52
:10215000A9010E94E1120F3F2FEF120731F400E0B6
:102160000D930D930D930C9306C00E94C2030D9323
:102170001D932D933C9313979C01255F3F4FA9011D
:102180000E94E1120F3F2FEF120739F400E0FD012A
:10219000008701870287038707C00E94C203FD01F1
:1021A00000871187228733879C01275F3F4FA90152
:1021B0000E94E1120E94C203FD01448947FD18C03C
:1021C00044815581668177810417150726073707F3
:1021D00078F445894130B1F45189523098F44689F8
:1021E0005789608D718D401751076207730728F476
:1021F000048315832683378311C044835583668304
:1022000077830CC04423A1F74089423088F744818A
:102210005581401751076207730750F30D96AC01C3
:102220000E94E1120E94C203FD01448946FD1AC0CA
:102230004485558566857785041715072607370772
:1022400088F445894330C1F453895230A8F05430A2
:1022500098F446895789608D718D40175107620740
:10226000730728F4048715872687378713C04487A8
:102270005587668777870EC04230A1F74289423082
:1022800088F3443078F74485558540175107620735
:10229000730740F389919991A991B9914990599007
:1022A000699008955A924A92BA93AA939A938A93FC
:1022B000902F512E432E80E00E948703023008F0B9
:1022C00010C1EAE5F2E0202F06E0029FE00DF11DCB
:1022D0000281063008F005C10181ADEFB6E02BE1C7
:1022E000209FA00DB11D11E0511629F4FD011589A3
:1022F0001395137009C040FA46F4FD01258930E0BA
:10230000E20FF31F1089FD01158BFD0115891123C3
:1023100039F01A9561F01A9579F01A9591F019C073
:102320004D915D916D917C911397FD010EC044819B
:1023300055816681778109C04085518562857385A5
:1023400004C04485558566857785468B578B608F9D
:10235000718FFD0146895789608D718D452B462B04
:10236000472B31F4552453948395843008F4B5CF2A
:10237000092F0E948703802FFD010589002349F062
:102380000A95A9F10A9509F45DC00A9509F46AC095
:1023900095C00CEE19E026E0289FF001E65AFD4FAB
:1023A000448127E0249FF001E35EFD4F05831683FF
:1023B000092F0E948703202F06E0029FF001E65AB2
:1023C000FD4F0581002309F079C0EAE5F2E006E05F
:1023D000089FE00DF11D448107E0049FF001E35EDA
:1023E000FD4F25813681042F0E945C0067C0EAE51D
:1023F000F2E006E0089FE00DF11D0DE112E04481DE
:1024000027E0249F000D111DFD0146895789608D2D
:10241000718D4F3F5F4F6F4F7F4F91F428EF3FEF2C
:10242000F80125833683092F0E948703202F06E0B9
:10243000029FF001E65AFD4F05810023F9F5C5CF53
:102440002CEEEDCF0CE21FE026E0289FF001E65ACB
:10245000FD4F448127E0249FF001E35EFD4F05839B
:102460001683E1CFEAE5F2E006E0089FE00DF11DFA
:102470000DE112E0448127E0249F000D111DFD01B4
:1024800046895789608D718D4F3F5F4F6F4F7F4FEA
:1024900019F428E030E0C4CF2CE130E0F8012583C6
:1024A0003683092F0E948703202F06E0029FF00148
:1024B000E65AFD4F0581002309F487CFFD01058908
:1024C000013011F0023011F411E001C010E0092FC9
:1024D0000E942A0200917402002319F4092F0E941D
:1024E000240489919991A991B9914990599008959D
:1024F000602FEDEFF6E00BE1069FE00DF11D068980
:102500001789208D318D0F3F4FEF140724073407B3
:10251000D9F0012B022B032BB9F006890150104092
:1025200020403040068B178B208F318F012B022BE0
:10253000032B51F431E020E011E046E0469FF0012A
:10254000E65AFD4F0281AEDE08954BE050E0202FA9
:1025500006E0029FF001E65AFD4F018112E0019F63
:10256000400D511D0E94DE12017008950F921F92BE
:102570002F923F920F931F932F933F934F935F930D
:102580006F937F93EF93FF930E94DC15FF91EF9180
:102590007F916F915F914F913F912F911F910F917B
:1025A0003F902F901F900F90E199E0CF08954F5FDB
:1025B0005F4FFADF4EBB5FBBE09A0895FADF0DB3C1
:1025C0000895F7DF0DB3F3DF1DB308954F5F5F4F3D
:1025D0004EBB5FBBF894E29AE19A0FBE08950FB626
:1025E000E3DF0DBBF5CF0FB6DFDF0DBBF1DFDCDFC7
:1025F0001DBBECCF00E000BD09E109B900E10AB95B
:1026000006EA00BDE1E8F7E000E0058F028B0487F1
:10261000048B0FEF068B058B0783068305830483EA
:10262000899A8A9A929801E0028F02E003BF09B763
:10263000016009BF0895BA93AA939A938A93A1E877
:10264000B7E000E0FD0104875F9902C000E062C2CC
:102650001BB10CB11471D1F712A10C3F29F4112355
:1026600019F401E002A3F2CF24A1239524A30D3F86
:1026700099F400E004A3068F078F03E000A301E0B4
:1026800003A300E00383028301830C930E9456009E
:102690000DEF0E943400DACF0E3F19F400E003A3DF
:1026A000D5CF112319F0006810E012A313A1112354
:1026B00069F2278D50E02430C8F40F3F19F010A1C3
:1026C0001D7F10A3ECEFFFE7E20FF51F1491011738
:1026D00021F0FD0110A11E7F10A3FD01E20FF51FE7
:1026E0000587FD01178D1395178FD3CFA9F410A17E
:1026F00011FF03C011E0118B01C0518B038B10A19E
:10270000112331F413891770133011F053A302C051
:1027100011E013A315E0E8CF138913FF0AC0177067
:10272000133039F0293028F4E20FF51F3597008374
:10273000D8CF2F3F21F01FEF178F01A3AACF268DEF
:1027400030E0F901E55CF84F00830E943400FD01A0
:10275000068D10E081A190E0019708171907B1F4E8
:1027600000E000A30E94340000E00E943400EFE784
:10277000F2E000811181012B21F000E0FD010487CE
:1027800066CFFD0101A1048701E061CF0634A9F302
:102790000395068F5BCF08E00AB9929A5E9A08EF1C
:1027A0000CB95E9BFECF00E10AB992980895542FB0
:1027B0004A95552389F0F8015081F9016081561737
:1027C00010F40FEF089551919F01F80161918F016D
:1027D000561768F701E0089500E0089506C0F90172
:1027E00051919F01F80151938F01542F4A95552320
:1027F000B1F70895BA93AA938A93A1E8B7E0FD01CF
:102800000485002311F000E084C015DF0023D9F314
:10281000FD012389022F0770033031F500E010E03D
:102820001487269526952695239539F41BC03617CF
:1028300051F7285003952223A9F0FD01E00FF11F65
:102840006585ECEFFFE7E00FF11F3491283078F752
:102850000FEF48E0421B0E948E17102F1323062310
:10286000101789F603E055C0022F01711189112359
:1028700029F0003141F200E00487C5CF0031E1F5D5
:1028800026952370822F038907FF02C00FEF058B67
:102890000589021741F544E09D012A5D3F4F8D01F6
:1028A00086DF002301F500E0FD010487FD01058DB1
:1028B000063059F5838982958F708695837044E040
:1028C0009D018D01065D1F4F72DF0023C1F4FD01E4
:1028D000018D06950370801791F403890779013102
:1028E00091F402E016C0FD01858B44E09D018D014D
:1028F0000A5D1F4F73DFDACF27792131A1F200E0A3
:10290000FD01048706C001E004C01389117001E0D5
:1029100001278991A991B99108950D3F21F00E3FAA
:1029200011F00C3F61F41091F507112339F45D9B10
:1029300008C01CEF1CB911E01093F5070F775D99E3
:1029400002C000E008950CB95E9A00E00093F5071C
:1029500001E00895BA93AA939A938A93A1E8B7E005
:10296000FD01008D0023B1F408E00AB9929A0E949B
:102970005600FD01008D0395008F00E005A3018D39
:10298000077901318D0111F40A5D01C0065D1F4F09
:1029900002871387008D013049F45D9B0CC00DEF59
:1029A0000CB902E0008F0DEF0E943400FD01008D94
:1029B0000230D9F414C000E0ADC08285938510E0E8
:1029C000800F911FFC010081A8DF0023A1F3FC010F
:1029D00000810E943400FD0105A1039505A305A116
:1029E000043058F3008D0395008F008D033059F4A7
:1029F000818D082F92DF0023F1F204E0FD01008FAA
:102A0000082F0E943400FD01008D0430E9F4018D8F
:102A100003FD14C005E0008F1AC0E8EFFFE710E0E7
:102A2000E00FF11F8491082F78DF002321F2082F97
:102A30000E943400FD0105A1039505A305A10830FE
:102A400060F3008D0395008F008D053091F482892D
:102A5000018D0171013109F480E08E5F082F5DDF87
:102A6000002309F4A8CF06E0FD01008F082F0E9483
:102A70003400FD01008D063029F58289018D017138
:102A8000013199F480E011C010E0F801E155F84FF0
:102A90009081092F42DF002309F48DCF092F0E9476
:102AA0003400FD0107890395078B0789081760F338
:102AB00000E00E94340000E00E943400FD01008D1F
:102AC0000395008F008D073079F40091800225DF97
:102AD000002311F001E001C000E0002309F46BCFF6
:102AE00008E0FD01008F02C0083051F400917F0220
:102AF00014DF002309F45FCF09E0FD01008F02C05D
:102B0000093039F45E9B57CF00E10AB992980AE088
:102B1000008F01E089919991A991B991089544E0BC
:102B200098010BEA17E05ACEBA93AA938A9380E0F1
:102B3000A1E8B7E0FD01878B808F44E09D012C5F09
:102B40003F4F8D01065D1F4F32DE002309F080E804
:102B500044E02AE732E08D01065D1F4F28DE0023A6
:102B600091F044E09D01265D3F4F8D010C5F1F4FAA
:102B700035DEFD0104891689101719F403950370D9
:102B8000048B0489068BFD01038D033089F40489CD
:102B900025892295207F220F102F110F122B182B21
:102BA0001861118F033010F000E001C00395048B11
:102BB0008991A991B99108950000BA93AA930091BF
:102BC0007502002311F40FEFCBC014DE033011F4B3
:102BD000E2DDF9CFA3E9B7E01C911B962C915D973C
:102BE000222391F02A9511F12A9509F45DC02A95C6
:102BF00009F475C02A9509F485C02A9509F450C0D6
:102C00002A9509F489C0AAC0013029F401E05D9633
:102C10000C935D97A3C0112309F4A0C002E05D9658
:102C20000C93129703E00C935B9798C05A960C9103
:102C30005A97002309F092C01123E1F044E09D016E
:102C40002A5D3F4F8D01065D1F4FB1DD002391F4DA
:102C500003E05B960C93539767DFF89402B710E09C
:102C60000F70000F08531F4F0D931C9354967894C8
:102C700003E00EC000E057960D930C9313970C9150
:102C800014960295007F000F09610C93149605E0DD
:102C90000C935D975FDE002309F460C000E0B7CFBE
:102CA00059DE0023D9F75AC0013009F4AFCF5A9644
:102CB0000C915A97002309F051C036DF44E02AE70F
:102CC00032E08D01065D1F4F72DD002311F404E038
:102CD00001C003E05D960C935D973CDE3FC03ADE99
:102CE0000023E1F106E05D960C935597F89402B746
:102CF00010E00F70000F08531F4F0D931C9319978E
:102D000078942CC027DE002349F100E05D960C93F7
:102D10001B970C93529722C0F894023029F400E0DC
:102D200052960C931B9617C0013031F400E0529676
:102D30000C931B9601E00FC018960D911C911997EA
:102D4000012B59F45B960C910A950C935B97002329
:102D500031F302E05D960C935D9778945D960C914B
:102D6000A991B9910895FA93EA932A931A930A9331
:102D70002FB7E1E8F7E080990BC001E0028F02B7BE
:102D80000F700C5E048F00E002BF08B7016008BF3F
:102D9000048D0A95048F11F400E0028F00851185DF
:102DA000012B31F0008511850150104000871187FB
:102DB0002FBF099119912991E991F9911895C79817
:102DC00008EC00000A95E9F7C79A2EC0C79808ECEE
:102DD00000000A95E9F7C79A08EC00000A95E9F7A0
:102DE0000895C79821C09A938A93902F812FBF9AF4
:102DF000E6DF01C0EBDF092F9A950023D9F7DFDF6B
:102E000001C0E4DF082F8A950023D9F7D8DFE9DF76
:102E100007B3007807BB899199910895C69808EC8B
:102E200000000A95E9F7C69A0FE811E0015010403A
:102E3000E9F700C000000895C69808EC00000A9564
:102E4000E9F7C69AC9CFC698EFCFBA93AA939A93D7
:102E50008A93289760E0702F7F70FE013796462F87
:102E600050E041955040E40FF51F708344E00E940C
:102E7000C6176395683078F3BE9AD0DFDE0188E02C
:102E80009D9101C0D9DF092F9A950023D9F7C6DF9C
:102E90008A95B1F7D8DF07B3007407BB28968991EC
:102EA0009991A991B9910895F80110E020E030E0DE
:102EB00040E00590002D433039F0322F212F102DA6
:102EC00000E043954430A8F308950C94F8170CE102
:102ED0000DBF02E00EBFC5EAD1E00E94CE1700236D
:102EE00011F00E94DE170E94D3090E9479170C94FA
:102EF00065170C9465174A9512F0000FE1F70895D5
:102F00000024E8E0EA9532F0001F001C0416D0F31C
:102F1000041AF8CF001F402D009508954A951AF025
:102F2000000F111FFBCF08954A951AF016950795CB
:102F3000FBCF089500241124EFE0001F111F001C97
:102F4000111C0416150610F0041A150AEA95AAF7C2
:102F5000001F111FA00100951095089551954195EE
:102F600050400895FF27552312F4F160F7DF112335
:102F700012F4F09507D00E949A17F0FD03D0F1FDEE
:102F8000EDCF089511950195104008954A952AF0C6
:102F90003695279517950795F9CF089501E008957F
:102FA00020E006D0E9F70895259102D0E9F70895C9
:102FB0002D9301501040202F212B089582EF9FE286
:102FC000FC0105911491FC013296A591B491FC018C
:102FD000349625913491422F432B19F0F901E4DF07
:102FE00001C0DEDF06961FE28E3F910748F3089589
:102FF000FFCF77057F02000062001D02FE2F000058
:1030000000000000000000000000000000000000C0
:10301000020200000101FFFF000A000000000000A2
:103020000000FFFFFFFF00000000000000000000A4
:103030000000000000000000000000000000000090
:103040000000000000000000000000000000000080
:103050003C00000000000000100800FFFFFFFF0020
:10306000FFFFFFFFFFFFFFFFFFFFFFFFFFFFFFFF70
:10307000FFFFFFFFFFFFFFFFFFFFFFFFFFFFFFFF60
:10308000FFFFFFFFFFFFFFFFFFFFFFFFFFFFFFFF50
:10309000FFFFFFFFFFFFFFFFFFFFFFFFFFFFFFFF40
:1077F0000603FFFFFFFFFFFFFFFFFFFFFFFFFFFF8E
:00000001FF
