:100000000C94EB1318951895189518951895189544
:100010000C947000189518951895189518951895C2
:100020001895189518951895189518950C943713D8
:100030001895189518951895189518951895189558
:100040001895189518951895189518951895189548
:10005000189518951895189544656275672D4D6F1C
:100060006465206F6E2000FF18E0E1E8F1E0218177
:1000700027FF02C021E001C020E0322F40815181E2
:10008000440F551F4083518307FB1EF4242F21602A
:100090002083000F332339F022E030E140814227F2
:1000A0005327408351831A9501F708950FEFE1E834
:1000B000F1E000830183089500E002BD02B500FD78
:1000C000FDCF0BE005BD02B501FDFDCF09EF03BD7E
:1000D00009B7006809BF09B70F7B09BF0895ECCFC6
:1000E000FA93EA932A931A930A932FB7E3E8F1E07D
:1000F0000281016002830381039503830A3029F49E
:1001000000E003830281026002830481039504837B
:10011000043629F400E0048302810460028305812F
:1001200003950583083911F400E00583038102304B
:1001300048F410E0E00FF11F0081002319F0008166
:100140000A9500832FBF099119912991E991F9919D
:1001500018959A938A93C80102C00E946112E1998E
:10016000FCCF9FBB8EBB01E00CBB0DB38991999175
:1001700008958A93822FEDDF081719F40AC00E94B0
:100180006112E199FCCF8DBBF89404E00CBBE19ABD
:10019000789489910895E9E8F1E000E0048305830B
:1001A0000283038301E911E00083118300E00683E9
:1001B00007830895AD01E9E8F1E0268137812C3409
:1001C000344010F000E01AC0A081B1812281338157
:1001D000A20FB31F0C93028113810F5F1F4F028385
:1001E00013830C34144018F000E00283038306816B
:1001F00017810F5F1F4F0683178301E0DA0108950F
:10020000AD01E9E8F1E006811781012B11F400E06E
:1002100019C0A081B18104811581A00FB11F0C917B
:100220002481312F2F5F3F4F248335832C3434407A
:1002300018F020E024832583268137812150304027
:1002400026833783DA0108954A92BA93AA939A9340
:100250008A93B02F412EC901A42FE9E8F1E026814D
:100260003781042F10E0020F131F0D5F1F4F0D3455
:10027000144010F4A7FB16F400E010C0042F0D5F2B
:1002800099DF0B2F97DF042D95DFAA2331F0FC01B6
:100290000191CF018FDFAA95D1F701E08991999162
:1002A000A991B991499008959A928A926A925A9224
:1002B0004A92BA93AA939A938A932801C901DA01C0
:1002C0004B016984E9E8F1E006811781012B11F403
:1002D00000E017C095DF0350F401008391DFF201C5
:1002E00000838EDFFC010083F4018081882341F0CC
:1002F000662031F085DF0D938A956A948823C1F7D3
:1003000001E089919991A991B99149905990699089
:10031000899099902196089508950AEF0BBB07E004
:100320000ABB8F9A97982FE73BE000E00E948B036F
:100330004FEF36E020E010E000E00E9494034FEF22
:1003400037E020E011E001E00E9494034FEF38E035
:1003500020E012E002E00E9494034FEF39E020E039
:1003600013E003E00E9494034FEF3AE020E014E032
:1003700004E00E9494034FEF3BE020E015E005E02D
:100380000E9494034FEF3CE020E016E006E00C945E
:1003900094030C3040F5202F30E0F901E85CFE4F6B
:1003A0002181213001F506501F3F51F410E0F80182
:1003B000E45DFE4F0081E8E3F1E01081102711C0F9
:1003C000202FF901E45DFE4F0081112329F0E8E3BD
:1003D000F1E01081102B05C00095E8E3F1E01081F9
:1003E0001023108374D00895BA93AA939A938A9392
:1003F000D90110E0F9011183C801063060F467D01B
:10040000FC01E45DFE4F1681102311F008EC01C0E1
:1004100000E00C9335C00C3098F510913801FC01C8
:10042000EA5DFE4F2081212311F018EC01C010E09D
:100430001C930E943F03202F06E0029FF001E3522D
:10044000FA4F2181E9E2F6E00BE1029FE00DF11D98
:100450000589002339F00A9551F00A9519F00A959B
:1004600031F00EC0FD0101810064018309C00689DD
:100470001789208D318D0F3F1F4F2F4F3F4F91F721
:1004800089919991A991B99108950895BA93AA93E0
:100490009A938A93D8011BD0302FE9E3F1E082E3ED
:1004A00091E08D0126E04191442351F4DC014C910F
:1004B0004323D8014C9111F0416001C04E7F4C9311
:1004C0000F5F1F4F01962A9571F7DACF089530E03C
:1004D000D99801E20A95F1F70000D99A01E20A954C
:1004E000F1F7000020E0DA9801E20A95F1F7000048
:1004F00001E010E0422F0E941214109138011023E5
:1005000011F0D89A01C0D89811E21A95F1F70000BD
:10051000DA9A11E21A95F1F7000011E21A95F1F753
:10052000000011E21A95F1F70000CB9B302B2395C8
:100530002830C8F201E20A95F1F70000D99801E2EB
:100540000A95F1F70000D99A032F08959D01E7E479
:10055000F1E0ADE4B1E006E010E011931D930A95DF
:10056000D9F7D9010895BA93AA938A93F894809100
:10057000850100E0009385017894082F057011F43F
:1005800000E079C0A5E4B1E08D010E5F1F4F0E942D
:10059000460220E00C91002369F401E00C93FD0178
:1005A000329606E0108110FF02C0106C1083319665
:1005B0000A95C1F710E0FD01329600810D7E00839F
:1005C0000174013411F0002309F42395008100FF28
:1005D00002C0006401C00F7B008313953196163072
:1005E00060F32117C9F4FD010181002311F00A9580
:1005F00001830181002321F63896129606E01081CE
:10060000133028F41C9117FF02C011601C931C9139
:1006100010FF06C0106205C00AE0FD010183B0CFE3
:100620001F7D1C931C911178113019F41C911061DD
:1006300004C01038D9F31C911F7E1C931C9115FF28
:100640000EC014FF02C010E006C082FB46F4108109
:100650001F3F29F0139510831C9112601C931C916D
:1006600015FF02C0106801C01F771C9311963196C8
:100670000A9529F601E08991A991B991089520E0A0
:100680006DED75E0FB01329646E0429FE00DF11DF5
:100690001081101711F4022F08952395263090F33E
:1006A0000FEF0895E0E0F0ECF123E03020ECF207EA
:1006B00029F40FEF1FEF2FEF3FEF08955FE3402F77
:1006C00051238A0120E030E0E050F04881F0E05012
:1006D000F04C01F54AE070E0459F502D612D409FA0
:1006E000402D510D621F721F8A019B01089548E53C
:1006F00052E070E0519F602D509F502D610D419F41
:10070000500D611D721F409F402D510D621F721FC1
:100710008A019B010895402F04E1049FF001E85AEB
:10072000FE4F228333830895602F012F122FEDEDAA
:10073000F5E0262E66E0629DE00DF11D0183328317
:1007400020E023831083448324E1219FF001E85AB1
:10075000FE4F22813381F90109949A938A938FDFA6
:100760000F3FD9F0802F90E026E0209FF001E35268
:10077000FA4F408124E1249FF001E85AFE4F22897C
:100780003389F9010995002341F001E010E00E944E
:10079000A900FC01E85AFE4F008F899199910895B4
:1007A0007A926A925A924A92BA93AA939A938A93A5
:1007B00028013901ABE4B3E09DE18D010E94A9005D
:1007C000061501F58D010B5F1F4F0E94A90007154B
:1007D000C9F480E0082F10E00A0F1B1F0F5F1F4FA6
:1007E0000E94A90030E0F201E80FF31F1081011709
:1007F00019F48395843070F3843021F42FEF8D0148
:100800000E94B90016969A95C1F689919991A9917D
:10081000B991499059906990799008956A925A9245
:100820004A92BA93AA939A938A932801822F632EAD
:10083000ABE4B3E0B5DF90E08D010E94A9000F3F6B
:10084000B9F4282F8D010E94B9001196C20104E06D
:10085000402EFC012191CF018D010E94B90011961B
:100860004A94B9F7262D8D010E94B90000E005C019
:10087000169693959D3100F301E089919991A99184
:10088000B99149905990699008955A924A92BA93B1
:10089000AA939A938A93D801C901442E042D4A94AD
:1008A000002369F08D010E94A900502E11968C0141
:1008B0000E94A9000196501689F300E001C001E0F2
:1008C00089919991A991B991499059900895FA9275
:1008D000EA92DA92CA92BA92AA929A928A927A92F8
:1008E0006A925A924A92BA93AA939A938A93F02E52
:1008F000E12E6901742E88240BE4402E03E0502E73
:100900005901662482010E94A9000E1501F5882074
:1009100029F4609201068824839419C09924A1E0E7
:10092000B6E0C201019644E06D9126E0269F900159
:10093000245B3C4F8C01A9DF002331F49924F4019E
:10094000EF5FF94F6082E8CF9394981460F306E06C
:10095000400E00E0501E63940DE1601698F2AEE880
:10096000B7E00BE4F01621F5EC9200E0FD01018305
:1009700002E0602E772061F0272DF60131916F01A2
:1009800010E0FD01E60DF11F308363942A95A9F76D
:10099000FD01028102600283472D4E5F9D011BE431
:1009A0000FEF0E942401F50100810370013071F105
:1009B000882069F081E096E0482C472D95011F2D95
:1009C000FC010191CF010E9424014A94B1F70BE48C
:1009D000F016E1F406E1FD01018300E002830383E8
:1009E00001E004839D012B5F3F4F02EF1FE74AE0C8
:1009F000F80155918F01F90151939F014A95C1F773
:100A00004FE09D0111E40FEF0E942401899199911B
:100A1000A991B9914990599069907990899099904C
:100A2000A990B990C990D990E990F99008955A92F7
:100A30004A92BA93AA938A930901812F2B010B340E
:100A400049F4FB013281242F8001A8E5B1E0ED914A
:100A5000FC912EC0033769F5FB0100810C3048F58D
:100A6000012F0DDE0F3F29F1ADEDB5E0202F30E075
:100A700006E0029FA00DB11D40E020E0F2011081D0
:100A8000082F2C9064E1629DF001E85AFE4F6685C4
:100A90007785FB01099531E020E010E0082F6C918B
:100AA00044E1469FF001E85AFE4F42855385FA0122
:100AB0000995899107CFBA92AA929A928A927A92CC
:100AC0006A925A924A92BA93AA939A938A932797D0
:100AD00000912B07002309F012C102E30A93BE0123
:100AE0006F5F7F4F4EE857E09E012E5F3F4F8E01B4
:100AF0000D5F1F4F0E945401002309F400C1DE0165
:100B00001396ECEFFFE704E015911D930A95E1F7CA
:100B10002A81A7E4B7E0498100912B0710E0FD018D
:100B2000E00FF11F4083EBE2F7E0008103950083C3
:100B300088E591E00A810F3FF9F520918E07009139
:100B40002B07FD01E00FF11F208344244394EBE2C7
:100B5000F7E000810395008308810330A0F055245D
:100B6000F201E257F84F208100912B07FD01E00FC1
:100B7000F11F2083EBE2F7E00081039500834394AB
:100B80000881401660F303E511E00E941312098109
:100B90000B3409F0B4C00091900701FFB0C001E030
:100BA000FC01068F6EE877E0FD01418110E09E01B7
:100BB0002D5F3F4F0BE4A2C00E3F59F50881002383
:100BC000A1F00EE817E02881F80131918F014091E2
:100BD0002B0750E0FD01E40FF51F3083EBE2F7E057
:100BE0003081339530832A9579F74424DE011396BA
:100BF000042D10E00E5F1F4F0E94A9000D93439437
:100C000004E04016A8F38E010D5F1F4F0E941312DF
:100C100076C006E0029F20010BE4400E03E0501E68
:100C20006080062D0395008382010E94A90011E0D7
:100C3000410E10E0511EFD01E60DF11F0083BB24A3
:100C4000B3944E0103E0800E911E0CEF602E0FE76F
:100C5000702E04E0A02E82010E94A90011E0410E36
:100C600010E0511EF4010083F3011491011709F003
:100C7000BB2401E0600E00E0701E01E0800E00E089
:100C8000901EAA9441F782010E94A90020912B078F
:100C900030E0FD01E20FF31F0083EBE2F7E010818B
:100CA00013951083BB20E9F48E010D5F1F4F0E9446
:100CB00013120881002319F10EE817E02881F801CA
:100CC00031918F0140912B0750E0FD01E40FF51F9A
:100CD0003083EBE2F7E03081339530832A9579F069
:100CE000EECFFC01368F30932B076EE877E0FD01E5
:100CF0004181102F9E012D5F3F4F098198DE27967D
:100D000089919991A991B991499059906990799057
:100D100089909990A990B9900895DA92CA92BA925E
:100D2000AA928A927A926A925A924A92BA93AA9311
:100D30009A938A932197552409E3A02E01E0B02EBF
:100D400007E4602E01E0702E80EC97E0ADE4B1E0A6
:100D500007E0C02EDD24F5010081002309F057C013
:100D600086010E94A900402E41FA0EF050C0860173
:100D70000F5F1F4F0E94A900802E03E0801648F0ED
:100D80000FEF801611F40AE004C003E3801610F0A0
:100D900002E3802EFC011081110F110FF30120815D
:100DA0002073203369F440FA96F1188341E09E01E4
:100DB000152D0BE48CDDFC0100810395008327C019
:100DC0003C91203131F440FA86F7381570F3136006
:100DD000ECCF008101FF1BC040FACEF41160412E20
:100DE000381531F4188341E09E01152D0BE46FDDB9
:100DF0000C9110E0E82DF0E033960E171F0739F440
:100E0000488241E09E01152D0BE461DD8C925394E4
:100E100002E0C00E00E0D01E1196019601E0600EC7
:100E200000E0701E01E0A00E00E0B01E0CE05016C5
:100E300008F491CF219689919991A991B9914990FE
:100E40005990699079908990A990B990C990D9905A
:100E500008954A92BA93AA939A938A93D801C901A2
:100E60000A01172F1C7F3C9170FB20E0FEF070E020
:100E7000AC01420F571F0E94620FF001E20FF71FF3
:100E80004081041789F42395243088F344243117D2
:100E900011F002E0402E1C930596AC010E94620FF7
:100EA000EEDB202F073000F100E028C070E0AC013D
:100EB000420F571F0E94620FF001E20FF71F40819F
:100EC000041791F72395243088F34424311711F047
:100ED00002E0402EFD0110830596AC010E94620FD6
:100EE000CEDB202F073000F706E0029FF001E3522F
:100EF000FA4F038100FDD8CF01E00429899199912F
:100F0000A991B99149900895BA93AA939A938A9313
:100F1000A3EDB6E0FD019181092FB1DB0F3F11F484
:100F200000E030C0202F06E0029FF001E352FA4FAC
:100F30008081FD01128100912507063038F0409133
:100F4000250743509D012D5F3F4F03C040E020E047
:100F500030E0092F64E1689FF001E85AFE4F668592
:100F60007785FB01099531E020E010E0FD0101816A
:100F700044E1489FF001E85AFE4F42855385FA014B
:100F8000099501E089919991A991B991089502E09B
:100F900010E00E94A9000F3F41F503E010E00E941D
:100FA000A9000F3F11F504E010E00E94A9000F3FD7
:100FB000E1F405E010E00E94A9000F3FB1F401E068
:100FC00010E00E94A9000F3F29F424E101E010E0A5
:100FD0000E94B90006E010E00E94A9000F3F29F42A
:100FE0002EEF06E010E00E94B9000895DA92CA924E
:100FF000BA92AA929A928A927A926A925A924A9251
:10100000BA93AA939A938A93A497CC24DD2411E0EF
:1010100000E00E9477130CEF1FE70E94D8130E9494
:10102000A9130E948D01B3DF0E94A6020E946F00E7
:101030000E947E0F0E94CB000FEF11EE24E00150C2
:1010400010402040E1F700C0000008E5802E01E0DC
:10105000902E01E0F401078F789459C00E94450258
:1010600000E000932507DD2009F051C000918301C5
:10107000002309F04CC0F89401E0009383017894B8
:1010800006E0C016E0F54C2C5524ADEDB5E0049D0E
:10109000A00DB11DFD0101814C9124E1249FF401BB
:1010A000E00DF11D20893189F9010995F401EC0D5C
:1010B000F51D008D002319F10A95008F01F509E651
:1010C000FC010083FD010281FC01018302969C0169
:1010D0000E94F40104E000932B076624CE01062D44
:1010E00010E00E5F1F4F0E94A900FC010193CF0189
:1010F000639404E0601698F38E010E9413120E941C
:101100006602C3940C2D4AE00E940414C42E0E946F
:10111000B302002339F001DE05C0DD24789400E03D
:1011200000932507A3EDB6E0DD2039F10E9461129E
:10113000009125070023D1F30C910A5571F30B514F
:1011400019F00550B1F0EBCF00E00093250778943B
:1011500005E00093830102C00E94611200918301A7
:101160000023D1F7F894F40104891589F801099551
:10117000D6CFDD24D394F894D2CF9DDC0E946112A7
:1011800087E497E000912507002309F46FCFFD0164
:101190001181028198015381412E4C914B5C09F4DD
:1011A0008CC1465509F441C0405209F486C14250F1
:1011B00009F454C0425009F49BC0465009F462C17E
:1011C000475009F44EC04A9509F499C1445009F4B6
:1011D00062C0435041F1495009F449C1455009F4F6
:1011E00074C0445009F407C1425009F473C043501D
:1011F00009F417C1425009F46CC1425049F04A95B4
:1012000009F45CC0425009F4E2C0425041F026CFDC
:10121000F894F40104891589F801099521CFDD249A
:10122000D394F8941DCF78941BCF009125070230FA
:1012300008F416CF0C91101709F012CF789405E03E
:101240000093830102C00E94611200918301002378
:10125000D1F7F894F40106891789DECF0E948C013A
:10126000FFCE580166240CC085010E94A90011E040
:10127000A10E10E0B11EFC01E60DF11F0083639486
:10128000FD010381601680F300932B070FE317E045
:101290000E941312E5CE58016624FD0103816016F9
:1012A00008F0DECE7724E60DF71D248185010E942B
:1012B000B90001E0A00EB71C6394EFCF00E0FC0181
:1012C000008301E0018302E0DFCF06E1FC0100833F
:1012D00000E0F8CF9C0102EF1FE74AE0F8015591CA
:1012E0008F01F90151939F014A95C1F70AE0CCCFD4
:1012F0000481002309F4B4CEFE01349600E210E02C
:1013000011930A95E1F7442455245901772428C004
:1013100085010E94A900102F01E0A00E00E0B01E80
:101320001F3FA1F001E0442D47700E94FF13202FC2
:10133000FE01349682011695079516950795169528
:101340000795E00FF11F0081022B00836394FD01DC
:1013500003816016E8F201E0400E00E0501E739435
:10136000FD010481701610F46624F1CF05E6FC013E
:101370000083FD010181FC010183FD010281FC016B
:101380000283FD010381FC01038366240FEF400EFD
:10139000501E56944794569447945694479482010D
:1013A0000F5F1F4F202F212B79F030E0FE01349684
:1013B000E60DF31F4081FC01E60DF31F44836394A7
:1013C00077246016710688F3042D0B5F5DCF0091C2
:1013D0002A07002309F044CE97DD09E6FC010083CB
:1013E000FD010181FC0101839C012E5F3F4F0E94A2
:1013F000F40104E049CF43D9402F0F3F09F430CE28
:101400000DED15E026E0249F000D111DFD01238147
:101410002223F801038119F00160038321CE0E7F9E
:10142000FCCF00912A07002309F01ACE06E010E055
:101430000E94A90000FB0EF413CEFD013281218130
:1014400009E117E0EBD9002309F00ACE01E5FC0120
:101450000083FD010181FC010183FD010281FC018A
:10146000028303E000932B0709E117E011CF2091DD
:101470002A07222309F0F4CD302F212F09E117E0AC
:101480008FD9EECD00912A07002311F051FFE8CD4E
:10149000F401068F352F212F09E117E0408151819A
:1014A000FA01099500912A07002309F0D9CD09E630
:1014B000FC010083FD01028195CF00912A070023E2
:1014C00009F0CECD352F212F8D010C5F1F4FF40178
:1014D000E5CF00912A07002309F0C2CD012FCFD814
:1014E0000F3F09F4BDCD042DCAD8202F06E0029F7E
:1014F000F001E352FA4F038100FDB2CD6DCF09E652
:10150000FC01008311839C012E5F3F4F012F6FCFA1
:10151000DA92CA92BA92AA929A928A927A926A922B
:101520005A924A92BA93AA939A938A935801D22EC6
:10153000932ECC2406EC602E07E0702E8FE190E015
:1015400006E2402E5524232F21700BE0029F400C11
:10155000511CAC014C5F5F4F0E94620F0D1509F0EA
:10156000B1C0AC010E94620FF5011081011709F0B2
:10157000A9C0192D1C7FF301308190FAAC01A6F0AF
:101580004A5F5F4F0E94620F202F217009F49AC0BA
:101590003117B1F40470A1F4AC014B5F5F4F0E94AE
:1015A000620F0E94AD038EC04F5E5F4F0E94620FBC
:1015B000202F217009F486C0311711F4047061F3F3
:1015C000792D6D2DA5019C0183010E942907802E94
:1015D000002309F477C0A2010E94650F012BC9F412
:1015E00092012E5F3F4FA9010E94650F012B89F4E4
:1015F00092012C5F3F4FA9010E94650F012B49F416
:1016000092012A5F3F4FA9010E94650F012B09F447
:1016100059C0AC014B5F5F4F0E94620F0E943F03B5
:101620000F3F09F44FC0202FA9E2B6E00BE1029F63
:10163000A00DB11DB201685F7F4FAB010E94650F25
:10164000B801FD01158903E0109F402D8B010E9418
:10165000181407700430B0F506E0029FF001E35261
:10166000FA4F05810F7071F5FD01028D002339F0ED
:1016700000917601002319F4082D0E7F71F0192DC9
:101680000C2D23D28694382D292D10E0AC014B5F10
:101690005F4F0E94620F3AD307C0AC014B5F5F4FB0
:1016A0000E94620F0E94AD0300917601002321F495
:1016B00000E0FD01028F06C001E0FD01028F00E0A5
:1016C00000937601C3940CE1400E00E0501E4C964E
:1016D00001E0600E00E0701E0DE1C01608F439CF85
:1016E00089919991A991B99149905990699079906E
:1016F00089909990A990B990C990D99008953B2F5D
:101700004A2F202FE8E5F1E004E1019FE00DF11DF3
:1017100003EC1BE0048315830CE01CE000871187B9
:1017200003E51CE00683178306E81EE002871387A3
:1017300000EF1CE004871587068717870CEF1EE073
:10174000008B118B08E81AE00083118309E21FE087
:10175000028B138BE9E2F6E00BE1029FE00DF11D35
:10176000DF0110E01D930A95E1F70FEF068B078B61
:10177000008F018F048705870687078703E0058BA5
:10178000A42FB32F0895BA938A931801722F132EA2
:1017900080E02FE130E01DE1A9014C5F5F4F0E9426
:1017A000620F071769F5A9014B5F5F4F0E94620F37
:1017B000011531F560E0B0E0A901460F5B1F0E9402
:1017C000620FF101E60FFB1F4081041719F46395C6
:1017D000643088F36430A1F40FEFA9014C5F5F4FD0
:1017E0000E94730FA9014B5F5F4F0E94730FA90105
:1017F00064E00E94730F4F5F5F4F6A95D1F7839546
:10180000245E3F4F1A9541F6882311F000E001C095
:1018100001E08991B9910895AA939A93382EB8015D
:10182000122F232EA0E08FE190E02CE12A9F90015F
:1018300050E043E2400D511D0E94620F0F3F51F0F6
:101840000C01020E131EA0014B5F5F4F0E94620F3E
:101850000F3F11F400E023C0A0014C5F5F4F0E94D6
:10186000620F0117C1F4A0014B5F5F4F0E94620F2E
:10187000021589F420E0A001420F591F0E94620F57
:10188000FB01E20FF91F3081031719F4239524306F
:1018900090F32430F9F2A395AD3138F201E0832DB5
:1018A0009991A99108954A92BA93AA939A938A9387
:1018B000C801B22F432EA42F66DFE0E02FE130E015
:1018C0000CE10E9FB901600D711D50E043E2400D27
:1018D000511D0E94620F0F3F41F0AB014B5F5F4F04
:1018E0000E94620F0F3F09F070C0AB01FC0114E0D1
:1018F00001910E94730F4F5F5F4F1A95C9F7AB01BB
:101900004C5F5F4F0B2F0E94730FAB014B5F5F4F1C
:10191000042D0E94730F00E010E09B012E5E3F4FEC
:10192000A9010E94770F9B01295F3F4FA9010E94E7
:10193000770F9B012A5E3F4FA9010E94770F9B0101
:10194000255F3F4FA9010E94770F0FEF1FEF9B010B
:101950002C5E3F4FA9010E94770F9B01275F3F4FED
:10196000A9010E94770F9B01285E3F4FA9010E94A9
:10197000770F9B01235F3F4FA9010E94770FAF3F75
:1019800019F401ED10E007C0A83C19F409E412E0D5
:1019900002C00BED16E09B01265E3F4FA9010E949D
:1019A000770F9B01215F3F4FA9010E94770F01EF45
:1019B000AB014A5F5F4F0E94730F05EF6F5E7F4F71
:1019C000AB010E94730F00E005C0E395ED3108F410
:1019D00077CF01E089919991A991B99149900895A2
:1019E0007A926A925A924A92BA93AA939A938A9353
:1019F000912FD901842F0E943F03402E06E040160C
:101A000008F05AC0049DF001E352FA4F41809F3F15
:101A100081F0E9E3F6E00BE1049DE00DF11D14E037
:101A200004C003E001931A95D1F09923D1F301E0AA
:101A3000F9CF90E009E316E02BE1249D3801600C1A
:101A4000711C092F10E00F5F1F4F44E050E00E940F
:101A50003614F30141933F019395943090F309E2DA
:101A600016E02BE1249D2801400C511C01EFF201EE
:101A7000048B00E000830183028303830A2F0B2B76
:101A800011F0882331F40FEF048305830683078365
:101A900009C00D911C910E945203F2010483158329
:101AA0002683378300E000870187028703870FEFD3
:101AB000048705870687078789919991A991B9912C
:101AC000499059906990799008956A925A924A92F1
:101AD000BA93AA939A938A93412EA12FA1708FE172
:101AE00090E0202F0CE1029F800D911DAC014B5F17
:101AF0005F4F0E94620F0E943F03602F063008F084
:101B0000FDC006E0069FF001E352FA4F6181AA236F
:101B1000AC0111F04F5E01C04A5F5F4F0E94620F3F
:101B20002BE1269FF001E75DF94F048B0BE00A9F44
:101B3000800D911DA9E2B6E00BE1069FA00DB11D3D
:101B4000FD01048904FD0EC042FA05FD08C046F4FB
:101B500013E0709604E011930A9559F1FCCFC6F793
:101B600011E0F7CF66242D0100E1400E561C9C01C8
:101B7000215F3F4FA9010E94650F23E0629E402D27
:101B80000E9418140770F2010083053050F0062DF2
:101B900010E00F5F1F4F44E050E00E943614F20146
:101BA0004083639401E0400E00E0501E04E06016A4
:101BB000F0F29C01295F3F4FA9010E94650F0F3F82
:101BC0002FEF120731F400E00D930D930D930C935A
:101BD00006C00E9452030D931D932D933C931397BF
:101BE0009C01255F3F4FA9010E94650F0F3F2FEF1A
:101BF000120739F400E0FD0100870187028703879F
:101C000007C00E945203FD01008711872287338796
:101C10009C01275F3F4FA9010E94650F0E9452035C
:101C2000FD01448947FD18C0448155816681778153
:101C3000041715072607370778F445894130B1F4B2
:101C40005189523098F446895789608D718D4017BB
:101C500051076207730728F40483158326833783AB
:101C600011C044835583668377830CC04423A1F756
:101C70004089423088F744815581401751076207F7
:101C8000730750F30D96AC010E94650F0E9452033A
:101C9000FD01448946FD1AC04485558566857785D2
:101CA000041715072607370788F445894330C1F420
:101CB00053895230A8F0543098F446895789608D82
:101CC000718D401751076207730728F40487158741
:101CD0002687378713C044875587668777870EC066
:101CE0004230A1F74289423088F3443078F7448586
:101CF0005585401751076207730740F38991999101
:101D0000A991B9914990599069900895BA93AA936D
:101D10009A938A93902FB12FA32F80E00E943F03C4
:101D2000063008F064C0EDEDF5E0202F06E0029FDC
:101D3000E00DF11D02810C3008F059C0018129E24B
:101D400036E04BE1409F200D311DB13029F4F901FF
:101D500015891395137009C0A0FB46F4F901458954
:101D600050E0E40FF51F1089F901158BF901158971
:101D7000112339F01A9551F01A9569F01A9581F0EE
:101D800017C040815181628173810EC044815581A9
:101D90006681778109C0408551856285738504C05D
:101DA0004485558566857785468B578B608F718F07
:101DB00046895789608D718D452B462B472B29F419
:101DC000B1E08395843008F4BACF0589013011F071
:101DD000023011F411E001C010E0092F0E94C90186
:101DE00000917601002319F4092F0E94AD03899117
:101DF0009991A991B9910895602FE9E2F6E00BE17C
:101E0000069FE00DF11D06891789208D318D0F3F4A
:101E10004FEF140724073407D9F0012B022B032BB3
:101E2000B9F006890150104020403040068B178BD6
:101E3000208F318F012B022B032B51F431E020E056
:101E400011E046E0469FF001E352FA4F02815EDF67
:101E5000089543E150E0202F06E0029FF001E35295
:101E6000FA4F018112E0019F400D511D0E94620F47
:101E7000017008950F921F922F923F920F931F931C
:101E80002F933F934F935F936F937F93EF93FF93C2
:101E90000E946012FF91EF917F916F915F914F913E
:101EA0003F912F911F910F913F902F901F900F9076
:101EB000E199E0CF08954F5F5F4FFADF4EBB5FBB04
:101EC000E09A0895FADF0DB30895F7DF0DB3F3DF5D
:101ED0001DB308954F5F5F4F4EBB5FBBF894E29A0E
:101EE000E19A0FBE08950FB6E3DF0DBBF5CF0FB635
:101EF000DFDF0DBBF1DFDCDF1DBBECCF00E000BDA1
:101F000009E109B900E10AB906EA00BDE9E1F7E033
:101F100000E0058F028B0487048B0FEF068B058B87
:101F20000783068305830483899A8A9A929801E03D
:101F3000028F02E003BF09B7016009BF0895BA9399
:101F4000AA939A938A93A9E1B7E000E0FD01048780
:101F50005F9902C000E062C21BB10CB11471D1F7ED
:101F600012A10C3F29F4112319F401E002A3F2CFCE
:101F700024A1239524A30D3F99F400E004A3068F28
:101F8000078F03E000A301E003A300E003830283C3
:101F900001830C930E9456000DEF0E943400DACFAB
:101FA0000E3F19F400E003A3D5CF112319F0006808
:101FB00010E012A313A1112369F2278D50E0243001
:101FC000C8F40F3F19F010A11D7F10A3ECEFFFE73D
:101FD000E20FF51F1491011721F0FD0110A11E7FE2
:101FE00010A3FD01E20FF51F0587FD01178D139565
:101FF000178FD3CFA9F410A111FF03C011E0118BEB
:1020000001C0518B038B10A1112331F41389177078
:10201000133011F053A302C011E013A315E0E8CF71
:10202000138913FF0AC01770133039F0293028F4D0
:10203000E20FF51F35970083D8CF2F3F21F01FEF18
:10204000178F01A3AACF268D30E0F901ED52F94F89
:1020500000830E943400FD01068D10E081A190E014
:10206000019708171907B1F400E000A30E9434009B
:1020700000E00E943400E1E8F1E000811181012BD1
:1020800021F000E0FD01048766CFFD0101A1048776
:1020900001E061CF0634A9F30395068F5BCF08E01A
:1020A0000AB9929A5E9A08EF0CB95E9BFECF00E1E6
:1020B0000AB992980895542F4A95552389F0F8014A
:1020C0005081F9016081561710F40FEF0895519176
:1020D0009F01F80161918F01561768F701E008959B
:1020E00000E0089506C0F90151919F01F801519354
:1020F0008F01542F4A955523B1F70895BA93AA93A7
:102100008A93A9E1B7E0FD010485002311F000E006
:1021100084C015DF0023D9F3FD012389022F077046
:10212000033031F500E010E01487269526952695BA
:10213000239539F41BC0361751F7285003952223F5
:10214000A9F0FD01E00FF11F6585ECEFFFE7E00F5F
:10215000F11F3491283078F70FEF48E0421B0E94BE
:102160001214102F13230623101789F603E055C00D
:10217000022F01711189112329F0003141F200E091
:102180000487C5CF0031E1F526952370822F03899E
:1021900007FF02C00FEF058B0589021741F544E0E8
:1021A0009D012A5D3F4F8D0186DF002301F500E090
:1021B000FD010487FD01058D063059F5838982955F
:1021C0008F708695837044E09D018D01065D1F4FE1
:1021D00072DF0023C1F4FD01018D069503708017A5
:1021E00091F403890779013191F402E016C0FD01F1
:1021F000858B44E09D018D010A5D1F4F73DFDACFAF
:1022000027792131A1F200E0FD01048706C001E039
:1022100004C01389117001E001278991A991B99136
:1022200008950D3F21F00E3F11F00C3F61F4109125
:102230008D07112339F45D9B08C01CEF1CB911E018
:1022400010938D070F775D9902C000E008950CB9D7
:102250005E9A00E000938D0701E00895BA93AA9377
:102260009A938A93A9E1B7E0FD01008D0023B1F4B0
:1022700008E00AB9929A0E945600FD01008D03956C
:10228000008F00E005A3018D077901318D0111F464
:102290000A5D01C0065D1F4F02871387008D013064
:1022A00049F45D9B0CC00DEF0CB902E0008F0DEFFF
:1022B0000E943400FD01008D0230D9F414C000E00A
:1022C000ADC08285938510E0800F911FFC010081D5
:1022D000A8DF0023A1F3FC0100810E943400FD016E
:1022E00005A1039505A305A1043058F3008D0395BE
:1022F000008F008D033059F4818D082F92DF002369
:10230000F1F204E0FD01008F082F0E943400FD016E
:10231000008D0430E9F4018D03FD14C005E0008F49
:102320001AC0E8EFFFE710E0E00FF11F8491082FDB
:1023300078DF002321F2082F0E943400FD0105A15F
:10234000039505A305A1083060F3008D0395008F68
:10235000008D053091F48289018D0171013109F4FC
:1023600080E08E5F082F5DDF002309F4A8CF06E030
:10237000FD01008F082F0E943400FD01008D063002
:1023800029F58289018D0171013199F480E011C034
:1023900010E0F801E95BF84F9081092F42DF00233C
:1023A00009F48DCF092F0E943400FD0107890395A0
:1023B000078B0789081760F300E00E94340000E0F3
:1023C0000E943400FD01008D0395008F008D0730C1
:1023D00079F40091820125DF002311F001E001C0B2
:1023E00000E0002309F46BCF08E0FD01008F02C07C
:1023F000083051F40091810114DF002309F45FCF0C
:1024000009E0FD01008F02C0093039F45E9B57CF0F
:1024100000E10AB992980AE0008F01E08991999150
:10242000A991B991089544E0980103E417E05ACEC8
:10243000BA93AA938A9380E0A9E1B7E0FD01878B64
:10244000808F44E09D012C5F3F4F8D01065D1F4F43
:1024500032DE002309F080E844E02CE731E08D0112
:10246000065D1F4F28DE002391F044E09D01265DAC
:102470003F4F8D010C5F1F4F35DEFD01048916892A
:10248000101719F403950370048B0489068BFD0162
:10249000038D033089F4048925892295207F220F3A
:1024A000102F110F122B182B1861118F033010F001
:1024B00000E001C00395048B8991A991B991089519
:1024C0000000BA93AA9300917701002311F40FEF53
:1024D000CBC014DE033011F4E2DDF9CFABE2B7E09C
:1024E0001C911B962C915D97222391F02A9511F156
:1024F0002A9509F45DC02A9509F475C02A9509F456
:1025000085C02A9509F450C02A9509F489C0AAC04B
:10251000013029F401E05D960C935D97A3C011236F
:1025200009F4A0C002E05D960C93129703E00C93AF
:102530005B9798C05A960C915A97002309F092C065
:102540001123E1F044E09D012A5D3F4F8D01065DBE
:102550001F4FB1DD002391F403E05B960C9353977A
:1025600067DFF89402B710E00F70000F08531F4F99
:102570000D931C935496789403E00EC000E0579698
:102580000D930C9313970C9114960295007F000FF6
:1025900009610C93149605E00C935D975FDE0023B0
:1025A00009F460C000E0B7CF59DE0023D9F75AC064
:1025B000013009F4AFCF5A960C915A97002309F0D5
:1025C00051C036DF44E02CE731E08D01065D1F4F3E
:1025D00072DD002311F404E001C003E05D960C936A
:1025E0005D973CDE3FC03ADE0023E1F106E05D96F8
:1025F0000C935597F89402B710E00F70000F085332
:102600001F4F0D931C93199778942CC027DE00233D
:1026100049F100E05D960C931B970C93529722C0F2
:10262000F894023029F400E052960C931B9617C0E0
:10263000013031F400E052960C931B9601E00FC07C
:1026400018960D911C911997012B59F45B960C91DA
:102650000A950C935B97002331F302E05D960C938F
:102660005D9778945D960C91A991B9910895FA932C
:10267000EA932A931A930A932FB7E9E1F7E0809936
:102680000BC001E0028F02B70F700C5E048F00E0F8
:1026900002BF08B7016008BF048D0A95048F11F4CA
:1026A00000E0028F00851185012B31F00085118536
:1026B00001501040008711872FBF0991199129916E
:1026C000E991F9911895C79808EC00000A95E9F787
:1026D000C79A2EC0C79808EC00000A95E9F7C79A78
:1026E00008EC00000A95E9F70895C79821C09A936D
:1026F0008A93902F812FBF9AE6DF01C0EBDF092F6D
:102700009A950023D9F7DFDF01C0E4DF082F8A950F
:102710000023D9F7D8DFE9DF07B3007807BB899139
:1027200099910895C69808EC00000A95E9F7C69AB1
:102730000FE811E001501040E9F700C000000895D3
:10274000C69808EC00000A95E9F7C69AC9CFC69862
:10275000EFCFBA93AA939A938A93289760E0702F49
:102760007F70FE013796462F50E041955040E40FB0
:10277000F51F708344E00E944A146395683078F333
:10278000BE9AD0DFDE0188E09D9101C0D9DF092F1C
:102790009A950023D9F7C6DF8A95B1F7D8DF07B33A
:1027A000007407BB289689919991A991B9910895D0
:1027B000F80110E020E030E040E00590002D4330CB
:1027C00039F0322F212F102D00E043954430A8F32B
:1027D00008950C947C140BE20DBF01E00EBFC0EF16
:1027E000D0E00E945214002311F00E9462140E9453
:1027F000F6070E94FD130C94E9130C94E9134A9513
:1028000012F0000FE1F708950024E8E0EA9532F0B5
:10281000001F001C0416D0F3041AF8CF001F402D2F
:10282000009508954A951AF0000F111FFBCF0895E7
:102830004A951AF016950795FBCF089500241124A8
:10284000EFE0001F111F001C111C0416150610F0EC
:10285000041A150AEA95AAF7001F111FA001009596
:10286000109508955195419550400895FF2755239F
:1028700012F4F160F7DF112312F4F09507D00E94F3
:102880001E14F0FD03D0F1FDEDCF089511950195D3
:10289000104008954A952AF0369527951795079583
:1028A000F9CF089501E0089520E006D0E9F70895F2
:1028B000259102D0E9F708952D9301501040202F63
:1028C000212B08958AEF98E2FC0105911491FC01F7
:1028D0003296A591B491FC01349625913491422F02
:1028E000432B19F0F901E4DF01C0DEDF069619E29F
:1028F0008630910748F30895FFCF0D06810100004F
:1029000055002C0106291008402004022040081020
:1029100002040000000000000001010101010100AB
:102920000A000000000000000000000000FFFFFFA0
:10293000FF00000000000000000000000000000098
:10294000000000000000003C00000000000000004B
:10295000000000100800FFFFFFFF00FFFFFFFFFF68
:10296000FFFFFFFFFFFFFFFFFFFFFFFFFFFFFFFF77
:10297000FFFFFFFFFFFFFFFFFFFFFFFFFFFFFFFF67
:10298000FFFFFFFFFFFFFFFFFFFFFFFFFFFFFFFF57
:10299000FFFFFFFFFFFFFFFFFFFFFFFFFFFFFFFF47
:1077F0000100FFFFFFFFFFFFFFFFFFFFFFFFFFFF96
:00000001FF
